:100000000C943F020C9486020C9486020C94860297
:100010000C9486020C9486020C9486020C94860240
:100020000C9486020C9486020C94C0210C949222AB
:100030000C94DB160C9486020C9486020C948602B7
:100040000C9486020C9486020C9486020C94860210
:100050000C9486020C9443170C9486020C9486022E
:100060000C9486020C9486020C9486020C948602F0
:100070000C9486020C9486020C9486020C948602E0
:100080000C9486020C9486020C9486020C948602D0
:100090000C9486020C9486020C9486020C948602C0
:1000A0000C9486020C9486020C948602720C720CDC
:1000B000A40CA40CF10C110D710E710E530DF00D6A
:1000C000010E010E610E710E710E6A0EF30EF30E2B
:1000D000050F050FFC0E050F050F050FF30EF30EB0
:1000E000010F050F050F010F151C0B1C231C7C1C99
:1000F000831C831C7C1C831C831C441C831C4E1C83
:10010000581C831C831C831C831C7C1C831C831C29
:100110007C1C831C311C831C831C681C681C681C91
:10012000681C681C681C681C681C681C7E1C831C7E
:10013000151C081C831C831C831C831C831C831CB0
:10014000831C831C831C831C7E1C831C831C7C1CC3
:10015000831C661C661C661C661C661C661C661C72
:10016000661C661C7E1CFF222623182426231824C6
:10017000722395231824EB23FA23290014001A0074
:100180000800150017001C0018000C0012001300D6
:100190002A002B0004001600070009000A000B00CB
:1001A0000D000E000F0033002800E1001D001B00B1
:1001B0000600190005001100100036003700380055
:1001C00052000251E000E2000351E3000000000091
:1001D0002C000151500051004F0035001E001F003F
:1001E00020002100220023002400250026002700F3
:1001F0004C000000000000000000000000000000B3
:1002000000000000000000000000E100000000000D
:1002100000000000000000000000000000000000DE
:1002200000000000000000000000000000000000CE
:100230000000000000000000005C3A003B003C00B1
:100240003D003E003F0040004100420043004400AA
:100250004500000000000000000000000000000059
:10026000000000000000000000000000000000008E
:10027000000000000000000000000000000000007E
:10028000000000000000000000000000000000006E
:100290000000000000000000005CC25CBE00BD0069
:1002A000CA5CC95CAC00AE00AB00A800AA00A90003
:1002B000A500000000000000000000000000000099
:1002C000000000000000000000000000000000002E
:1002D000000000000000000000000000000000001E
:1002E000000000000000000000000000000000000E
:1002F00000000000000000000000040330000000C7
:1003000010034D0069006E006900760061006E0008
:10031000000018034500760061006E0020005300C5
:10032000610069006C0065007200000004030904AC
:1003300009023B00020100A0FA09040000010301C8
:100340000100092111010001224000070581030875
:10035000000A090401000103000000092111010045
:100360000122C0000705820320000A1201100100CB
:10037000000008AEFE4488020001020301050109E5
:1003800002A10185020901A100050919012905152C
:10039000002501950575018102950175038101050F
:1003A00001093009311581257F95027508810609FB
:1003B000381581257F950175088106050C0A3802DC
:1003C0001581257F950175088106C0C0050109804A
:1003D000A10185031A81002A83001601002603006B
:1003E000950175108100C0050C0901A10185041A51
:1003F00001002A9C02160100269C029501751081BD
:1004000000C005010906A1018505050719E029E7D6
:10041000150025019508750181020507190029EFCE
:100420001500250195F075018102050819012905BE
:10043000950575019102950175039101C0050109AA
:1004400006A101050719E029E715002501950875A2
:100450000181029501750881010507190029FF1521
:100460000026FF0095067508810005081901290579
:10047000950575019102950175039101C000112444
:100480001FBECFEFDAE0DEBFCDBF04B603FE27C04C
:1004900080911E0290911F02A0912002B091210232
:1004A0008730904BA740B04BD1F410921E021092AF
:1004B0001F02109220021092210214BE84B7877F7F
:1004C00084BF0FB6F894A8958091600088618093EE
:1004D0006000109260000FBEE0E0F8E3099511E0C3
:1004E000A0E0B1E0ECE7F9E402C005900D92AE3275
:1004F000B107D9F722E0AEE2B1E001C01D92AE3102
:10050000B207E1F70E94E91E0C94BC240C94000091
:1005100081E0089581E008950C948A021F93CF939F
:10052000DF9300D000D01F92CDB7DEB749835A8346
:100530002091540189819A81211112C0662349F0CA
:100540000E941814182F682F89819A810E94BD1368
:1005500003C00E94EC13182F69817A81812F04C097
:100560000E94181469817A810F900F900F900F905C
:100570000F90DF91CF911F910C945703FC014081A4
:1005800051816281738184810C948E020E9448158E
:10059000811102C00E94F2150C94FE050C94010614
:1005A00008950C94D00281E008950C94D302CF9367
:1005B000C82F0E94D1028C2F0E94D502CF9108959E
:1005C00008950E94E30E0E94E0022FEF84E39CE076
:1005D000215080409040E1F700C000000C94691762
:1005E0000F931F93CF93DF93EC010E94BE028C0107
:1005F000BE010E948C02882309F44FC0BE01C801CD
:100600000E94AB07882309F448C0BE01C8010E94BC
:10061000EC07882309F441C08A81882371F0011511
:100620008CE5180739F00E3D8CE5180731F40E946F
:10063000F21533C00E94E10230C006311C4531F58D
:100640000E949814282F8A81409100015091010145
:10065000882379F02A7A91E009F490E090932E01B2
:10066000911102C069E201C065E3CA010E945E16F1
:100670000AC080912E01811102C069E201C065E3C8
:10068000CA010E9469160E94E41407C0CE01DF91DE
:10069000CF911F910F910C94880280E0DF91CF9150
:1006A0001F910F91089580E090E0089508959CE0D7
:1006B000799FF001112490E3899FE00DF11D112431
:1006C000E60FF11DEE0FFF1FE658FE4F8591949146
:1006D0000895880F991FFC01E650FD4F8591949174
:1006E0000895CF93DF930E9457030E942605EC01E3
:1006F000811520E59207F0F5811530E4930708F0A5
:1007000024C1883E910500F5803E910508F09AC10C
:10071000883A910570F4853A910508F09FC08130C0
:10072000910509F48FC108F440C1049708F08AC10B
:100730003CC18F3B910508F49CC0803C910508F4B6
:1007400034C1805C9109F4C0811540E2940758F4EB
:10075000C11581E0D80708F075C1C03FD10508F484
:1007600024C1D0656FC1811520E3920708F0E4C071
:100770009F70DEC0811535E5930708F044C08115F0
:1007800044E5940708F0F8C0C11582E5D80708F5DC
:10079000C11521E5D20708F0DBC08C2F837021E062
:1007A00030E002C0220F331F8A95E2F73C68CE0189
:1007B00074E0969587957A95E1F78370382BCF7022
:1007C000C695C69580E2C89FE0011124C22BD32BA9
:1007D00039C12C2F26952695CE0183709927C115F6
:1007E000D34508F0BAC040E2249F90011124C1E033
:1007F000D0E002C0CC0FDD1F8A95E2F72C2B3D2BF9
:10080000E901DC681FC1811549E59407A0F4C11511
:1008100088E5D80708F0B5C0C11526E5D20708F06D
:10082000C4C08C2F0E94BA058F71C82FD0E0DC2F76
:10083000CC27D06207C181153AE5930708F4A6C01A
:1008400090568115904208F0B0C08D2F8F710E9494
:10085000BA05DD27D0628F71D82BF4C0853A910597
:1008600009F4A6C0863A910509F0A5C0C2E8D0E413
:10087000E9C0883A910509F4A1C0893A910509F4C3
:10088000A0C08A3A910509F49FC08B3A910509F4FA
:100890009EC08C3A910509F49DC08B3B910509F4EB
:1008A0009CC08C3B910509F49BC08D3A910509F4DD
:1008B0009AC0803B910509F499C08E3A910509F4DC
:1008C00098C08F3A910509F497C0813B910509F4CE
:1008D00096C0823B910509F495C0833B910509F4CC
:1008E00094C0843B910509F493C0853B910509F4BC
:1008F00092C0863B910509F491C0873B910509F4AC
:1009000090C0883B910509F48FC0893B910509F49B
:100910008EC08D3B910509F48DC08E3B910509F485
:100920008CC08A3B910509F48BC0C0E0D4E48AC036
:100930000E946903EC0186C09927D3FF03C0EC0134
:10094000D86C80C0EC01D06C7DC0DF70D06A7AC0FA
:10095000DC2FCC27C16FD06A75C040E2249F900184
:100960001124C1E0D0E002C0CC0FDD1F8A95E2F770
:10097000C22BD32BDA6866C0D82FCC27C46FD06ABD
:1009800061C0DC2FCC27C06FD06A5CC08F700E9422
:10099000BA0594E0D695C7959A95E1F7CF70D0E067
:1009A000DC2FCC27D069C82B4DC0C0E0D0E04AC0B6
:1009B000C1E8D0E447C0C3E8D0E444C0C2EED4E408
:1009C00041C0C9EED4E43EC0CAEED4E43BC0C5EB9E
:1009D000D4E438C0C6EBD4E435C0C3EBD4E432C0B1
:1009E000C4EBD4E42FC0C7EBD4E42CC0CCECD4E4EB
:1009F00029C0CDECD4E426C0C3E8D5E423C0CAE8BE
:100A0000D5E420C0C2E9D5E41DC0C4E9D5E41AC0CC
:100A1000C1E2D6E417C0C3E2D6E414C0C4E2D6E40F
:100A200011C0C5E2D6E40EC0C6E2D6E40BC0C7E2F0
:100A3000D6E408C0CFE6D4E405C0C0E7D4E402C0E1
:100A4000CAE2D6E4CE01DF91CF91089582389105B4
:100A500069F1B0F48133910509F46DC048F489322D
:100A6000910509F463C08A32910509F469C00895BB
:100A70008533910509F455C089339105B9F008957E
:100A8000833E910569F138F4803E9105B1F0823ED4
:100A9000910509F10895863E9105A9F1873E9105DA
:100AA000B9F1843E910509F064C023C020910F0282
:100AB00020FD4FC021FD4DC0089580910F0280FDA3
:100AC00044C08091100280FF44C080910F0284FDD9
:100AD00042C083EE4DC080910F0282FF38C0F5CF37
:100AE00080910F0282FD33C08091100280FD31C0E1
:100AF000ECCF8091100281FF32C080910F0284FD03
:100B00002AC087EE35C080910F0283FF26C0F5CF43
:100B100080910F0283FD21C08091100281FD1FC0D2
:100B2000ECCF80910F0285FD1CC01DC080910F028B
:100B300085FD19C016C080910F0286FD16C017C032
:100B400080910F0286FD13C010C089E311C082EEB0
:100B50000FC080EE0DC080E00BC086EE09C084EEB1
:100B600007C089E205C085E303C08AE201C081E3D2
:100B700090E0089590910F0292FF0DC0282F2871E8
:100B8000283019F4877F846006C0282F2471243010
:100B900011F48B7F886093FF0DC0282F28712831B6
:100BA00019F4877E846106C0282F2471243111F442
:100BB0008B7E88612091100220FF0DC0382F387184
:100BC000383019F4877F816006C0382F3171313099
:100BD00011F48E7F886021FF0DC0282F28712831E5
:100BE00019F4877E816106C0282F2171213111F40B
:100BF0008E7E886194FD877E089508950C94FD058E
:100C000008950C9400060895E82FF0E0EE0FFF1F02
:100C1000E15DFE4F808191810895AFE1B1E041E057
:100C200050E024E02A0F8D91E82FE295EF70F0E07C
:100C300031A18F70BA0102C0660F771F8A95E2F763
:100C4000CB01962F9095932391A392A1892B82A3F8
:100C50002A13E9CFA3E1B1E041E050E02CE02A0FF4
:100C60008D91E82FE295EF70F0E031A18F70BA011D
:100C700002C0660F771F8A95E2F7CB01962F9095F9
:100C8000932391A392A1892B82A32A13E9CF1092D7
:100C90003801109237011092300110922F011092FA
:100CA0003A011092390110923201109231011092E2
:100CB0003C0110923B0110923401109233011092CA
:100CC0003E0110923D01109236011092350184E0F0
:100CD0000E9403070C94C6025F926F927F928F92DC
:100CE0009F92AF92BF92CF92DF92EF92FF920F93BB
:100CF0001F93CF93DF930FE111E0A7E3B1E0612CE5
:100D0000EE24E394F12C5D018D909C901197119647
:100D10001C921E92E80189918E01E82FE295EF70F6
:100D2000F0E091A18F70A70101C0440F8A95EAF706
:100D3000892F842B81A382A1542E5094852182A3D4
:100D4000D0EADA95F1F783E1C82E81E0D82E80E071
:100D500090E0E60179906E01272D22952F7030E00A
:100D6000E90168A12D913C91119770E0D72DDF70BA
:100D700002C075956795DA95E2F760FD08C0B70186
:100D8000082E02C0660F771F0A94E2F702C060E0E7
:100D900070E0262B372B11963C932E9301968C30C6
:100DA0009105B9F681A1D52DD823D1A382A1482BD5
:100DB00042A3129681E0F5012081318182169306CB
:100DC00009F480E0682AF1E0AF33BF0709F09BCF58
:100DD000262D44E06FE271E087E391E00E94040772
:100DE0000E94CE02862DDF91CF911F910F91FF902F
:100DF000EF90DF90CF90BF90AF909F908F907F90BB
:100E00006F905F9008950895FF920F931F93CF9373
:100E1000DF93F82E092F162FD72FC42F222349F046
:100E200081E0809341010E940D17909340018093CF
:100E30003F01809141018823D9F080913F01909139
:100E400040010E941917069798F0EF2DF02FA12F5F
:100E5000BD2F80E090E04C2F50E08417950734F4CC
:100E6000219131912D933D930196F7CF109241013D
:100E7000DF91CF911F910F91FF9008950F931F93D2
:100E8000CF93DF93C62FD42F022FFC0182818823BA
:100E9000C9F0609344010E940D1790934301809321
:100EA000420180E28C0F883008F050C0C77081E0AA
:100EB00001C0880FCA95EAF7DF91CF911F910F917A
:100EC0000C94320C10914401161330C080914201F1
:100ED000909143010E941917883C910538F5C0E2B2
:100EE000CD0F1D17B9F080E2810F883040F41770E4
:100EF00081E001C0880F1A95EAF70E94390CC830CA
:100F000048F481E09D2F977001C0880F9A95EAF709
:100F10000E94320C802F0E941F0CC830B8F4D7708A
:100F200081E001C0880FDA95EAF70AC080E28C0FF1
:100F3000883060F4C77081E001C0880FCA95EAF775
:100F4000DF91CF911F910F910C94390CDF91CF91CC
:100F50001F910F9108959C01CB01233F4CE534076D
:100F6000F9F078F4283DFCE53F07B9F0293D4CE560
:100F7000340711F1273D3C4531F526E241EE61EEA3
:100F80001EC0253FFCE53F0799F070F0263F3C4529
:100F9000D1F427E245EE66EE12C027E245EE0EC020
:100FA00026E241EE60EE0BC027E245EE64EE07C09C
:100FB00026E241EE62EE03C028E241E065EE0E94C7
:100FC0003E0780E00895FC018281882319F0109289
:100FD0004401089581E00895CF93DF93EC01FB0174
:100FE0008281882309F41FC1C230FCE5DF0708F4C1
:100FF0001BC1C6319CE5D90738F09E012A5F3C45EC
:101000002930310508F010C10E9465159093100237
:1010100080930F02C031ECE5DE0709F4C3C008F08D
:1010200041C0C8308CE5D80709F49AC0F0F4C43048
:10103000ECE5DE0709F487C068F4C2308CE5D80718
:1010400009F477C0C330DC4509F0E3C080910F029A
:10105000826076C0C630ECE5DE0709F46EC008F0A9
:101060007BC080910F0288606BC0CC308CE5D807C4
:1010700009F485C068F4CA30ECE5DE0709F474C0F1
:1010800008F079C00E94E30E80910F02806858C07A
:10109000CE308CE5D80709F476C008F07FC0809187
:1010A0000F028BC0CB3FECE5DE0709F44FC018F50B
:1010B000C3318CE5D80709F47DC078F4C131ECE583
:1010C000DE0709F473C0C231DC4509F0A2C00E94FA
:1010D000E30E80910F028F7733C0C5318CE5D807BE
:1010E00009F472C008F486C0CA3FDC4509F091C01B
:1010F000809110023EC0CF3FFCE5DF0709F45FC0DE
:1011000058F4CD3F9CE5D90709F444C008F43FC02A
:101110008091100282602DC0C130FDE5DF0709F427
:1011200075C008F45DC0C230DD4509F072C080E0D2
:101130006EC080910F02816003C080910F028061B8
:1011400080930F0266C080910F0211C0809110023F
:101150008260809310025DC080910F028062F0CFA8
:1011600080910F028064ECCF80910F0288608460D0
:10117000E7CF8160EECF80910F028E7FE1CF80912B
:101180000F028D7FDDCF80910F02877FD9CF8091B5
:10119000100218C0809110028D7FDBCF80910F026A
:1011A0008F7ECECF80910F028F7DCACF80910F02AC
:1011B0008F7BC6CF80910F02877F8B7FC1CF8091BD
:1011C00010028D7F8E7FC5CF80910F0282FB222778
:1011D00020F991E0922790FB82F990FB83F9B0CF40
:1011E00080911002982F909591708E7F892B90FBA3
:1011F00081F9AFCF0E94E30E80910F0287FB222777
:1012000020F991E0922790FB87F99ACF81E00E9424
:10121000F41580910F02909110020E9476150E94A1
:10122000E30E80E001C081E0DF91CF9108959093BB
:101230004A01809349010895E0914901F0914A01E2
:10124000309721F00190F081E02D099480E008951D
:10125000E0914901F0914A01309799F020911201F3
:10126000222359F020910F0227FF07C0DC012C91A7
:1012700011962C93119725E02C930280F381E02D99
:1012800009940895E0914901F0914A01309739F0AD
:1012900022E0DC012C930480F581E02D099408956F
:1012A00020914701309148018217930771F0909384
:1012B000480180934701E0914901F0914A0130973C
:1012C00021F00680F781E02D0994089520914501D1
:1012D000309146018217930771F0909346018093F5
:1012E0004501E0914901F0914A01309721F00084D5
:1012F000F185E02D0994089585B7806885BF85B78D
:10130000806885BF0895089508950C948409089510
:101310000C9487090E947C090E9483090C9485091A
:1013200081E008950E9404170E940D060E94D917BB
:101330000C9488097F928F929F92AF92BF92CF9226
:10134000DF92EF92FF920F931F93CF93DF93CDB76E
:10135000DEB72A970FB6F894DEBF0FBECDBF0E944E
:101360006C060E949009811111C08FEF89838A83D6
:101370001B820E940D178160782F9D838C83498189
:101380005A816B818D810E944A0A4FC03CE4832EB2
:1013900031E0932E00E010E0702E802F0E940406B2
:1013A0006C01F401A190B1904F01A826B926A114B7
:1013B000B10431F40F5F1F4F0430110569F7D5CF29
:1013C0008091D80181FD0E94030690E0EE24E39411
:1013D000F12C97012A213B21232B09F19E837F8247
:1013E000CE20DF2091E0CD2809F490E098870E947C
:1013F0000D178160782F9A8789874E815F81688574
:101400008A850E944A0A000F111FF801E45BFE4F13
:1014100080819181E826F926F182E08206C09F5FF3
:10142000EE0CFF1C9C30A9F6C5CF0E948D1A1091BE
:101430004B010E941C091817C9F00E941C098093D7
:101440004B012A960FB6F894DEBF0FBECDBFDF91D9
:10145000CF911F910F91FF90EF90DF90CF90BF90B1
:10146000AF909F908F907F900C94D7022A960FB6E2
:10147000F894DEBF0FBECDBFDF91CF911F910F91CA
:10148000FF90EF90DF90CF90BF90AF909F908F90A4
:101490007F900895CF93DF93CDB7DEB72B970FB62C
:1014A000F894DEBF0FBECDBF4F83588769877A8718
:1014B0008B87DE01119686E0FD0111928A95E9F78E
:1014C00085E0FE01379601900D928A95E1F74981FA
:1014D0005A816B817C818D819E810E948D112B961A
:1014E0000FB6F894DEBF0FBECDBFDF91CF91089548
:1014F000FC01808191810E9459140895CF93DF935C
:101500001F92CDB7DEB7882309F42DC1682F82382A
:10151000C1F40E941C0981FD26C169E3809100018C
:10152000909101010E945E160E94E4142FEF81EE5B
:1015300094E0215080409040E1F700C0000069E352
:1015400019C0833811F50E941C0980FD0CC163E5A8
:1015500080910001909101010E945E160E94E414A6
:101560002FEF81EE94E0215080409040E1F700C0E1
:10157000000063E580910001909101010E946916CD
:101580000F90DF91CF910C94E4148438C1F40E9441
:101590001C0982FDE8C067E480910001909101017F
:1015A0000E945E160E94E4142FEF81EE94E0215019
:1015B00080409040E1F700C0000067E4DBCF8CEF93
:1015C000860F813A70F4862F69830E94961C698188
:1015D0008111C9C080910001909101010E945E16A5
:1015E000CFCF80E2860F883048F4677081E001C079
:1015F000880F6A95EAF70E949B14C2CF8BE5860F8D
:10160000833088F4653A29F0663A31F083E890E057
:1016100005C081E890E002C082E890E00F90DF9181
:10162000CF910C94500988E5860F873108F091C05E
:10163000683A09F445C0693A09F445C06A3A09F4C0
:1016400045C06B3A09F445C06C3A09F445C06B3BA0
:1016500009F445C06C3B09F445C06D3A09F445C036
:10166000603B09F445C06E3A09F445C06F3A09F48D
:1016700045C0613B09F445C0623B09F445C0633B8A
:1016800009F445C0643B09F445C0653B09F445C015
:10169000663B09F445C0673B09F445C0683B09F463
:1016A00045C0693B09F445C06D3B09F445C06E3B3C
:1016B00009F445C06A3B09F445C080E090E044C0AD
:1016C00082EE90E041C089EE90E03EC08AEE90E06C
:1016D0003BC085EB90E038C086EB90E035C083EBF3
:1016E00090E032C084EB90E02FC087EB90E02CC0FC
:1016F0008CEC90E029C08DEC90E026C083E891E06E
:1017000023C08AE891E020C082E991E01DC084E90D
:1017100091E01AC081E292E017C083E292E014C027
:1017200084E292E011C085E292E00EC086E292E08F
:101730000BC087E292E008C08FE690E005C080E72A
:1017400090E002C08AE292E00F90DF91CF910C947A
:101750006609603F40F0862F0E9495190F90DF9137
:10176000CF910C94821A0F90DF91CF910895882326
:1017700009F464C0823879F40E941C0981FF5EC0BC
:1017800069E380910001909101010E945E160E9420
:10179000E41469E310C08338B1F40E941C0980FF8F
:1017A0004DC063E580910001909101010E945E1699
:1017B0000E94E41463E580910001909101010E9470
:1017C00069160C94E414843879F40E941C0982FF91
:1017D00035C067E480910001909101010E945E167E
:1017E0000E94E41467E4E7CF9CEF980F913A10F45D
:1017F000682FE1CF90E2980F983050F4877091E015
:1018000001C0990F8A95EAF7892F0E94A114D9CFB8
:101810009BE5980F933020F480E090E00C94500901
:1018200098E5980F973120F480E090E00C946609D9
:10183000803F20F00E94FD190C94821A0895CF93E6
:10184000C82F0E947E0AC93349F42FEF87EE93E038
:10185000215080409040E1F700C000008C2FCF91D4
:101860000C94B70B882321F00E949B140C94E41471
:101870000895882321F00E94A1140C94E414089583
:10188000BF92CF92DF92EF92FF920F931F93CF936D
:10189000DF937C01062FC72FFC01158112951F7065
:1018A000D281D1110E94B8140E949114882379F03A
:1018B000DD2369F080E2800F883048F082E00E94EA
:1018C0002F150E94911491E0B82EB92601C0B12CB9
:1018D000CC2EC2948FE0C822D12CF601EA5AFF4FD9
:1018E0000C9460248C2F807FCF70882311F0C295D8
:1018F000C07FDD2399F0CC2309F4CEC180E2800FB4
:10190000883010F0011104C08C2F0E949B1403C07A
:101910008C2F0E94AB140E94E414BEC1802F0E9441
:10192000B70BCC2309F4DDC180E2800F883010F0C2
:10193000011104C08C2F0E94A11403C08C2F0E949F
:10194000B1140E94E414CDC18C2F807FCF708032FF
:1019500011F0C295C07F002319F00130C9F022C0F8
:10196000DD2371F0112341F0113031F40E94CB14CA
:101970008C2B0E94D114B5C10E94CB148C2B1DC09E
:10198000112319F0113009F4ACC10E94DA1425C0FA
:10199000DD2321F0163008F0A4C10EC0153008F088
:1019A000A0C11BC0DD2361F0112331F0F701858157
:1019B00080FF72C18F7085838C2F0E94320C91C181
:1019C000112359F0093309F078C1FFEF27EE83E0C6
:1019D000F15020408040E1F76EC18C2F0E94390CFD
:1019E00080C18C2F86958695837090E0009719F0C2
:1019F000019761F076C1DD2321F0802F9C2F937039
:101A000002C080E090E00E94500976C1DD2321F001
:101A1000802F9C2F937002C080E090E00E946609A6
:101A20006BC1DD23F9F0053F51F0063F71F0043F33
:101A3000A9F48091090290910A0281600BC0809103
:101A4000090290910A02826005C08091090290917A
:101A50000A02846090930A0280930902802F0E94F8
:101A600095191EC0053F51F0063F71F0043FA9F4DF
:101A70008091090290910A028E7F0BC08091090229
:101A800090910A028D7F05C08091090290910A020F
:101A90008B7F90930A0280930902802F0E94FD1988
:101AA0000E94821A29C18C2F837009F049C0D1117C
:101AB0001FC1402F429546954770440F440F602F39
:101AC0006F70862F90E0A0E0B0E0042E04C0880F75
:101AD000991FAA1FBB1F0A94D2F704FF10C00FE082
:101AE00010E020E030E004C0000F111F221F331F60
:101AF0004A95D2F7009510952095309503C000E0E7
:101B000010E09801C695C695C370D0E0BC01CD0128
:101B1000602B712B822B932BC230D10559F0C3302F
:101B2000D10559F0219719F00E94D212E1C00E940C
:101B3000C012DEC00E94E412DBC00E94BE12D8C0F8
:101B4000DD2319F08C2F817001C08695882309F45C
:101B5000CFC0402F429546954770440F440F602FE9
:101B60006F70862F90E0A0E0B0E0042E04C0880FD4
:101B7000991FAA1FBB1F0A94D2F704FF10C00FE0E1
:101B800010E020E030E004C0000F111F221F331FBF
:101B90004A95D2F7009510952095309503C000E046
:101BA00010E09801C695C695C370D0E0BC01CD0188
:101BB000602B712B822B932BC230D10559F0C3308F
:101BC000D10559F0219719F00E94981391C00E94F5
:101BD00086138EC00E94AA138BC00E94F91288C07F
:101BE000CF70DD2339F08C2F0E941F13802F0E94AD
:101BF000320C7EC0802F0E94390C8C2F0E94401323
:101C000077C0023F01F128F4003F41F0013FA1F00D
:101C10003FC0033FF9F0043F39F13AC0DD2341F002
:101C2000153008F05EC08C2F8F710E94651359C06B
:101C3000163008F056C0F7CFDD2339F08C2F8F71A6
:101C40000E941F134EC0DD23C9F38C2F8F710E9499
:101C5000401347C0DD2329F08C2F8F710E940A1397
:101C600040C00E9405133DC0DD2349F0CF718C2F89
:101C70000E941F1363E08C2F0E941A1532C081E06E
:101C80000E942F15123068F182E00E942F1529C0A2
:101C9000DD2331F0112391F2802F0E947E0A21C0B2
:101CA000112399F2093349F49FEFE7EEF3E09150E5
:101CB000E040F040E1F700C00000802F0E94B70B29
:101CC00010C04C2F4F70602FC7010E9453030E9419
:101CD000311212C04C2F4F70602FC7010E94560363
:101CE0000BC028E0C21AD10884E0C816D10420F441
:101CF0000E941C090E94D702BB20D1F00E948D14C3
:101D000080FD16C0F70112820E9487140E941F13E3
:101D1000C7010E94A20E0E948714DF91CF911F91EC
:101D20000F91FF90EF90DF90CF90BF900C944013F5
:101D3000DF91CF911F910F91FF90EF90DF90CF90A7
:101D4000BF9008950F931F93CF93DF93EC01888189
:101D500099812B813C81232BB9F09F3F11F48F3F58
:101D600099F0CE010E94F002882371F06881798198
:101D70008A810E9464148C010E94BC130E94BD12CF
:101D8000B801CE010E94400CDF91CF911F910F91BD
:101D900008950E94B8140E94C8140E94E4140E947E
:101DA000281B0E94821A80E090E00E94500980E087
:101DB00090E00C94660980910001909101010E94CD
:101DC00074160C94C90E0E94A8140C94DB0EE92F13
:101DD000E295EF70F0E03297EE30F105B0F4EA5999
:101DE000FF4F0C946024803F91F018F4883E68F413
:101DF0000EC0843F51F40BC0883E48F0813F29F467
:101E000006C093FB882780F9089580E0089581E05B
:101E100008950E9459140E94E70E0895CF93DF930E
:101E200000D000D01F92CDB7DEB70F900F900F906B
:101E30000F900F90DF91CF910895CF93DF9300D053
:101E400000D000D0CDB7DEB726960FB6F894DEBF2F
:101E50000FBECDBFDF91CF9108951F93CF93DF9336
:101E6000C091550116E080915601C81799F0D0E055
:101E70001C9FF0011D9FF00D1124E95AFE4F408177
:101E8000518162817381848195810E941D0F219609
:101E9000C770E9CFDF91CF911F91089540918701DD
:101EA000509188016091890170918A0180918B0124
:101EB00090918C010C941D0F80918C0182958F70F4
:101EC00009F054C080918901882309F44FC08091A2
:101ED0005501A09156016091870170918801409150
:101EE0008A0150918B01B6E08A1709F43FC090E057
:101EF00041155105C1F17F3F11F46F3FA1F1B89F2A
:101F0000F001B99FF00D1124E95AFE4F218172139F
:101F10002AC02081621327C02281211124C023817D
:101F200034812417350710F421503109241B350B57
:101F3000283C3105C0F420918C012F702061209342
:101F40008C0126E0289FF001299FF00D1124E45A0E
:101F5000FE4F80818F708061808387E891E00E94CE
:101F6000A20E0C942D0F01968770BECF0895CF92CC
:101F7000DF92EF92FF920F931F93CF93DF93CDB732
:101F8000DEB762970FB6F894DEBF0FBECDBF8C01EF
:101F900085E0F801DE011D9601900D928A95E1F72A
:101FA000D8014C9111965C91119712966C911297F1
:101FB0001396CD90DC901497309187017091880131
:101FC00080918A0190918B01009709F46BC17F3F4A
:101FD00019F43F3F09F466C1E0908901EE2009F44D
:101FE000C0C020918C01C816D90628F0F601E81B64
:101FF000F90BCF0104C0809590958C0D9D1DFF2499
:10200000F394883C910578F0F12C207F09F0C6C04C
:102010007C2DD98AC88A89890E940E0F87E891E0B1
:102020000E94A20EB1C0822F807F09F046C07513B6
:1020300014C0341312C0611110C02F70206120939E
:102040008C010E944E0F87E891E00E94A20E8091C1
:102050008C01D80115968C932EC0CD2819F15F3FC5
:1020600011F44F3FF9F0F62E61111CC0809155011B
:102070002091560136E0821709F45AC090E0389F4B
:10208000F001399FF00D1124E95AFE4F7181571369
:1020900006C07081471303C07281711103C001969D
:1020A0008770E9CFF62E662309F427C180918C0151
:1020B000816080938C01F12C20C1751308C034130A
:1020C00006C0611104C080918C01D801C3C04D8746
:1020D0005E878D859E856A8B0E94090F6A89882399
:1020E000E1F16623D1F120918C01822F82958F70CE
:1020F00090E0029774F08091870190918801988711
:102100008F831986DB86CA862C87CE0107960E94AC
:10211000A20E86E0F801A7E8B1E001900D928A9541
:10212000E1F70E945C0F0E944E0FFF24F394E5C07C
:102130004D875E878D859E850E945914292F229593
:102140002F7030E0223031050CF0CBC09F7009F0C9
:10215000C5C0805E883008F4D0C0C8010E94A20EBD
:10216000E4CFC816D90608F453C0F601E81BF90BF2
:10217000CF01883C910508F450C0F12C7C2DD98A00
:10218000C88A89890E940E0FE7E8F1E086E0DF0146
:102190001D928A95E9F70E944E0FAFC0751314C0C7
:1021A000341312C0611110C080918C01F801858335
:1021B000C8010E94A20E86E0E7E8F1E0DF011D926F
:1021C0008A95E9F7FE2C99C04D875E878D859E859F
:1021D0006A8B0E94090F6A89882309F4BECF66239F
:1021E00009F4BBCF20918C01822F82958F7090E0F3
:1021F00002970CF48ECF80918701909188019A8389
:1022000089831B82DD82CC822E83CE0101967FCF13
:10221000809590958C0D9D1DACCFF62E662309F40C
:102220009CCF75132EC034132CC020918C0120FD3F
:102230001FC0822F82958F70D9F0D80115962C93EC
:1022400015978F3049F08F5F982F9295907F822F4E
:102250008F70892B15968C93C8010E94A20E86E080
:10226000F801A7E8B1E001900D928A95E1F793CFCC
:1022700086E0F801A7E8B1E001900D928A95E1F7B8
:102280003CC04D875E878D859E850E94090F811118
:1022900040CF80918C01816080938C01C8010E94A5
:1022A000A20E2BC0662309F458CF4D875E878D851B
:1022B0009E850E94090FF82E882309F44ECF86E0F0
:1022C000F801A7E8B1E001900D928A95E1F787E85F
:1022D00091E00E94780A0E945C0F5DCF811139CF96
:1022E0000CC0243031050CF038CF9F7009F431CF89
:1022F000F8019581907F09F02CCF8F2D62960FB653
:10230000F894DEBF0FBECDBFDF91CF911F910F912B
:10231000FF90EF90DF90CF9008951F93CF93DF93BE
:10232000CDB7DEB72C970FB6F894DEBF0FBECDBF8A
:102330004F83588769877A878B879C87CE0107965A
:102340000E94B70F882369F08F8198852A853B8585
:10235000232BF1F19F3F09F063C08F3F09F060C06C
:1023600037C086E0FE013796DE01119601900D928E
:102370008A95E1F76F817885EA85FB85309741F191
:102380007F3F11F46F3F21F12091560130E0C901E8
:102390000196877099274091550150E08417950761
:1023A00009F447C069837A83FD83EC8396E0929FAA
:1023B000D001939FB00D1124A95ABE4FFE01319652
:1023C00001900D929A95E1F7809356010E942D0F8E
:1023D00016E080915501909156018917C1F1189F1F
:1023E000C0011124895A9E4F0E94B70F882379F1AA
:1023F000E09155011E9FF0011124E95AFE4F4081E2
:10240000518162817381848195810E941D0F809129
:10241000550190E001968770992780935501D9CF97
:102420004F81588569857A858B859C850E941D0F13
:10243000CFCF0E94E30E1092560110925501E7E8AB
:10244000F1E086E0DF011D928A95E9F7C1CF2C9675
:102450000FB6F894DEBF0FBECDBFDF91CF911F91B5
:102460000895EF92FF920F931F93CF93DF938C0108
:10247000892B09F46CC0F12CEE24E394E801219639
:10248000F8018491843740F4843008F051C08130E1
:1024900081F0823019F15BC0853709F444C0A8F19E
:1024A0009CE7980F903708F052C08F770E94B70BC7
:1024B00041C00E5F1F4FFE01C49180E28C0F883037
:1024C00048F4C7708E2D01C0880FCA95EAF70E94A4
:1024D000BB1414C08C2F0E947E0A2DC00E5F1F4FAC
:1024E000FE01C49180E28C0F883058F4C7708E2DA5
:1024F00001C0880FCA95EAF70E94C1140E94E41433
:102500001AC08C2F0E94B70B16C00E5F1F4FFE0122
:10251000C491CC2381F08FE99FE00197F1F700C0CF
:102520000000C150F6CF0E5F1F4FFE01F49003C0B4
:102530000E947E0A8E018F2D882309F49FCFEFE938
:10254000FFE03197F1F700C000008150F5CFDF9137
:10255000CF911F910F91FF90EF90089508950C94E3
:10256000AE120E94AF126093AF017093B0018093DE
:10257000B1019093B2010C94C90E08950C94B1125C
:102580000F931F930091AF011091B0012091B10101
:102590003091B201602B712B822B932B1F910F91E5
:1025A0000C94B1120F931F930091AF011091B001E1
:1025B0002091B1013091B2016023712382239323D2
:1025C0001F910F910C94B1120F931F930091AF01C3
:1025D0001091B0012091B1013091B20160277127B3
:1025E000822793271F910F910C94B11208950C9498
:1025F000F6120E94F7126093AB017093AC018093C6
:10260000AD019093AE010C94C90E60E070E0CB0177
:102610000C94F9120F931F9341E050E060E070E0DA
:102620008A019B0104C0000F111F221F331F8A95CE
:10263000D2F7C901B8011F910F910C94F9120F93B1
:102640001F9341E050E060E070E004C0440F551F6C
:10265000661F771F8A95D2F78091AB019091AC01EC
:10266000A091AD01B091AE018A019B01082B192BFD
:102670002A2B3B2BC901B8011F910F910C94F91221
:102680000F931F9341E050E060E070E004C0440FFE
:10269000551F661F771F8A95D2F740955095609514
:1026A00070958091AB019091AC01A091AD01B0917A
:1026B000AE018A019B01082319232A233B23C90168
:1026C000B8011F910F910C94F9120F931F9341E0E1
:1026D00050E060E070E004C0440F551F661F771F94
:1026E0008A95D2F78091AB019091AC01A091AD0198
:1026F000B091AE018A019B01082719272A273B27A1
:10270000C901B8011F910F910C94F9120F931F93F7
:102710000091AB011091AC012091AD013091AE015F
:10272000602B712B822B932B1F910F910C94F9121C
:102730000F931F930091AB011091AC012091AD015B
:102740003091AE0160237123822393231F910F9157
:102750000C94F9120F931F930091AB011091AC01EF
:102760002091AD013091AE01602771278227932718
:102770001F910F910C94F91208952CE0929F800DF7
:102780001124A82FA695A695A695877051E001C0A3
:10279000550F8A95EAF785E0A89FD001112420E023
:1027A00030E070E0F901EA0FFB1FE357FE4F408174
:1027B000CB01022E02C0969587950A94E2F78170AC
:1027C0009927819584278523842780832F5F3F4F16
:1027D0002530310539F708952CE0929F800D1124A2
:1027E000682F669566956695982F977085E0689F27
:1027F000B001112440E050E080E0FA01E60FF71F3D
:10280000E357FE4F208130E0092E02C03695279510
:102810000A94E2F721703327042E01C0220F0A9494
:10282000EAF7822B4F5F5F4F4530510531F708952E
:10283000BF92CF92DF92EF92FF920F931F93CF93AD
:10284000DF938C01C090AF01D090B001E090B10156
:10285000F090B2018091AB019091AC01A091AD01DB
:10286000B091AE01C82AD92AEA2AFB2ACFE1D0E0EA
:10287000D701C6010C2E04C0B695A79597958795EC
:102880000A94D2F780FF07C0BC2EB8018C2F0E949B
:102890007103019719F4219758F7B12C8B2DDF9113
:1028A000CF911F910F91FF90EF90DF90CF90BF904D
:1028B0000895CF93DF93EC010E941814BE010E948B
:1028C0007103DF91CF9108951F93CF93DF93EB01B5
:1028D00090915401992321F0CB010E94591413C007
:1028E000882349F0CB010E941814182F682FCE01BD
:1028F0000E94BD1304C0CB010E94EC13182FBE012F
:10290000812F0E947103DF91CF911F9108958091D3
:10291000B30185958595859508958091B30187705C
:1029200008959091B301977081E009F480E00895D3
:102930008091D70108959091D701892B8093D70179
:10294000089580959091D70189238093D7010895A8
:102950001092D70108959091D601892B8093D601CA
:10296000089580959091D60189238093D60108958A
:102970001092D60108959091D501892B8093D501AD
:10298000089580959091D50189238093D50108956C
:102990001092D50108958091B401089508950C9482
:1029A000CE149091B401981721F08093B4010C9447
:1029B000CF1408958091B401882329F01092B401B6
:1029C00080E00C94CF140895E0910001F091010192
:1029D0008091D7018083E0910001F0910101908105
:1029E0008091D601892B8083E0910001F091010153
:1029F00090818091D501892B80838091B4018823B7
:102A000081F0E0910001F09101019081892B808398
:102A100080910001909101010E94F91581110E949D
:102A2000DA1480910001909101010C942809089515
:102A30000C94171598E0899F90011124262B209360
:102A4000B3010E941F138091B301859585958595EB
:102A50000C9418151092B30180E00C941815209175
:102A6000B301809582238093B301982F977079F4F6
:102A700030E0482F082E000C550B2417350739F08D
:102A80008595859585950E9440130C942A15089587
:102A900080E090E00E94822421E08C3E9E4F09F06D
:102AA00020E0822F089582E090E00C947A24682F31
:102AB00082E090E00C94882483E090E00C947A24E7
:102AC000682F83E090E00C948824CF9384E090E01A
:102AD0000E947A24C82F81E290E00E947A242C2F51
:102AE00030E0A901582BCA01CF910895CF93C92F87
:102AF000682F84E090E00E9488246C2F81E290E0AF
:102B0000CF910C948824AB01BC018FE090E00C9431
:102B10009A24AB01BC0183E190E00C949A2460E01C
:102B200070E0CB010C94891560E070E0CB010E944D
:102B300083150C948F156CEE7EEF80E090E00E9480
:102B4000A62460E082E090E00E94882460E083E0B8
:102B500090E00E9488241092AF011092B001109270
:102B6000B1011092B20160E084E090E00E948824FC
:102B700060E081E290E00E94882460E085E090E0DF
:102B80000E94882460E086E090E00E9488246FEF35
:102B900087E090E00E94882440E050E0BA0188E09D
:102BA00090E00E949A2460E08DE090E00E948824EA
:102BB00040E050E0BA0188E190E00E949A2460E091
:102BC00087E190E00E94882440E050E0BA018CE167
:102BD00090E00E949A2460E080E290E00E948824C5
:102BE0000C9494150C949B15682F8EE090E00C9437
:102BF0008824FC01329680911201882331F0809163
:102C00000F0287FF02C09EE101C096E080E0915074
:102C100028F021912223D9F38F5FF9CF08959C01E9
:102C2000FC0132969FEF80E04191461789F09F3F6B
:102C300019F4411101C0982F8F5F8630A9F79F3F8B
:102C400039F0F901E90FF11D97FDFA9562830895B6
:102C50000895FC01329608962081261301C0108247
:102C60003196E817F907C1F70895262F269526957E
:102C700026952E3168F4FC01E20FF11D677021E00A
:102C800030E001C0220F6A95EAF78281282B228367
:102C90000895262F2695269526952E3170F4FC0151
:102CA000E20FF11D677021E030E001C0220F6A954C
:102CB000EAF720958281282322830895209112012A
:102CC000222329F020910F0227FD0C9435160C9435
:102CD0000F1620911201222329F020910F0227FDC7
:102CE0000C9449160C94291620911201FC0132967D
:102CF000222331F080910F0287FF02C08EE101C0D4
:102D000086E0DF011D928A95E9F7089508950C94F5
:102D100086160E94871680911502843049F1109220
:102D2000D90120E488E190E00FB6F894A89580934B
:102D300060000FBE2093600080E00E94D7020E94D6
:102D4000871683B7817F846083BF83B7816083BF29
:102D50007894889583B78E7F83BF0FB6F894A89533
:102D600080916000886180936000109260000FBEC7
:102D7000089508950895CF930E94B9160E946C0695
:102D80000E94BA16C0E08C2F0E940406892B29F4F9
:102D9000CF5FC430C1F780E001C081E0CF910895DA
:102DA00008950C94D0160E94E30E0E941C090E9404
:102DB000D7020C94D1161F920F920FB60F921124C6
:102DC0008F939F93AF93BF938091D901811113C0CB
:102DD00080910B0290910C02A0910D02B0910E0215
:102DE0004196A11DB11D80930B0290930C02A093FC
:102DF0000D02B0930E02BF91AF919F918F910F90F2
:102E00000FBE0F901F90189582E084BD93E095BD92
:102E10009AEF97BD80936E0008952FB7F894809134
:102E20000B0290910C02A0910D02B0910E022FBFE7
:102E30000895CF92DF92EF92FF920F931F932FB7D7
:102E4000F89440910B0250910C0260910D02709128
:102E50000E022FBF6A017B01EE24FF248C0120E0CB
:102E600030E0C016D106E206F30610F441505109D5
:102E70009A01281B390BC9011F910F91FF90EF9008
:102E8000DF90CF90089578941F920F920FB60F9213
:102E900011248F939F93AF93BF9380910B029091D6
:102EA0000C02A0910D02B0910E020196A11DB11D60
:102EB00080930B0290930C02A0930D02B0930E022C
:102EC000BF91AF919F918F910F900FBE0F901F9068
:102ED000189581E08093E00080E28093D800109202
:102EE000C9008FE19EE40197F1F700C0000087E080
:102EF00090EBDC0180931E0290931F02A0932002AE
:102F0000B09321029CE088E10FB6F894A8958093D5
:102F100060000FBE90936000FFCFAF92BF92CF9240
:102F2000DF92EF92FF920F931F93CF93C0E0CC24D8
:102F3000C394D12CE82EF12C8C2F0E9404065C0146
:102F400000E010E09601002E02C0220F331F0A9409
:102F5000E2F72A213B21232B31F40F5F1F4F0C3066
:102F6000110581F70AC0602F7C2F80E00E94570373
:102F7000E816F90691F781E004C0CF5FC430E1F6AE
:102F800080E0CF911F910F91FF90EF90DF90CF9055
:102F9000BF90AF900895CF93C82F8CE20E948D17F9
:102FA000882321F08C2FCF910C948D1780E0CF9146
:102FB0000895CF930E944815811102C00E94F21516
:102FC000C5E6C15049F00E946C068FE39CE9019769
:102FD000F1F700C00000F5CF89E20E94CB17811104
:102FE00020C18AE20E94CB1781110E94F21585E070
:102FF0000E94CB1781110E9469170E94531580937C
:10300000D80187E00E94CB178823A9F18BE10E94A9
:10301000CB17882351F08091D80181FB222720F91A
:1030200091E0922790FB81F90EC08EE00E94CB17B1
:10303000882361F08091D80182FB222720F991E05A
:10304000922790FB82F98093D80115C080E10E94FD
:10305000CB179091D801882341F093FB222720F9C8
:1030600081E0822780FB93F904C0892F809580FB43
:1030700090F99093D8018091D8010E9457150E9431
:1030800065159093100280930F0280EE0E94CB177B
:10309000882341F080910F02982F909590FB80F942
:1030A00080930F0289E30E94CB17882359F0809107
:1030B0000F0281FB222720F991E0922790FB81F9F2
:1030C00080930F0282EE0E94CB17882359F08091E3
:1030D0000F0282FB222720F991E0922790FB82F9D0
:1030E00080930F0286EE0E94CB17882359F08091BF
:1030F0000F0283FB222720F991E0922790FB83F9AE
:1031000080930F0283EE0E94CB17882359F08091A1
:103110000F0284FB222720F991E0922790FB84F98B
:1031200080930F0285E30E94CB17882359F080918A
:103130000F0285FB222720F991E0922790FB85F969
:1031400080930F0281E30E94CB17882359F080916E
:103150000F0286FB222720F991E0922790FB86F947
:1031600080930F0281E10E94CB17882359F0809150
:103170000F0287FB222720F991E0922790FB87F925
:1031800080930F0280910F02909110020E94761599
:1031900087E20E94CB17C82F8EE10E94CB178111C6
:1031A000C2608FE10E94CB178111C46080E20E944F
:1031B000CB178111C86081E20E94CB178111C061D9
:1031C00082E20E94CB178111C06283E20E94CB177A
:1031D0008111C06484E20E94CB17882311F0C0687B
:1031E00002C0CC2329F08C2F0E9460156C2F03C0E5
:1031F0000E945C15682F70E080E090E00E94BE1293
:103200008FE00E94CB17882319F081E00E94F4150B
:1032100085E10E94CB17882321F080E0CF910C94A8
:10322000F415CF9108958091DD0180FF0BC060916E
:10323000050185E0689FB001112475956795759526
:1032400067952BC081FF09C06091050185E0689FEB
:10325000B00111247595679520C082FF07C0609169
:10326000050185E0689FB001112417C09091DC0131
:103270009923D1F060910401961788F720910501F8
:1032800085E0289F90011124929FA001939F500DEB
:10329000112470E0CA010E944C246038710540F48A
:1032A0006115710539F002C065E070E0862F089560
:1032B0008FE7089581E008958091DD0180FF08C0C7
:1032C0006091030170E0759567957595679521C0CC
:1032D00081FF06C06091030170E07595679519C084
:1032E00082FF04C06091030170E010C09091DC0186
:1032F0009923C1F0609102019617A0F78091030114
:10330000899FC001112470E00E944C24603871052F
:1033100028F46115710521F0862F08958FE708952F
:1033200081E0089561E070E0F4CF803F21F40E94D5
:103330001319819504C0813F29F40E9413198093C9
:10334000E1010895823F21F40E941319819504C080
:10335000833F29F40E9413198093E0010895893F67
:1033600019F40E945C1905C08A3F31F40E945C196F
:1033700081958093E20108958B3F21F40E945C19AE
:10338000819504C08C3F29F40E945C198093E3016D
:103390000895843F21F48091DF01816017C0853F4B
:1033A00021F48091DF01826011C0863F21F4809179
:1033B000DF0184600BC0873F21F48091DF018860CA
:1033C00005C0883F31F48091DF0180618093DF0187
:1033D00008958D3F21F48091DD0181600BC08E3F07
:1033E00021F48091DD01826005C08F3F29F4809136
:1033F000DD0184608093DD010895803F39F4809180
:10340000E10187FF6CC01092E10169C0813F29F49E
:103410008091E1011816BCF362C09091E001823FF7
:1034200029F497FF5CC01092E00159C0833F19F462
:103430001916CCF354C0893F41F48091E20118166B
:103440000CF04DC01092E2014AC08A3F29F48091ED
:10345000E20187FF44C0F6CF8B3F39F48091E3014E
:1034600087FF3DC01092E3013AC08C3F29F4809160
:10347000E3011816BCF333C0843F21F48091DF01CF
:103480008E7F17C0853F21F48091DF018D7F11C0B1
:10349000863F21F48091DF018B7F0BC0873F21F4B1
:1034A0008091DF01877F05C0883F31F48091DF0183
:1034B0008F7E8093DF0113C08D3F21F48091DD0169
:1034C0008E7F0BC08E3F21F48091DD018D7F05C082
:1034D0008F3F29F48091DD018B7F8093DD01809106
:1034E000E00181110EC08091E10181110AC080913B
:1034F000E201811106C08091E301811102C01092A6
:10350000DC0108958EED91E00E9442090E940D17A2
:103510009093DB018093DA0108951F93CF93DF939B
:103520008091DA019091DB010E941917AC01909112
:10353000DC01992321F02091060130E006C02091A2
:1035400007018AE0289F900111244217530708F4CD
:103550007BC08091E001C091E101D091E201109126
:10356000E301811107C0C1116BC0D11169C01111F4
:1035700067C06AC09F3F19F09F5F9093DC011816E7
:1035800024F40E9413198093E0018091E00187FFE9
:1035900005C00E94131981958093E0011C1624F444
:1035A0000E9413198093E1018091E10187FF05C01A
:1035B0000E94131981958093E1013091E00133233A
:1035C000E1F02091E1012223C1F045EB3403C00179
:1035D0001124892F990F990B009709F481E08093AA
:1035E000E00135EB2303C0011124892F990F990BBA
:1035F000009709F481E08093E1011D1624F40E94F4
:103600005C198093E2018091E20187FF05C00E946E
:103610005C1981958093E201111624F40E945C19D3
:103620008093E3018091E30187FF05C00E945C194C
:1036300081958093E301DF91CF911F910C94821AC1
:103640009F3F09F099CFA1CFDF91CF911F910895AE
:10365000EEEDF1E086E0DF011D928A95E9F7109228
:10366000DC011092DD010895833081F128F481306E
:1036700059F08230D1F00895853009F449C0B8F18D
:10368000863009F456C0089580910701262F30E056
:10369000280F311D2F3F310524F4680F6093070177
:1036A00008958FEF80930701089580910601262FDA
:1036B00030E0280F311D2F3F310524F4680F60934F
:1036C000060108958FEF809306010895809105010A
:1036D000262F30E0280F311D2F3F310524F4680FCD
:1036E0006093050108958FEF8093050108958091FF
:1036F0000401262F30E0280F311D2F3F310524F41F
:10370000680F6093040108958FEF8093040108957A
:1037100080910301262F30E0280F311D2F3F310506
:1037200024F4680F6093030108958FEF80930301E1
:10373000089580910201262F30E0280F311D2F3F80
:10374000310524F4680F6093020108958FEF809390
:1037500002010895833011F128F4813049F082305C
:1037600091F00895853081F120F18630C1F10895FE
:1037700080910701681720F4861B80930701089544
:1037800010920701089580910601681720F4861BA6
:103790008093060108951092060108958091050115
:1037A000681720F4861B8093050108951092050187
:1037B000089580910401681720F4861B809304010A
:1037C000089510920401089580910301681720F470
:1037D000861B809303010895109203010895809140
:1037E0000201681720F4861B80930201089510924D
:1037F000020108950F931F93482F50E0FA01359767
:10380000EF33F10508F07FC0EC58FF4F0C946024B3
:103810000E94F21571C08091D801817F8E7F8093C4
:10382000D80181E08093E5016FC00E94E30E0FEFA5
:1038300013ED20E3015010402040E1F700C00000EC
:103840000E94691759C08091D801982F9095917066
:1038500090FB80F98093D80191114EC0897F877FBA
:1038600010C08091D80181FB222720F991E0922796
:1038700090FB81F98093D8019923F1F18091D801CF
:1038800081608093D80138C08091D80182FB2227C3
:1038900020F991E0922790FB82F9ECCF8091D8013A
:1038A00083FB222720F991E0922790FB83F9E2CF56
:1038B0000E94E30E80910F0287FB222720F991E0FE
:1038C000922790FB87F980930F0216C0895301C09D
:1038D0008D5141E050E060E070E08A019B0104C03E
:1038E000000F111F221F331F8A95D2F7C901B8019B
:1038F0000E94BE120E94E30E81E006C061E070E00B
:1039000080E090E0F5CF80E01F910F91089580E076
:10391000089580E008958E518A3030F4E82FF0E069
:10392000ED5DFE4F8081089580E00895CF93C82F0C
:103930008091E501813051F018F0823099F17DC01D
:103940000E949814823209F07AC004C00E94981430
:10395000823261F48C2F0E94871C811104C08C2F4D
:103960000E94FA1B1DC081E090E01AC08C2F0E94BB
:10397000891C811114C0C43179F048F4CB3079F03E
:10398000C03109F060C082E08093E50108C0C9320F
:1039900019F0C83321F057C01092E50154C081E0FE
:1039A000817053C0C93289F118F5C43171F1B0F496
:1039B000C73009F046C08EE18093070182E380930F
:1039C00006018AE08093050184E18093040188E088
:1039D0008093030188E28093020133C082EE8C0F52
:1039E000863078F58C2F0E948B1C8093E40129C0CF
:1039F000CE34E9F020F4CB3421F56AE013C0C135B0
:103A000079F0C235F1F461E00DC08091E4018823C2
:103A100019F01092E40115C081E08093E50115C012
:103A200061E006C08091E4010E94341B0AC06AE094
:103A30008091E4010E94AA1B04C01092E50180E07D
:103A400004C081E002C080E0ABCFCF9108958091A7
:103A5000060208950F931F93CF93DF9300D01F9218
:103A6000CDB7DEB78C010E94931F823011F08430F5
:103A700021F584E089831B830A8382E08093E90037
:103A80008FEF9091E800815095FD06C095ED9A95D5
:103A9000F1F700008111F5CF8091E80085FF0DC09E
:103AA00040E050E063E070E0CE0101960E94B01F5C
:103AB0008091E8008E778093E8000F900F900F9030
:103AC000DF91CF911F910F910895CF93DF9300D095
:103AD0001F92CDB7DEB720911502243031F523E0D7
:103AE0002983805891099B838A8382E08093E9002F
:103AF0008FEF9091E800815095FD06C095ED9A9565
:103B0000F1F700008111F5CF8091E80085FF0DC02D
:103B100040E050E063E070E0CE0101960E94B01FEB
:103B20008091E8008E778093E8000F900F900F90BF
:103B3000DF91CF910895CF93DF93EC010E94931F03
:103B4000823011F08430F9F482E08093E9009FEF35
:103B50008091E800915085FD06C085ED8A95F1F7CA
:103B600000009111F5CF8091E80085FF0CC040E086
:103B700050E066E070E0CE010E94B01F8091E80046
:103B80008E778093E800DF91CF910895CF93DF93F4
:103B9000EC010E94931F823011F08430D9F580919E
:103BA0001201882339F080910F0287FF03C060E281
:103BB00082E002C068E081E08093E9008FEF90919D
:103BC000E800815095FD06C095ED9A95F1F700004B
:103BD0008111F5CF8091E80085FF1CC08091120112
:103BE000811105C040E050E068E070E003C070E083
:103BF00040E050E0CE010E94B01F8091E8008E7737
:103C00008093E80080E2FE01A6EEB1E001900D9203
:103C10008A95E1F7DF91CF91089580911402811187
:103C200009C00E9445210E94A2218091E200846087
:103C30008093E20008951092140208950895089563
:103C40000C94D31642E061EC81E00E94BF2042E276
:103C500061EC82E00C94BF2080911702833009F45C
:103C600060C030F4813071F0823009F499C0089559
:103C70008A3009F485C08B3009F46BC0893009F0B3
:103C8000A7C020C080911602813A09F0A1C080919E
:103C9000E800877F8093E80080911A0290911B02D0
:103CA000892B21F460E286EE91E003C060E080E0C1
:103CB00090E070E00E94FB1F8091E8008B7780937A
:103CC000E800089580911602813209F081C0809148
:103CD0001A0290911B02029708F07AC08091E800C6
:103CE000877F8093E8008091E80082FD05C0809185
:103CF00015028111F8CF6CC02091F3008091F20081
:103D000090E0922B029729F48091F1008B7F813013
:103D100021F48091F100809306028091E8008B7776
:103D200053C080911602813A09F052C080911A0264
:103D300090911B02892B09F04BC08091E800877F8E
:103D40008093E8008091E80080FFFCCF8091120111
:103D500036C0809116028132D9F580911A02909175
:103D60001B02892BA9F58091E800877F8093E800EA
:103D70000E94F42080911802809312010C94E30EAB
:103D800080911602813221F58091E800877F80932F
:103D9000E8000E94F42080911902809307020895A0
:103DA00080911602813AA1F48091E800877F809388
:103DB000E8008091E80080FFFCCF809107028093AB
:103DC000F1008091E8008E778093E8000C94F42055
:103DD000089584B7877F84BF0FB6F894A895809123
:103DE0006000886180936000109260000FBE90E0D8
:103DF00080E80FB6F89480936100909361000FBE45
:103E00000E948A090E9445210E94A2218091E2001D
:103E100084608093E20078940E9431240E94920989
:103E200088E091E00E94170980911502853069F4BD
:103E30000E948916809113028823B1F30E94BB1659
:103E4000882391F30E949A1FEFCF0E949A09ECCF2A
:103E50000C942A1F292F332723303105C9F064F42D
:103E60002130310581F02230310509F04CC08BE35F
:103E700090E020E333E04BC02132310521F12232C2
:103E8000310589F140C082E190E02BE633E03FC08C
:103E900099278130910571F02CF4892BA1F5ECE282
:103EA000F3E00DC08230910541F0039761F5EAEF30
:103EB000F2E005C0E2E1F3E002C0E0E0F3E084916B
:103EC00090E09F0124C06115710541F061307105DA
:103ED000D1F489E090E02BE533E019C089E090E06F
:103EE00022E433E014C06115710541F061307105C1
:103EF00051F480EC90E02DE733E009C080E490E0DD
:103F00002DE334E004C080E090E020E030E0FA01EE
:103F100031832083089580911502843011F081E06F
:103F2000089582E0089580910802811102C00C94E6
:103F30008B1F089580E189BD82E189BD09B400FE2F
:103F4000FDCF8091D8008F7D8093D8008091E000D4
:103F500082608093E0008091E00081FDFCCF0895B5
:103F6000CF92DF92EF92FF920F931F93CF93DF9345
:103F7000EC018B016A010E941321811133C0C1142D
:103F8000D10439F0F60180819181081B190BC80F0B
:103F9000D91FE12CF12C0115110519F18091E800D0
:103FA00085FD16C08091E8008E778093E800C114EB
:103FB000D10449F0F60180819181E80EF91EF18269
:103FC000E08285E00FC00E941321882321F30AC0FC
:103FD00089918093F10001501109FFEFEF1AFF0A58
:103FE000DACF80E0DF91CF911F910F91FF90EF909A
:103FF000DF90CF90089520911C0230911D0226176A
:10400000370748F06115710539F42091E8002E77E3
:104010002093E80001C0B90140E061157105A9F1E4
:1040200020911502222309F443C0253009F442C02F
:104030002091E80023FD40C02091E80022FD32C01D
:104040002091E80020FFE9CF4091F3002091F20099
:1040500030E0342BFC01CF016115710559F0283097
:10406000310540F481918093F100615071092F5F17
:104070003F4FF1CF41E02830310509F040E0209179
:10408000E8002E772093E800C8CF4111C9CF0AC0BD
:1040900080911502882361F0853061F08091E800FD
:1040A00083FD0AC08091E80082FFF2CF80E008958E
:1040B00082E0089583E0089581E0089520911C0234
:1040C00030911D022617370748F06115710539F444
:1040D0002091E8002E772093E80001C0B901FC018F
:1040E00020E06115710591F180911502882309F492
:1040F00040C0853009F43FC08091E80083FD3DC099
:104100008091E80082FD2FC08091E80080FFE9CF18
:104110002091F3008091F20090E0922B61157105DF
:1041200059F08830910540F424912093F1003196A4
:10413000615071090196F2CF21E0089709F020E063
:104140008091E8008E778093E800CBCF2111CCCF0F
:104150000AC080911502882361F0853061F080915A
:10416000E80083FD0AC08091E80082FFF2CF80E082
:10417000089582E0089583E0089581E00895982FDE
:10418000973058F59093E900981739F07091EC004A
:104190002091ED005091F00003C0242F762F50E0C5
:1041A00021FF19C03091EB003E7F3093EB0030913E
:1041B000ED003D7F3093ED003091EB0031603093A6
:1041C000EB007093EC002093ED005093F0002091F1
:1041D000EE0027FF07C09F5FD3CF8F708093E90069
:1041E00081E0089580E008958091160287FF11C054
:1041F0008091E80082FD05C0809115028111F8CF01
:1042000011C08091E8008B770BC080911502882344
:1042100049F08091E80080FFF8CF8091E8008E7728
:104220008093E80008952091E4003091E50095E640
:104230004091EC00842F817040FF22C08091E80003
:1042400080FD1CC080911502882391F0853091F08B
:104250008091EB0085FD10C04091E4005091E50095
:104260004217530729F39A01915011F784E00895FA
:1042700082E0089583E0089581E0089580E0089544
:104280004091E80042FFDECF08950E94B3210E94D2
:10429000BB21E0EEF0E0808181608083E8EDF0E01A
:1042A00080818F77808319BCA7EDB0E08C918E7FE1
:1042B0008C9380818F7E80831092140208950F93D7
:1042C0001F93CF93DF930E94B3210E94BB21C8EDBF
:1042D000D0E088818F77888388818068888388810F
:1042E0008F7D888319BC10921502109211021092D2
:1042F00013021092120200EE10E0F80180818B7F11
:10430000808388818160888342E060E080E00E9451
:10431000BF20E1EEF0E080818E7F8083E2EEF0E06E
:10432000808181608083808188608083F8018081C2
:104330008E7F8083888180618883DF91CF911F91F8
:104340000F910895E8EDF0E080818F7E8083E7EDA6
:10435000F0E080818160808384E082BF81E080938F
:1043600014020C945F21E8EDF0E080818E7F808361
:104370001092E20008951092DA001092E100089580
:104380001F920F920FB60F9211242F933F934F93CA
:104390005F936F937F938F939F93AF93BF93EF93AD
:1043A000FF938091E10082FF0BC08091E20082FFC9
:1043B00007C08091E1008B7F8093E1000E94302450
:1043C0008091DA0080FF1FC08091D80080FF1BC061
:1043D0008091DA008E7F8093DA008091D90080FF8F
:1043E0000DC080E189BD82E189BD09B400FEFDCF29
:1043F00081E0809315020E940D1E05C019BC109229
:1044000015020E941B1E8091E10080FF19C080915F
:10441000E20080FF15C08091E2008E7F8093E20071
:104420008091E20080618093E2008091D8008062F8
:104430008093D80019BC85E0809315020E941F1E4E
:104440008091E10084FF30C08091E20084FF2CC0A5
:1044500080E189BD82E189BD09B400FEFDCF809174
:10446000D8008F7D8093D8008091E1008F7E80936B
:10447000E1008091E2008F7E8093E2008091E20073
:1044800081608093E20080911102882311F084E022
:1044900007C08091E30087FD02C081E001C083E096
:1044A000809315020E94201E8091E10083FF29C0A5
:1044B0008091E20083FF25C08091E100877F809397
:1044C000E10082E080931502109211028091E100D8
:1044D0008E7F8093E1008091E2008E7F8093E200E6
:1044E0008091E20080618093E20042E060E080E041
:1044F0000E94BF208091F00088608093F0000E94AD
:104500001E1EFF91EF91BF91AF919F918F917F916F
:104510006F915F914F913F912F910F900FBE0F9030
:104520001F9018951F920F920FB60F9211242F9380
:104530003F934F935F936F937F938F939F93AF932B
:10454000BF93CF93DF93EF93FF93C091E900CF70B8
:104550008091EC00D82FD17080FDD0E81092E90056
:104560008091F000877F8093F00078940E94D6229B
:104570001092E9008091F00088608093F000CD2BCC
:10458000CF70C093E900FF91EF91DF91CF91BF9180
:10459000AF919F918F917F916F915F914F913F91DB
:1045A0002F910F900FBE0F901F9018951F93CF93D0
:1045B000DF93CDB7DEB7AA970FB6F894DEBF0FBE74
:1045C000CDBFE6E1F2E088E08E0F9091F10091938B
:1045D0008E13FBCF0E942C1E8091E80083FF28C120
:1045E0008091160290911702492F50E04A305105F0
:1045F00008F01EC1FA01ED54FF4F0C94602480387E
:1046000021F0823809F014C108C080911202909103
:104610001302992389F082600FC080911A028F7073
:10462000873008F005C18093E9008091EB0085FB9D
:10463000882780F91092E9009091E800977F909385
:10464000E8008093F1001092F100D0C0282F2D7F58
:1046500009F0EEC0882319F0823061F0E9C0809142
:104660001802813009F0E4C0933009F080E08093B3
:1046700013022EC08091180281112AC080911A0263
:104680008F702FEF280F263008F0D2C08093E900FA
:104690002091EB0020FF1CC0933021F48091EB00AF
:1046A000806214C09091EB0090619093EB0021E048
:1046B00030E0A90102C0440F551F8A95E2F74093EC
:1046C000EA001092EA008091EB0088608093EB0092
:1046D0001092E9008091E800877F8093E8000E94B3
:1046E000F420A6C08111A4C0109118021F778091F8
:1046F000E3008078812B8093E3008091E800877F3E
:104700008093E8000E94F4208091E80080FFFCCFB5
:104710008091E30080688093E300111102C082E081
:1047200001C083E08093150283C08058823008F076
:104730007FC080911802909119028C3D53E095073B
:1047400079F583E08A838AE289834FB7F894DE01A2
:10475000139620E03EE051E2E32FF0E05093570043
:10476000E49120FF03C0E295EF703F5FEF708E2F62
:1047700090E0EA3010F0C79601C0C0968D939D93EB
:104780002F5F243149F74FBF8091E800877F8093E6
:10479000E8006AE270E0CE0101960E94FB1F15C09E
:1047A00060911A0270911B02AE014F5F5F4F0E9431
:1047B000281FBC01892BE1F19091E800977F90932D
:1047C000E80089819A810E945E208091E8008B77C1
:1047D0008093E8002DC0803859F58091E800877FEC
:1047E0008093E800809111028093F1008091E800AD
:1047F0008E7773CF81111CC0909118029230C0F453
:104800008091E800877F8093E800909311020E94D6
:10481000F42080911102811106C08091E30087FD90
:1048200002C081E001C084E0809315020E94221E34
:104830008091E80083FF0AC08091E800877F809321
:10484000E8008091EB0080628093EB00AA960FB69F
:10485000F894DEBF0FBECDBFDF91CF911F910895B9
:104860000895CF93809115028823A1F0C091E900AB
:10487000CF709091EC00892F817090FD80E8C82B5B
:104880001092E9008091E80083FD0E94D622CF704B
:10489000C093E900CF91089597FB072E16F400947A
:1048A00007D077FD09D00E94662407FC05D03EF4AE
:1048B000909581959F4F0895709561957F4F0895CC
:1048C000EE0FFF1F0590F491E02D0994AA1BBB1B6E
:1048D00051E107C0AA1FBB1FA617B70710F0A61B00
:1048E000B70B881F991F5A95A9F780959095BC0121
:1048F000CD010895F999FECF92BD81BDF89A99270F
:1049000080B50895A8E1B0E042E050E00C94AE24F8
:10491000262FF999FECF92BD81BDF89A019700B478
:10492000021639F01FBA20BD0FB6F894FA9AF99A18
:104930000FBE08950396272F0E9489240E94882481
:10494000252F0E948924242F0C9489240196272F37
:104950000E9489240C948824DC01CB01FC01F99984
:10496000FECF06C0F2BDE1BDF89A319600B40D92BB
:0C49700041505040B8F70895F894FFCF74
:10497C00B5012808140A321E271DC61D9B1D651D76
:10498C002A1D01929395963436F6F5F4F1F033978F
:0E499C0035F794010203040506070809000020
:00000001FF
