:100000000C949F020C94E6020C94E6020C94E60217
:100010000C94E6020C94E6020C94E6020C94E602C0
:100020000C94E6020C94E6020C9441230C941324E5
:100030000C94CA190C94E6020C94E6020C94E602A5
:100040000C94E6020C94E6020C94E6020C94E60290
:100050000C9475090C94321A0C94E6020C94E60286
:100060000C94E6020C94E6020C94E6020C94E60270
:100070000C94E6020C94E6020C94E6020C94E60260
:100080000C94E6020C94E6020C94E6020C94E60250
:100090000C94E6020C94E6020C94E6020C94E60240
:1000A0000C94E6020C94E6020C94E602320F320F36
:1000B000640F640FB10FD10F561156111310B01009
:1000C000C110C11022112B1156114F11D811D81186
:1000D000EA11EA11E111EA11EA11EA11D811D81175
:1000E000E611EA11EA11E611961D8C1DA41DFD1DF5
:1000F000041E041EFD1D041E041EC51D041ECF1D6E
:10010000D91D041E041E041E041EFD1D041E041E13
:10011000FD1D041EB21D041E041EE91DE91DE91D7E
:10012000E91DE91DE91DE91DE91DE91DFF1D041E6D
:10013000961D891D041E041E041E041E041E041E9A
:10014000041E041E041E041EFF1D041E041EFD1DAD
:10015000041EE71DE71DE71DE71DE71DE71DE71D61
:10016000E71DE71DFF1D8024A7249925A7249925B5
:10017000F324162599256C257B2529001E001F00D8
:100180002000210022002300240025002600270053
:100190002D002E002A004A002B0014001A0008002F
:1001A000150017001C0018000C00120013002F008F
:1001B000300031004D00390004001600070009002E
:1001C0000A000B000D000E000F00330034002A005F
:1001D00028004B00E1001D001B000600190005006F
:1001E00011001000360037003800E5000000520012
:1001F0004E00E000E200E3002C00E1002C000000D3
:100200002C000000E70001515000000051004F0099
:1002100035003A003B003C003D003E003F004000FE
:10022000410042004300440045000000A5002B00AF
:1002300014001A000800150017001C0018000C001C
:10024000120013002F0030003100000039000400BC
:100250001600070009000A000B000D000E000F0039
:1002600033003400000028000000E1001D001B00E6
:100270000600190005001100100036003700380094
:10028000E5000000000000000251E200E3002C0045
:10029000E1002C0000002C000000E700000000003E
:1002A00000000000005C0000BE00BD000000000077
:1002B000BD5CBE5CBC00AE00BB00A800AA00A900EB
:1002C000000000000000000000000000000000002E
:1002D000000000000000000000000000000000001E
:1002E000000000000000000000000000000000000E
:1002F00000000000000000000000000000000000FE
:1003000000000000000000000000000000000000ED
:1003100000000000000000000000000000000000DD
:1003200000000000000000000000000000000000CD
:1003300000000000000000000000005C0000000061
:100340000000000000000001010203040506080A85
:100350000C0F1114181C2024292E33393F464C53FE
:100360005B626A7179818A929AA2AAB2B9C1C8CF36
:10037000D5DCE1E7EBF0F4F7FAFCFDFEFFFEFDFC57
:10038000FAF7F4F0EBE7E1DCD5CFC8C1B9B2AAA225
:100390009A928A8179716A625B534C463F39332E57
:1003A0002924201C1814110F0C0A08060504030246
:1003B0000101000000000000000000000403300004
:1003C000000016034B0042004400360037002D00A9
:1003D0004D004B0049004900000010034B00420053
:1003E0004400660061006E0073000000040309040D
:1003F00009023B00020100A0FA0904000001030108
:1004000001000921110100012240000705810308B4
:10041000000A090401000103000000092111010084
:100420000122C0000705820320000A12011001000A
:1004300000000803A11300010001020301050109E6
:1004400002A10185020901A100050919012905156B
:10045000002501950575018102950175038101054E
:1004600001093009311581257F950275088106093A
:10047000381581257F950175088106050C0A38021B
:100480001581257F950175088106C0C00501098089
:10049000A10185031A81002A8300160100260300AA
:1004A000950175108100C0050C0901A10185041A90
:1004B00001002A9C02160100269C029501751081FC
:1004C00000C005010906A1018505050719E029E716
:1004D000150025019508750181020507190029EF0E
:1004E0001500250195F075018102050819012905FE
:1004F000950575019102950175039101C0050109EA
:1005000006A101050719E029E715002501950875E1
:100510000181029501750881010507190029FF1560
:100520000026FF00950675088100050819012905B8
:10053000950575019102950175039101C000112483
:100540001FBECFEFDAE0DEBFCDBF04B603FE27C08B
:100550008091400290914102A0914202B0914302E9
:100560008730904BA740B04BD1F4109240021092CC
:100570004102109242021092430214BE84B7877F58
:1005800084BF0FB6F894A89580916000886180932D
:100590006000109260000FBEE0E0F8E3099511E002
:1005A000A0E0B1E0E6E1FDE402C005900D92A233C7
:1005B000B107D9F722E0A2E3B1E001C01D92A03457
:1005C000B207E1F70E946A200C9489260C9400007F
:1005D00081E0089581E008950C94EA021F93CF937F
:1005E000DF9300D000D01F92CDB7DEB749835A8386
:1005F00020914D0189819A81211112C0662349F011
:100600000E94FD16182F682F89819A810E94A216D8
:1006100003C00E94D116182F69817A81812F04C0EE
:100620000E94FD1669817A810F900F900F900F90B4
:100630000F90DF91CF911F910C94DA03FC01408160
:1006400051816281738184810C94EE020E941707AC
:100650008FE39CE90197F1F700C000000E941707A3
:1006600080E00E94C20680FF04C00E942D180C94F6
:10067000581A08950E9426030E943318811102C05F
:100680000E94DC180E94E4090C94BD060E945F09D8
:100690000C94C00608950C944A0381E008950C94CC
:1006A0004D03CF93C82F0E944B038C2F0E944F0302
:1006B000CF91089508950E94C8110E945A032FEF08
:1006C00084E39CE0215080409040E1F700C00000AE
:1006D0000C94581A0F931F93CF93DF938C010E94B1
:1006E0001E03EC01B8010E94EC02882309F458C0F3
:1006F000B801CE010E94690A882309F451C0B801EB
:10070000CE010E94AA0A882309F44AC0F801828116
:100710008823A9F0C13C8CE5D80771F0CE3DECE50B
:10072000DE0739F0C115FCE5DF0749F40E945B03E1
:1007300037C00E94DC1834C00E94070831C0C6319F
:10074000DC4539F50E947D17282FF8018281409100
:10075000010150910201882379F02A7A91E009F48D
:1007600090E090933201911102C069E201C065E30B
:10077000CA010E9448190AC080913201811102C049
:1007800069E201C065E3CA010E9453190E94C917BA
:1007900007C0C801DF91CF911F910F910C94E8021F
:1007A00080E0DF91CF911F910F91089580E090E05C
:1007B000089508959FE0799FF00111249BE4899F9B
:1007C000E00DF11D1124E60FF11DEE0FFF1FE6589D
:1007D000FE4F859194910895880F991FFC01E45C68
:1007E000FC4F859194910895CF93DF930E94DA0393
:1007F0000E94E505EC01811521E5920708F042C051
:10080000811560E5960708F02FC1883E910500F537
:10081000803E910508F0D5C1883A910570F4853A7B
:10082000910508F0A4C08130910509F4CAC108F40B
:100830007BC1049708F0C5C177C18F3B910508F4CF
:10084000A1C0803C910508F46FC1805C9109FBC098
:10085000C11580E3D80780F4C11590E2D90708F0EC
:10086000F0C0C03FD10508F45FC1CF3FD10511F002
:1008700008F0A7C1D065A5C1C11520E4D20708F0D2
:10088000F0C0E5C0811569E5960760F5C11588E5FA
:10089000D80708F035C1C11594E5D90778F4C1151A
:1008A00023E5D20708F011C1C11562E5D60708F0AB
:1008B000F6C0DC2FCC27C16FD06A83C1C11585E596
:1008C000D80708F418C1C11596E5D90708F02CC15E
:1008D0008C2F0E9479068F71C82FD0E0DC2FCC2797
:1008E000D0626FC18D3B2CE5920709F414C1E0F48E
:1008F000CB3B8CE5D80709F408C108F009C1C11544
:100900002AE5D20708F010C18C2F8F700E9479065B
:1009100094E0D695C7959A95E1F7CF70D0E0DC2F9B
:10092000CC27D069C82B4DC1803C9C4509F4F9C047
:10093000C13C8CE5D80760F4CE3B9CE5D90709F4AF
:10094000EDC0CF3BDC4509F0EFC0C0E0D2ED39C1CE
:10095000CE0190568115904208F0E6C08D2F8F7120
:100960000E947906DD27D0628F71D82B2AC1853A83
:10097000910509F4DCC0863A910509F0DBC0C2E8B4
:10098000D0E41FC1883A910509F4D7C0893A91058E
:1009900009F4D6C08A3A910509F4D5C08B3A91057D
:1009A00009F4D4C08C3A910509F4D3C08B3B91056E
:1009B00009F4D2C08C3B910509F4D1C08D3A910560
:1009C00009F4D0C0803B910509F4CFC08E3A91055F
:1009D00009F4CEC08F3A910509F4CDC0813B910551
:1009E00009F4CCC0823B910509F4CBC0833B91054F
:1009F00009F4CAC0843B910509F4C9C0853B91053F
:100A000009F4C8C0863B910509F4C7C0873B91052E
:100A100009F4C6C0883B910509F4C5C0893B91051E
:100A200009F4C4C08D3B910509F4C3C08E3B910508
:100A300009F4C2C08A3B910509F4C1C0C0E0D4E406
:100A4000C0C0CE019F700E94EC03EC01BAC0CE0181
:100A50009927D3FF03C0EC01D86CB3C0EC01D06C74
:100A6000B0C0DF70D06AADC0837021E030E002C05A
:100A7000220F331F8A95E2F73C68CE0174E0969509
:100A800087957A95E1F78370382BCF70C695C69518
:100A900080E2C89FE0011124C22BD32B92C04C2FBF
:100AA0004695469590E2499FA0011124C370DD2729
:100AB00021E030E0C90102C0880F991FCA95E2F712
:100AC000EC01C42BD52BDC687CC04C2F4695469599
:100AD00080E2489FA0011124C370DD2721E030E0AF
:100AE000C90102C0880F991FCA95E2F7EC01C42B17
:100AF000D52BDA6866C0DC2FCC27C46FD06A61C002
:100B0000DC2FCC27C06FD06A5CC0C0E0D4ED59C0E8
:100B1000C0E0D5ED56C0C0E0D1ED53C0C0E0D0ED8F
:100B200050C0C0E0D3ED4DC0C0E0D0E04AC0C1E845
:100B3000D0E447C0C3E8D0E444C0C2EED4E441C02E
:100B4000C9EED4E43EC0CAEED4E43BC0C5EBD4E465
:100B500038C0C6EBD4E435C0C3EBD4E432C0C4EB38
:100B6000D4E42FC0C7EBD4E42CC0CCECD4E429C02F
:100B7000CDECD4E426C0C3E8D5E423C0CAE8D5E46C
:100B800020C0C2E9D5E41DC0C4E9D5E41AC0C1E261
:100B9000D6E417C0C3E2D6E414C0C4E2D6E411C060
:100BA000C5E2D6E40EC0C6E2D6E40BC0C7E2D6E486
:100BB00008C0CFE6D4E405C0C0E7D4E402C0CAE26E
:100BC000D6E4CE01DF91CF9108958238910569F185
:100BD000B0F48133910509F46DC048F48932910570
:100BE00009F463C08A32910509F469C00895853318
:100BF000910509F455C089339105B9F00895833EF4
:100C0000910569F138F4803E9105B1F0823E91057D
:100C100009F10895863E9105A9F1873E9105B9F144
:100C2000843E910509F064C023C02091310220FD6B
:100C30004FC021FD4DC008958091310280FD44C018
:100C40008091320280FF44C08091310284FD42C015
:100C500083EE4DC08091310282FF38C0F5CF809184
:100C6000310282FD33C08091320280FD31C0ECCF71
:100C70008091320281FF32C08091310284FD2AC00E
:100C800087EE35C08091310283FF26C0F5CF809179
:100C9000310283FD21C08091320281FD1FC0ECCF63
:100CA0008091310285FD1CC01DC08091310285FDFF
:100CB00019C016C08091310286FD16C017C0809100
:100CC000310286FD13C010C089E311C082EE0FC04F
:100CD00080EE0DC080E00BC086EE09C084EE07C038
:100CE00089E205C085E303C08AE201C081E390E0A8
:100CF00008959091310292FF0DC0282F287128305D
:100D000019F4877F846006C0282F2471243011F4E1
:100D10008B7F886093FF0DC0282F2871283119F42C
:100D2000877E846106C0282F2471243111F48B7EC4
:100D300088612091320220FF0DC0382F3871383081
:100D400019F4877F816006C0382F3171313011F47A
:100D50008E7F886021FF0DC0282F2871283119F45B
:100D6000877E816106C0282F2171213111F48E7E8A
:100D7000886194FD877E089508950C94BC060895BB
:100D80000C94BF06E82FF0E0EE0FFF1FE05EFD4F72
:100D90008081918108950895A3E2B1E041E050E09F
:100DA00025E02A0F8D91E82FE295EF70F0E031A158
:100DB0008F70BA0102C0660F771F8A95E2F7CB01E8
:100DC000962F9095932391A392A1892B82A32A1306
:100DD000E9CFA4E1B1E041E050E02FE02A0F8D918E
:100DE000E82FE295EF70F0E031A18F70BA0102C0F8
:100DF000660F771F8A95E2F7CB01962F9095932384
:100E000091A392A1892B82A32A13E9CFE6E1F2E014
:100E1000A0E2B2E0119211921D921D9272E0E032B6
:100E2000F707C1F785E00E94AE070C943A035F9282
:100E30006F927F928F929F92AF92BF92CF92DF92EA
:100E4000EF92FF920F931F93CF93DF9303E211E092
:100E5000A6E1B2E0612CEE24E394F12C5D018D90CB
:100E60009C90119711961C921E92E80189918E0117
:100E7000E82FE295EF70F0E091A18F70A70101C01B
:100E8000440F8A95EAF7892F842B81A382A1542EDF
:100E90005094852182A3D0EADA95F1F784E1C82E37
:100EA00081E0D82E80E090E0E60179906E01272D58
:100EB00022952F7030E0E90168A12D913C911197A6
:100EC00070E0D72DDF7002C075956795DA95E2F76F
:100ED00060FD08C0B701082E02C0660F771F0A9494
:100EE000E2F702C060E070E0262B372B11963C93AE
:100EF0002E9301968F309105B9F681A1D52DD82377
:100F0000D1A382A1482B42A3129681E0F501208152
:100F100031818216930609F480E0682AF2E0A0325B
:100F2000BF0709F09BCF262D45E060E272E086E125
:100F300092E00E94AF070E944603862DDF91CF9179
:100F40001F910F91FF90EF90DF90CF90BF90AF90E7
:100F50009F908F907F906F905F9008950895FF927B
:100F60000F931F93CF93DF93F82E092F162FD72FB0
:100F7000C42F222349F081E0809335010E94FC199F
:100F80009093340180933301809135018823D9F007
:100F900080913301909134010E94081A069798F0CD
:100FA000EF2DF02FA12FBD2F80E090E04C2F50E0CF
:100FB0008417950734F4219131912D933D93019637
:100FC000F7CF10923501DF91CF911F910F91FF90D4
:100FD000089580912A028695869586950895809138
:100FE0002A0281FD07C0826080932A020E9468184D
:100FF0000C946009089580912A0281FF07C08D7FBB
:1010000080932A020E9468180C946C0908958091BC
:101010002A0281FD0C94FB070C94EF0780912A02B1
:101020008695817008958091000108950E9433187B
:10103000811102C00E94DC180E94641880932A0269
:10104000282F26952695269530E02430310524F06A
:101050008770886180932A0280912A0280FF04C0F1
:1010600086958695869501C080E00C943D09209177
:101070002A02822F869586958695482F50E0433028
:10108000510554F48F5F982F990F990F990F822F64
:101090008770892B80932A0280912A028160809335
:1010A0002A020E94681880912A0286958695869564
:1010B0000C943D0980912A02982F969596959695C5
:1010C000A1F0915E990F990F990F8770892B8093EA
:1010D0002A02887F91E009F490E080912A0290FB37
:1010E00080F980932A020E94681880912A028695CE
:1010F000869586950C943D0980912A0280FD13C047
:10110000816080932A02813019F489E080932A0259
:1011100080912A020E94681880912A0286958695FD
:1011200086950C943D09089580912A0280FF08C09D
:101130008E7F80932A020E94681880E00C943D09FB
:10114000089580912A0280FD0C9494080C947C08E8
:1011500090912A02892F8695869586958F5F8F714B
:101160009770843038F4880F880F880F892B80930C
:101170002A0202C090932A0280912A02887F91E07D
:1011800009F490E080912A0290FB80F980932A0272
:101190000E94681880912A028695869586950C94FF
:1011A0003D09843008F083E0880F880F880F909104
:1011B0002A029770892B80932A02887F91E009F494
:1011C00090E080912A0290FB80F980932A020E948D
:1011D000681880912A028695869586950C943D091B
:1011E000CF92DF92EF92FF928C3724E1920728F49E
:1011F00069E070E00E94DD2529C0A0E0B0E08A50DF
:10120000974DAF4FBF4F6627782F892F9A2F25EF25
:1012100038E241E050E00E94052669017A01CA01E6
:10122000B9010E94CD259B01AC01C701B6010E9406
:10123000CD25BB27A92F982F872F009721E0A20744
:10124000B10511F0BC0102C06FEF7FEFCB01FF9041
:10125000EF90DF90CF900895E82FE295EF70F0E0E7
:1012600032A1282F2F7081E090E001C0880F2A95CD
:10127000EAF78095832382A30895843030F48111A6
:1012800005C090918000977F04C083E0909180001A
:10129000986090938000282F30E0AFEFBFEF0E945E
:1012A0002D2623E030E040E050E00E940526C901F1
:1012B0000E94F00890938D0080938C00089508950B
:1012C000109237011092360110923801EFE6F0E0EB
:1012D0008081816080830895EFE6F0E080818E7FD9
:1012E00080830E94E9070C943D091F920F920FB66C
:1012F0000F9211242F933F934F935F936F937F939C
:101300008F939F93AF93BF93CF93EF93FF930E94DD
:10131000130840913601509137014F5F5F4F94EFB2
:10132000899F90011124CA01B9010E94DD25909383
:10133000370180933601B901660F672F661F770B5F
:1013400071950E94DD256F7780913801823019F404
:10135000603451F404C0813039F46F3729F480913E
:101360006F008E7F80936F00E62FF0E0E45CFC4F0F
:10137000C4910E94E907282F41E051E0C49FC001B9
:10138000C59F900D112463E070E00E94DD25269F2B
:10139000C001279F900D11240E94F00890938D00AA
:1013A00080938C00FF91EF91CF91BF91AF919F916E
:1013B0008F917F916F915F914F913F912F910F90FE
:1013C0000FBE0F901F901895279A87E30E942C0953
:1013D0008AE08093800089E1809381008FEF9FEF06
:1013E00090938700809386000E9416080E940E0842
:1013F00081110C94600908950F931F93CF93DF938D
:10140000C62FD42F022FFC0182818823C9F060935C
:101410003B010E94FC1990933A018093390180E2CC
:101420008C0F883008F050C0C77081E001C0880F71
:10143000CA95EAF7DF91CF911F910F910C94F20EAC
:1014400010913B01161330C08091390190913A01FF
:101450000E94081A883C910538F5C0E2CD0F1D178F
:10146000B9F080E2810F883040F4177081E001C04C
:10147000880F1A95EAF70E94F90EC83048F481E007
:101480009D2F977001C0880F9A95EAF70E94F20E7F
:10149000802F0E94DF0EC830B8F4D77081E001C001
:1014A000880FDA95EAF70AC080E28C0F883060F482
:1014B000C77081E001C0880FCA95EAF7DF91CF912C
:1014C0001F910F910C94F90EDF91CF911F910F9105
:1014D00008959C01CB01233F4CE53407F9F078F4E3
:1014E000283DFCE53F07B9F0293D4CE5340711F1F3
:1014F000273D3C4531F526E241EE61EE1EC0253F19
:10150000FCE53F0799F070F0263F3C45D1F427E217
:1015100045EE66EE12C027E245EE0EC026E241EE31
:1015200060EE0BC027E245EE64EE07C026E241EE16
:1015300062EE03C028E241E065EE0E94FC0980E013
:101540000895FC018281882319F010923B010895CF
:1015500081E00895CF93DF93EC01FB018281882322
:1015600009F41FC1C230FCE5DF0708F41BC1C63116
:101570009CE5D90738F09E012A5F3C4529303105AA
:1015800008F010C10E9446189093320280933102F5
:10159000C031ECE5DE0709F4C3C008F041C0C83033
:1015A0008CE5D80709F49AC0F0F4C430ECE5DE0706
:1015B00009F487C068F4C2308CE5D80709F477C015
:1015C000C330DC4509F0E3C080913102826076C00F
:1015D000C630ECE5DE0709F46EC008F07BC08091F0
:1015E000310288606BC0CC308CE5D80709F485C027
:1015F00068F4CA30ECE5DE0709F474C008F079C07D
:101600000E94C81180913102806858C0CE308CE5AC
:10161000D80709F476C008F07FC0809131028BC0F2
:10162000CB3FECE5DE0709F44FC018F5C3318CE57C
:10163000D80709F47DC078F4C131ECE5DE0709F480
:1016400073C0C231DC4509F0A2C00E94C81180916C
:1016500031028F7733C0C5318CE5D80709F472C0E9
:1016600008F486C0CA3FDC4509F091C0809132027F
:101670003EC0CF3FFCE5DF0709F45FC058F4CD3F23
:101680009CE5D90709F444C008F43FC080913202B8
:1016900082602DC0C130FDE5DF0709F475C008F494
:1016A0005DC0C230DD4509F072C080E06EC080913F
:1016B0003102816003C080913102806180933102E8
:1016C00066C08091310211C08091320282608093A5
:1016D00032025DC0809131028062F0CF8091310290
:1016E0008064ECCF8091310288608460E7CF8160B4
:1016F000EECF809131028E7FE1CF809131028D7FDC
:10170000DDCF80913102877FD9CF8091320218C01E
:10171000809132028D7FDBCF809131028F7ECECFE0
:10172000809131028F7DCACF809131028F7BC6CFED
:1017300080913102877F8B7FC1CF809132028D7F74
:101740008E7FC5CF8091310282FB222720F991E064
:10175000922790FB82F990FB83F9B0CF80913202FF
:10176000982F909591708E7F892B90FB81F9AFCF48
:101770000E94C8118091310287FB222720F991E055
:10178000922790FB87F99ACF81E00E94DE18809122
:101790003102909132020E9457180E94C81180E0D5
:1017A00001C081E0DF91CF91089590934101809332
:1017B00040010895E0914001F0914101309721F0FE
:1017C0000190F081E02D099480E00895E0914001BE
:1017D000F0914101309799F020911301222359F0A3
:1017E0002091310227FF07C0DC012C9111962C9328
:1017F000119725E02C930280F381E02D0994089540
:10180000E0914001F0914101309739F022E0DC0194
:101810002C930480F581E02D0994089520913E01D8
:1018200030913F018217930771F090933F018093AD
:101830003E01E0914001F0914101309721F0068096
:10184000F781E02D0994089520913C0130913D01EC
:101850008217930771F090933D0180933C01E091D2
:101860004001F0914101309721F00084F185E02D95
:101870000994089585B7806885BF85B7806885BF5E
:101880000895089508950C94420C08950C94450C05
:101890000E943A0C0E94410C0C94430C81E0089584
:1018A0000E94F3190E94CC060E947C1A0E9416081E
:1018B0000C94460C7F928F929F92AF92BF92CF92E0
:1018C000DF92EF92FF920F931F93CF93DF93CDB7E9
:1018D000DEB72A970FB6F894DEBF0FBECDBF0E94C9
:1018E00017070E944E0C811111C08FEF89838A83E4
:1018F0001B820E94FC198160782F9D838C83498113
:101900005A816B818D810E940A0D4FC033E4832E72
:1019100031E0932E00E010E0702E802F0E94C2066E
:101920006C01F401A190B1904F01A826B926A11431
:10193000B10431F40F5F1F4F0530110569F7D5CFA2
:101940008091E50181FD0E94CB0690E0EE24E394B6
:10195000F12C97012A213B21232B09F19E837F82C1
:10196000CE20DF2091E0CD2809F490E098870E94F6
:10197000FC198160782F9A8789874E815F816885FD
:101980008A850E940A0D000F111FF801ED5BFE4FC2
:1019900080819181E826F926F182E08206C09F5F6E
:1019A000EE0CFF1C9F30A9F6C5CF0E940E1C1091B3
:1019B00042010E94DA0B1817C9F00E94DA0B8093DB
:1019C00042012A960FB6F894DEBF0FBECDBFDF915D
:1019D000CF911F910F91FF90EF90DF90CF90BF902C
:1019E000AF909F908F907F900C9451032A960FB6E2
:1019F000F894DEBF0FBECDBFDF91CF911F910F9145
:101A0000FF90EF90DF90CF90BF90AF909F908F901E
:101A10007F900895CF93DF93CDB7DEB72B970FB6A6
:101A2000F894DEBF0FBECDBF4F83588769877A8792
:101A30008B87DE01119686E0FD0111928A95E9F708
:101A400085E0FE01379601900D928A95E1F7498174
:101A50005A816B817C818D819E810E9472142B96AC
:101A60000FB6F894DEBF0FBECDBFDF91CF910895C2
:101A7000FC01808191810E943E170895CF93DF93EE
:101A80001F92CDB7DEB7882309F42DC1682F8238A5
:101A9000C1F40E94DA0B81FD26C169E38091010146
:101AA000909102010E9448190E94C9172FEF81EE00
:101AB00094E0215080409040E1F700C0000069E3CD
:101AC00019C0833811F50E94DA0B80FD0CC163E563
:101AD00080910101909102010E9448190E94C9174A
:101AE0002FEF81EE94E0215080409040E1F700C05C
:101AF000000063E580910101909102010E94531959
:101B00000F90DF91CF910C94C9178438C1F40E94D3
:101B1000DA0B82FDE8C067E4809101019091020137
:101B20000E9448190E94C9172FEF81EE94E02150BE
:101B300080409040E1F700C0000067E4DBCF8CEF0D
:101B4000860F813A70F4862F69830E94171E69817F
:101B50008111C9C080910101909102010E94481930
:101B6000CFCF80E2860F883048F4677081E001C0F3
:101B7000880F6A95EAF70E948017C2CF8BE5860F1F
:101B8000833088F4653A29F0663A31F083E890E0D2
:101B900005C081E890E002C082E890E00F90DF91FC
:101BA000CF910C940E0C88E5860F873108F091C018
:101BB000683A09F445C0693A09F445C06A3A09F43B
:101BC00045C06B3A09F445C06C3A09F445C06B3B1B
:101BD00009F445C06C3B09F445C06D3A09F445C0B1
:101BE000603B09F445C06E3A09F445C06F3A09F408
:101BF00045C0613B09F445C0623B09F445C0633B05
:101C000009F445C0643B09F445C0653B09F445C08F
:101C1000663B09F445C0673B09F445C0683B09F4DD
:101C200045C0693B09F445C06D3B09F445C06E3BB6
:101C300009F445C06A3B09F445C080E090E044C027
:101C400082EE90E041C089EE90E03EC08AEE90E0E6
:101C50003BC085EB90E038C086EB90E035C083EB6D
:101C600090E032C084EB90E02FC087EB90E02CC076
:101C70008CEC90E029C08DEC90E026C083E891E0E8
:101C800023C08AE891E020C082E991E01DC084E988
:101C900091E01AC081E292E017C083E292E014C0A2
:101CA00084E292E011C085E292E00EC086E292E00A
:101CB0000BC087E292E008C08FE690E005C080E7A5
:101CC00090E002C08AE292E00F90DF91CF910C94F5
:101CD000240C603F40F0862F0E94161B0F90DF916E
:101CE000CF910C94031C0F90DF91CF91089588231E
:101CF00009F464C0823879F40E94DA0B81FF5EC077
:101D000069E380910101909102010E9448190E94AB
:101D1000C91769E310C08338B1F40E94DA0B80FF61
:101D20004DC063E580910101909102010E94481924
:101D30000E94C91763E580910101909102010E9400
:101D400053190C94C917843879F40E94DA0B82FF76
:101D500035C067E480910101909102010E94481909
:101D60000E94C91767E4E7CF9CEF980F913A10F4EF
:101D7000682FE1CF90E2980F983050F4877091E08F
:101D800001C0990F8A95EAF7892F0E948617D9CF4B
:101D90009BE5980F933020F480E090E00C940E0CBB
:101DA00098E5980F973120F480E090E00C94240C93
:101DB000803F20F00E947E1B0C94031C0895CF935B
:101DC000C82F0E943E0DC93349F42FEF87EE93E0F0
:101DD000215080409040E1F700C000008C2FCF914F
:101DE0000C94770E882321F00E9480170C94C91759
:101DF0000895882321F00E9486170C94C91708952E
:101E0000BF92CF92DF92EF92FF920F931F93CF93E7
:101E1000DF937C01062FC72FFC01158112951F70DF
:101E2000D281D1110E949D170E947617882379F0E4
:101E3000DD2369F080E2800F883048F082E00E9464
:101E400014180E94761791E0B82EB92601C0B12C63
:101E5000CC2EC2948FE0C822D12CF601EA5AFF4F53
:101E60000C9427268C2F807FCF70882311F0C29589
:101E7000C07FDD2399F0CC2309F4CFC180E2800F2D
:101E8000883010F0011104C08C2F0E94801703C00D
:101E90008C2F0E9490170E94C917BFC1802F0E94EB
:101EA000770ECC2309F402C280E2800F883010F054
:101EB000011104C08C2F0E94861703C08C2F0E9432
:101EC00096170E94C917F2C18C2F807FCF70803285
:101ED00011F0C295C07F002319F00130C9F022C073
:101EE000DD2371F0112341F0113031F40E94B0175D
:101EF0008C2B0E94B617DAC10E94B0178C2B1DC024
:101F0000112319F0113009F4D1C10E94BF1725C067
:101F1000DD2321F0163008F0C9C10EC0153008F0DD
:101F2000C5C11BC0DD2361F0112331F0F7018581AC
:101F300080FF73C18F7085838C2F0E94F20EB6C113
:101F4000112359F0093309F079C1FFEF27EE83E03F
:101F5000F15020408040E1F76FC18C2F0E94F90EB4
:101F6000A5C18C2F86958695837090E0009719F017
:101F7000019761F09BC1DD2321F0802F9C2F93708E
:101F800002C080E090E00E940E0C9BC1DD2321F096
:101F9000802F9C2F937002C080E090E00E94240C60
:101FA00090C1DD23F9F0053F51F0063F71F0043F89
:101FB000A9F480912B0290912C0281600BC080913A
:101FC0002B0290912C02826005C080912B0290918F
:101FD0002C02846090932C0280932B02802F0E940D
:101FE000161B1EC0053F51F0063F71F0043FA9F4D7
:101FF00080912B0290912C028E7F0BC080912B023E
:1020000090912C028D7F05C080912B0290912C0223
:102010008B7F90932C0280932B02802F0E947E1B3B
:102020000E94031C4EC18C2F837009F049C0D1114E
:1020300044C1402F429546954770440F440F602F8E
:102040006F70862F90E0A0E0B0E0042E04C0880FEF
:10205000991FAA1FBB1F0A94D2F704FF10C00FE0FC
:1020600010E020E030E004C0000F111F221F331FDA
:102070004A95D2F7009510952095309503C000E061
:1020800010E09801C695C695C370D0E0BC01CD01A3
:10209000602B712B822B932BC230D10559F0C330AA
:1020A000D10559F0219719F00E94B71506C10E9479
:1020B000A51503C10E94C91500C10E94A315FDC04A
:1020C000DD2319F08C2F817001C08695882309F4D7
:1020D000F4C0402F429546954770440F440F602F3F
:1020E0006F70862F90E0A0E0B0E0042E04C0880F4F
:1020F000991FAA1FBB1F0A94D2F704FF10C00FE05C
:1021000010E020E030E004C0000F111F221F331F39
:102110004A95D2F7009510952095309503C000E0C0
:1021200010E09801C695C695C370D0E0BC01CD0102
:10213000602B712B822B932BC230D10559F0C33009
:10214000D10559F0219719F00E947D16B6C00E9462
:102150006B16B3C00E948F16B0C00E94DE15ADC0D2
:10216000CF70DD2339F08C2F0E940416802F0E943F
:10217000F20EA3C0802F0E94F90E8C2F0E9425160C
:102180009CC0023F01F128F4003F41F0013FA1F063
:1021900040C0033FF9F0043F39F13BC0DD2341F07B
:1021A000153008F083C08C2F8F710E944A167EC0B4
:1021B000163008F07BC0F7CFDD2339F08C2F8F71FC
:1021C0000E94041673C0DD23C9F38C2F8F710E9407
:1021D00025166CC0DD2329F08C2F8F710E94EF151E
:1021E00065C00E94EA1562C0DD2349F0CF718C2FD3
:1021F0000E94041663E08C2F0E94FF1757C081E0F5
:102200000E941418123008F451C082E00E94141881
:102210004DC0DD2331F0112389F2802F0E943E0D45
:1022200045C0112391F2093349F49FEFE7EEF3E043
:102230009150E040F040E1F700C00000802F0E9484
:10224000770E34C04C2F4F70602FC7010E94D60309
:102250000E94161536C0D11134C0CF70D0E0C23004
:10226000D10599F03CF4209769F02197F9F40E9488
:102270005A0827C0C430D10571F054F02597B1F445
:1022800080E00AC00E9437081CC00E94A10819C043
:102290000E94A80816C083E00E94D10812C04C2FEB
:1022A0004F70602FC7010E94D9030BC028E0C21AEB
:1022B000D10884E0C816D10420F40E94DA0B0E94F1
:1022C0005103BB20D1F00E94721780FD16C0F701A8
:1022D00012820E946C170E940416C7010E94871187
:1022E0000E946C17DF91CF911F910F91FF90EF909B
:1022F000DF90CF90BF900C942516DF91CF911F9166
:102300000F91FF90EF90DF90CF90BF9008950F93C3
:102310001F93CF93DF93EC01888199812B813C81BE
:10232000232BB9F09F3F11F48F3F99F0CE010E940B
:102330006A03882371F0688179818A810E94491734
:102340008C010E94A1160E94A215B801CE010E9424
:10235000000FDF91CF911F910F9108950E949D175B
:102360000E94AD170E94C9170E94A91C0E94031C5D
:1023700080E090E00E940E0C80E090E00C94240C31
:1023800080910101909102010E945E190C94AE119E
:102390000E948D170C94C011E92FE295EF70F0E0C8
:1023A0003297EE30F105B0F4EA59FF4F0C9427262E
:1023B000803F91F018F4883E68F40EC0843F51F4D9
:1023C0000BC0883E48F0813F29F406C093FB882764
:1023D00080F9089580E0089581E008950E943E17F5
:1023E0000E94CC110895CF93DF9300D000D01F92AC
:1023F000CDB7DEB70F900F900F900F900F90DF9139
:10240000CF910895CF93DF9300D000D000D0CDB707
:10241000DEB726960FB6F894DEBF0FBECDBFDF91B4
:10242000CF9108951F93CF93DF93C0914E0116E093
:1024300080914F01C81799F0D0E01C9FF0011D9FBB
:10244000F00D1124E05BFE4F408151816281738168
:10245000848195810E9402122196C770E9CFDF9195
:10246000CF911F9108954091800150918101609119
:1024700082017091830180918401909185010C9477
:1024800002128091850182958F7009F054C080916D
:102490008201882309F44FC080914E01A0914F0121
:1024A000609180017091810140918301509184017C
:1024B000B6E08A1709F43FC090E041155105C1F11B
:1024C0007F3F11F46F3FA1F1B89FF001B99FF00D6C
:1024D0001124E05BFE4F218172132AC02081621318
:1024E00027C02281211124C023813481241735077C
:1024F00010F421503109241B350B283C3105C0F460
:10250000209185012F7020612093850126E0289F6E
:10251000F001299FF00D1124EB5AFE4F80818F703E
:102520008061808380E891E00E9487110C941212F0
:1025300001968770BECF0895CF92DF92EF92FF92FF
:102540000F931F93CF93DF93CDB7DEB762970FB68C
:10255000F894DEBF0FBECDBF8C0185E0F801DE012F
:102560001D9601900D928A95E1F7D8014C91119634
:102570005C91119712966C9112971396CD90DC9006
:102580001497309180017091810180918301909125
:102590008401009709F46BC17F3F19F43F3F09F4B0
:1025A00066C1E0908201EE2009F4C0C0209185014F
:1025B000C816D90628F0F601E81BF90BCF0104C0B4
:1025C000809590958C0D9D1DFF24F394883C91057A
:1025D00078F0F12C207F09F0C6C07C2DD98AC88AFA
:1025E00089890E94F31180E891E00E948711B1C0AF
:1025F000822F807F09F046C0751314C0341312C0B7
:10260000611110C02F702061209385010E94331248
:1026100080E891E00E94871180918501D80115968C
:102620008C932EC0CD2819F15F3F11F44F3FF9F084
:10263000F62E61111CC080914E0120914F0136E0B1
:10264000821709F45AC090E0389FF001399FF00DCD
:102650001124E05BFE4F7181571306C07081471350
:1026600003C07281711103C001968770E9CFF62E05
:10267000662309F427C180918501816080938501DB
:10268000F12C20C1751308C0341306C0611104C0B9
:1026900080918501D801C3C04D875E878D859E8559
:1026A0006A8B0E94EE116A898823E1F16623D1F1D9
:1026B00020918501822F82958F7090E0029774F0AF
:1026C000809180019091810198878F831986DB86A4
:1026D000CA862C87CE0107960E94871186E0F801F2
:1026E000A0E8B1E001900D928A95E1F70E944112B5
:1026F0000E943312FF24F394E5C04D875E878D85D9
:102700009E850E943E17292F22952F7030E022309F
:1027100031050CF0CBC09F7009F0C5C0805E8830D9
:1027200008F4D0C0C8010E948711E4CFC816D906AA
:1027300008F453C0F601E81BF90BCF01883C910562
:1027400008F450C0F12C7C2DD98AC88A89890E944E
:10275000F311E0E8F1E086E0DF011D928A95E9F7E8
:102760000E943312AFC0751314C0341312C061112C
:1027700010C080918501F8018583C8010E948711EE
:1027800086E0E0E8F1E0DF011D928A95E9F7FE2C92
:1027900099C04D875E878D859E856A8B0E94EE115C
:1027A0006A89882309F4BECF662309F4BBCF209140
:1027B0008501822F82958F7090E002970CF48ECF66
:1027C00080918001909181019A8389831B82DD82AF
:1027D000CC822E83CE0101967FCF809590958C0D73
:1027E0009D1DACCFF62E662309F49CCF75132EC029
:1027F00034132CC02091850120FD1FC0822F8295AB
:102800008F70D9F0D80115962C9315978F3049F019
:102810008F5F982F9295907F822F8F70892B1596BE
:102820008C93C8010E94871186E0F801A0E8B1E00E
:1028300001900D928A95E1F793CF86E0F801A0E828
:10284000B1E001900D928A95E1F73CC04D875E871B
:102850008D859E850E94EE11811140CF809185016A
:10286000816080938501C8010E9487112BC0662377
:1028700009F458CF4D875E878D859E850E94EE11A5
:10288000F82E882309F44ECF86E0F801A0E8B1E0E5
:1028900001900D928A95E1F780E891E00E94380D51
:1028A0000E9441125DCF811139CF0CC02430310517
:1028B0000CF038CF9F7009F431CFF8019581907FEB
:1028C00009F02CCF8F2D62960FB6F894DEBF0FBEA5
:1028D000CDBFDF91CF911F910F91FF90EF90DF90CF
:1028E000CF9008951F93CF93DF93CDB7DEB72C978A
:1028F0000FB6F894DEBF0FBECDBF4F8358876987F0
:102900007A878B879C87CE0107960E949C1288232A
:1029100069F08F8198852A853B85232BF1F19F3FB4
:1029200009F063C08F3F09F060C037C086E0FE0148
:102930003796DE01119601900D928A95E1F76F812D
:102940007885EA85FB85309741F17F3F11F46F3F31
:1029500021F120914F0130E0C9010196877099273C
:1029600040914E0150E08417950709F447C06983F0
:102970007A83FD83EC8396E0929FD001939FB00D04
:102980001124A05BBE4FFE01319601900D929A95E5
:10299000E1F780934F010E94121216E080914E01E0
:1029A00090914F018917C1F1189FC0011124805BDC
:1029B0009E4F0E949C12882379F1E0914E011E9F48
:1029C000F0011124E05BFE4F4081518162817381EF
:1029D000848195810E94021280914E0190E00196BF
:1029E0008770992780934E01D9CF4F81588569858B
:1029F0007A858B859C850E940212CFCF0E94C811D8
:102A000010924F0110924E01E0E8F1E086E0DF0104
:102A10001D928A95E9F7C1CF2C960FB6F894DEBFC8
:102A20000FBECDBFDF91CF911F910895EF92FF921E
:102A30000F931F93CF93DF938C01892B09F46CC004
:102A4000F12CEE24E394E8012196F8018491843777
:102A500040F4843008F051C0813081F0823019F1A7
:102A60005BC0853709F444C0A8F19CE7980F903704
:102A700008F052C08F770E94770E41C00E5F1F4F43
:102A8000FE01C49180E28C0F883048F4C7708E2D0F
:102A900001C0880FCA95EAF70E94A01714C08C2FB6
:102AA0000E943E0D2DC00E5F1F4FFE01C49180E2BB
:102AB0008C0F883058F4C7708E2D01C0880FCA95CE
:102AC000EAF70E94A6170E94C9171AC08C2F0E940D
:102AD000770E16C00E5F1F4FFE01C491CC2381F00C
:102AE0008FE99FE00197F1F700C00000C150F6CFD9
:102AF0000E5F1F4FFE01F49003C00E943E0D8E0139
:102B00008F2D882309F49FCFEFE9FFE03197F1F78C
:102B100000C000008150F5CFDF91CF911F910F9140
:102B2000FF90EF90089508950C9493150E949415CA
:102B30006093BC017093BD018093BE019093BF016F
:102B40000C94AE1108950C9496150F931F93009159
:102B5000BC011091BD012091BE013091BF01602BDD
:102B6000712B822B932B1F910F910C9496150F9321
:102B70001F930091BC011091BD012091BE013091C5
:102B8000BF0160237123822393231F910F910C9423
:102B900096150F931F930091BC011091BD012091D8
:102BA000BE013091BF0160277127822793271F91B3
:102BB0000F910C94961508950C94DB150E94DC156A
:102BC0006093B8017093B9018093BA019093BB01EF
:102BD0000C94AE1160E070E0CB010C94DE150F9305
:102BE0001F9341E050E060E070E08A019B0104C067
:102BF000000F111F221F331F8A95D2F7C901B80198
:102C00001F910F910C94DE150F931F9341E050E03C
:102C100060E070E004C0440F551F661F771F8A955F
:102C2000D2F78091B8019091B901A091BA01B09109
:102C3000BB018A019B01082B192B2A2B3B2BC901B5
:102C4000B8011F910F910C94DE150F931F9341E073
:102C500050E060E070E004C0440F551F661F771F0E
:102C60008A95D2F740955095609570958091B801FE
:102C70009091B901A091BA01B091BB018A019B0169
:102C8000082319232A233B23C901B8011F910F915F
:102C90000C94DE150F931F9341E050E060E070E06C
:102CA00004C0440F551F661F771F8A95D2F7809185
:102CB000B8019091B901A091BA01B091BB018A010C
:102CC0009B01082719272A273B27C901B8011F9113
:102CD0000F910C94DE150F931F930091B801109182
:102CE000B9012091BA013091BB01602B712B822B6D
:102CF000932B1F910F910C94DE150F931F9300914E
:102D0000B8011091B9012091BA013091BB01602343
:102D10007123822393231F910F910C94DE150F933F
:102D20001F930091B8011091B9012091BA0130911F
:102D3000BB0160277127822793271F910F910C9465
:102D4000DE1508952FE0929F800D1124A82FA695DF
:102D5000A695A695877051E001C0550F8A95EAF7B0
:102D600085E0A89FD001112420E030E070E0F90157
:102D7000EA0FFB1FEA57FE4F4081CB01022E02C033
:102D8000969587950A94E2F7817099278195842713
:102D90008523842780832F5F3F4F2530310539F706
:102DA00008952FE0929F800D1124682F66956695F7
:102DB0006695982F977085E0689FB001112440E0D8
:102DC00050E080E0FA01E60FF71FEA57FE4F20813E
:102DD00030E0092E02C0369527950A94E2F721705B
:102DE0003327042E01C0220F0A94EAF7822B4F5F8B
:102DF0005F4F4530510531F70895BF92CF92DF9272
:102E0000EF92FF920F931F93CF93DF938C01C090AB
:102E1000BC01D090BD01E090BE01F090BF01809157
:102E2000B8019091B901A091BA01B091BB01C82A33
:102E3000D92AEA2AFB2ACFE1D0E0D701C6010C2E1D
:102E400004C0B695A795979587950A94D2F780FF09
:102E500007C0BC2EB8018C2F0E94F403019719F40F
:102E6000219758F7B12C8B2DDF91CF911F910F91A6
:102E7000FF90EF90DF90CF90BF900895CF93DF93B6
:102E8000EC010E94FD16BE010E94F403DF91CF9178
:102E900008951F93CF93DF93EB0190914D019923F8
:102EA00021F0CB010E943E1713C0882349F0CB01CB
:102EB0000E94FD16182F682FCE010E94A21604C092
:102EC000CB010E94D116182FBE01812F0E94F4035E
:102ED000DF91CF911F9108958091C00185958595CF
:102EE000859508958091C001877008959091C001E3
:102EF000977081E009F480E008958091E4010895DD
:102F00009091E401892B8093E4010895809590913C
:102F1000E40189238093E40108951092E401089567
:102F20009091E301892B8093E3010895809590911E
:102F3000E30189238093E30108951092E30108954A
:102F40009091E201892B8093E20108958095909100
:102F5000E20189238093E20108951092E20108952D
:102F60008091C101089508950C94B3179091C10107
:102F7000981721F08093C1010C94B41708958091A3
:102F8000C101882329F01092C10180E00C94B4178C
:102F90000895E0910101F09102018091E4018083A4
:102FA000E0910101F091020190818091E301892B70
:102FB0008083E0910101F091020190818091E20112
:102FC000892B80838091C101882381F0E0910101E8
:102FD000F09102019081892B808380910101909171
:102FE00002010E94E31881110E94BF178091010124
:102FF000909102010C94E60B08950C94FC1798E054
:10300000899F90011124262B2093C0010E94041651
:103010008091C0018595859585950C94FD1710923A
:10302000C00180E00C94FD172091C001809582239F
:103030008093C001982F977079F430E0482F082EC4
:10304000000C550B2417350739F085958595859526
:103050000E9425160C940F1808956FEF7FEF80E003
:1030600090E00C94732680E090E00E944F2621E0CF
:103070008C3E9E4F09F020E0822F089582E090E080
:103080000C94472683E090E00C944726CF9384E08D
:1030900090E00E944726C82F81E290E00E944726D8
:1030A0002C2F30E0A901582BCA01CF910895CF935E
:1030B000C92F682F84E090E00E9455266C2F81E292
:1030C00090E0CF910C94552686E090E00C94472632
:1030D000682F86E090E00C945526AB01BC018FE090
:1030E00090E00C946726AB01BC0183E190E00C9466
:1030F000672660E070E0CB010C94731860E070E02C
:10310000CB010E946D180C9479186CEE7EEF80E074
:1031100090E00E94732660E082E090E00E945526D5
:1031200060E083E090E00E9455261092BC0110926E
:10313000BD011092BE011092BF0160E084E090E0FA
:103140000E94552660E081E290E00E94552660E0F2
:1031500085E090E00E94552660E086E090E00E94C5
:1031600055266FEF87E090E00E94552640E050E042
:10317000BA0188E090E00E94672660E08DE090E070
:103180000E94552640E050E0BA0188E190E00E949C
:10319000672660E087E190E00E94552640E050E01D
:1031A000BA018CE190E00E94672660E080E290E046
:1031B0000E9455260C947E180C948518682F8EE07A
:1031C00090E00C945526FC013296809113018823DF
:1031D00031F08091310287FF02C09EE101C096E08C
:1031E00080E0915028F021912223D9F38F5FF9CF0D
:1031F00008959C01FC0132969FEF80E041914617B3
:1032000089F09F3F19F4411101C0982F8F5F8630DC
:10321000A9F79F3F39F0F901E90FF11D97FDFA95E4
:10322000628308950895FC01329608962081261342
:1032300001C010823196E817F907C1F70895262FCB
:103240002695269526952E3168F4FC01E20FF11D96
:10325000677021E030E001C0220F6A95EAF78281B1
:10326000282B22830895262F2695269526952E31E4
:1032700070F4FC01E20FF11D677021E030E001C045
:10328000220F6A95EAF720958281282322830895E8
:1032900020911301222329F02091310227FD0C9463
:1032A0001F190C94F91820911301222329F0209161
:1032B000310227FD0C9433190C941319209113013A
:1032C000FC013296222331F08091310287FF02C047
:1032D0008EE101C086E0DF011D928A95E9F708952D
:1032E00008950C9470190E947119809137028430EE
:1032F00061F11092E60120E488E190E00FB6F894C5
:10330000A895809360000FBE2093600080E00E942B
:103310003D0980E00E9451030E94711983B7817FAB
:10332000846083BF83B7816083BF7894889583B7B7
:103330008E7F83BF0FB6F894A89580916000886156
:1033400080936000109260000FBE08950895089564
:10335000CF930E94A6190E9417070E94A719C0E0E8
:103360008C2F0E94C206892B29F4CF5FC530C1F78C
:1033700080E001C081E0CF91089508950C94BD19BB
:103380000E94C8110E9416080E94DA0B0E94510385
:103390000C94BE191F920F920FB60F9211248F93A7
:1033A0009F93AF93BF938091E601811113C08091E9
:1033B0002D0290912E02A0912F02B09130024196E1
:1033C000A11DB11D80932D0290932E02A0932F0278
:1033D000B0933002BF91AF919F918F910F900FBE2C
:1033E0000F901F90189582E084BD93E095BD9AEFF1
:1033F00097BD80936E0008952FB7F89480912D02A9
:1034000090912E02A0912F02B09130022FBF08950B
:10341000CF92DF92EF92FF920F931F932FB7F89402
:1034200040912D0250912E0260912F027091300236
:103430002FBF6A017B01EE24FF248C0120E030E0E5
:10344000C016D106E206F30610F4415051099A0164
:10345000281B390BC9011F910F91FF90EF90DF904E
:10346000CF90089578941F920F920FB60F92112467
:103470008F939F93AF93BF9380912D0290912E02D3
:10348000A0912F02B09130020196A11DB11D809331
:103490002D0290932E02A0932F02B0933002BF9181
:1034A000AF919F918F910F900FBE0F901F90189525
:1034B00081E08093E00080E28093D8001092C90000
:1034C0008FE19EE40197F1F700C0000087E090EBE8
:1034D000DC018093400290934102A0934202B0939A
:1034E00043029CE088E10FB6F894A89580936000B1
:1034F0000FBE90936000FFCF0E943318811102C06D
:103500000E94DC180E943E188093E5010E94461834
:1035100090933202809331020E944218682F70E02B
:1035200080E090E00C94A3158091EA0180FF0BC02D
:103530006091060185E0689FB0011124759567953B
:10354000759567952BC081FF09C06091060185E0E4
:10355000689FB00111247595679520C082FF07C050
:103560006091060185E0689FB001112417C0909119
:10357000E9019923D1F060910501961788F7209110
:10358000060185E0289F90011124929FA001939F3E
:10359000500D112470E0CA010E94F12560387105B8
:1035A00040F46115710539F002C065E070E0862FC6
:1035B00008958FE7089581E008958091EA0180FFE2
:1035C00008C06091040170E07595679575956795E1
:1035D00021C081FF06C06091040170E07595679578
:1035E00019C082FF04C06091040170E010C0909186
:1035F000E9019923C1F0609103019617A0F780912A
:103600000401899FC001112470E00E94F1256038F7
:10361000710528F46115710521F0862F08958FE753
:10362000089581E0089561E070E0F4CF803F21F4D7
:103630000E94941A819504C0813F29F40E94941A33
:103640008093EE010895823F21F40E94941A81959F
:1036500004C0833F29F40E94941A8093ED010895D9
:10366000893F19F40E94DD1A05C08A3F31F40E9497
:10367000DD1A81958093EF0108958B3F21F40E941C
:10368000DD1A819504C08C3F29F40E94DD1A8093D5
:10369000F0010895843F21F48091EC01816017C00E
:1036A000853F21F48091EC01826011C0863F21F4B6
:1036B0008091EC0184600BC0873F21F48091EC0184
:1036C000886005C0883F31F48091EC01806180936F
:1036D000EC0108958D3F21F48091EA0181600BC0D7
:1036E0008E3F21F48091EA01826005C08F3F29F46A
:1036F0008091EA0184608093EA010895803F39F463
:103700008091EE0187FF6CC01092EE0169C0813F8D
:1037100029F48091EE011816BCF362C09091ED017E
:10372000823F29F497FF5CC01092ED0159C0833F9E
:1037300019F41916CCF354C0893F41F48091EF017C
:1037400018160CF04DC01092EF014AC08A3F29F4C0
:103750008091EF0187FF44C0F6CF8B3F39F4809111
:10376000F00187FF3DC01092F0013AC08C3F29F470
:103770008091F0011816BCF333C0843F21F480918E
:10378000EC018E7F17C0853F21F48091EC018D7F85
:1037900011C0863F21F48091EC018B7F0BC0873FE5
:1037A00021F48091EC01877F05C0883F31F480913E
:1037B000EC018F7E8093EC0113C08D3F21F480914A
:1037C000EA018E7F0BC08E3F21F48091EA018D7F4C
:1037D00005C08F3F29F48091EA018B7F8093EA0135
:1037E0008091ED0181110EC08091EE0181110AC01E
:1037F0008091EF01811106C08091F001811102C01A
:103800001092E90108958BEE91E00E94000C0E9455
:10381000FC199093E8018093E70108951F93CF93DB
:10382000DF938091E7019091E8010E94081AAC01B2
:103830009091E901992321F02091070130E006C021
:10384000209108018AE0289F900111244217530714
:1038500008F47BC08091ED01C091EE01D091EF01A1
:103860001091F001811107C0C1116BC0D11169C065
:10387000111167C06AC09F3F19F09F5F9093E901E3
:10388000181624F40E94941A8093ED018091ED01A2
:1038900087FF05C00E94941A81958093ED011C1644
:1038A00024F40E94941A8093EE018091EE0187FF28
:1038B00005C00E94941A81958093EE013091ED012C
:1038C0003323E1F02091EE012223C1F045EB3403D4
:1038D000C0011124892F990F990B009709F481E0F9
:1038E0008093ED0135EB2303C0011124892F990F3B
:1038F000990B009709F481E08093EE011D1624F4E2
:103900000E94DD1A8093EF018091EF0187FF05C0CF
:103910000E94DD1A81958093EF01111624F40E9414
:10392000DD1A8093F0018091F00187FF05C00E94AD
:10393000DD1A81958093F001DF91CF911F910C9456
:10394000031C9F3F09F099CFA1CFDF91CF911F9129
:103950000895EBEEF1E086E0DF011D928A95E9F72C
:103960001092E9011092EA010895833081F128F460
:10397000813059F08230D1F00895853009F449C082
:10398000B8F1863009F456C0089580910801262FB9
:1039900030E0280F311D2F3F310524F4680F60936C
:1039A000080108958FEF8093080108958091070121
:1039B000262F30E0280F311D2F3F310524F4680FEA
:1039C0006093070108958FEF809307010895809118
:1039D0000601262F30E0280F311D2F3F310524F43A
:1039E000680F6093060108958FEF80930601089594
:1039F00080910501262F30E0280F311D2F3F310522
:103A000024F4680F6093050108958FEF80930501FA
:103A1000089580910401262F30E0280F311D2F3F9B
:103A2000310524F4680F6093040108958FEF8093AB
:103A30000401089580910301262F30E0280F311DE5
:103A40002F3F310524F4680F6093030108958FEF31
:103A5000809303010895833011F128F4813049F0F7
:103A6000823091F00895853081F120F18630C1F1E6
:103A7000089580910801681720F4861B809308013F
:103A8000089510920801089580910701681720F4A5
:103A9000861B809307010895109207010895809175
:103AA0000601681720F4861B809306010895109282
:103AB0000601089580910501681720F4861B809304
:103AC0000501089510920501089580910401681779
:103AD00020F4861B80930401089510920401089538
:103AE00080910301681720F4861B809303010895D9
:103AF0001092030108950F931F93482F50E0FA018D
:103B00003597EF33F10508F07FC0EC58FF4F0C9468
:103B100027260E94DC1871C08091E501817F8E7F8D
:103B20008093E50181E08093F2016FC00E94C8118B
:103B30000FEF13ED20E3015010402040E1F700C0EB
:103B400000000E94581A59C08091E501982F909565
:103B5000917090FB80F98093E50191114EC0897FAF
:103B6000877F10C08091E50181FB222720F991E039
:103B7000922790FB81F98093E5019923F1F18091DF
:103B8000E50181608093E50138C08091E50182FB09
:103B9000222720F991E0922790FB82F9ECCF8091C7
:103BA000E50183FB222720F991E0922790FB83F91E
:103BB000E2CF0E94C8118091310287FB222720F9B1
:103BC00091E0922790FB87F98093310216C08953C8
:103BD00001C08D5141E050E060E070E08A019B013E
:103BE00004C0000F111F221F331F8A95D2F7C9018D
:103BF000B8010E94A3150E94C81181E006C061E0CF
:103C000070E080E090E0F5CF80E01F910F91089583
:103C100080E0089580E008958E518A3030F4E82FD6
:103C2000F0E0E85DFE4F8081089580E00895CF9335
:103C3000C82F8091F201813051F018F0823099F153
:103C40007DC00E947D17823209F07AC004C00E94B4
:103C50007D17823261F48C2F0E94081E811104C0EE
:103C60008C2F0E947B1D1DC081E090E01AC08C2F1C
:103C70000E940A1E811114C0C43179F048F4CB307F
:103C800079F0C03109F060C082E08093F20108C091
:103C9000C93219F0C83321F057C01092F20154C054
:103CA00081E0817053C0C93289F118F5C43171F1D6
:103CB000B0F4C73009F046C08EE18093080182E37A
:103CC000809307018AE08093060184E180930501D7
:103CD00088E08093040188E28093030133C082EE80
:103CE0008C0F863078F58C2F0E940C1E8093F1018A
:103CF00029C0CE34E9F020F4CB3421F56AE013C0BA
:103D0000C13579F0C235F1F461E00DC08091F10167
:103D1000882319F01092F10115C081E08093F2011F
:103D200015C061E006C08091F1010E94B51C0AC077
:103D30006AE08091F1010E942B1D04C01092F201F3
:103D400080E004C081E002C080E0ABCFCF91089555
:103D50008091130208950F931F93CF93DF9300D0A8
:103D60001F92CDB7DEB78C010E941421823011F072
:103D7000843021F584E089831B830A8382E0809369
:103D8000E9008FEF9091E800815095FD06C095ED18
:103D90009A95F1F700008111F5CF8091E80085FF39
:103DA0000DC040E050E063E070E0CE0101960E945B
:103DB00031218091E8008E778093E8000F900F907A
:103DC0000F90DF91CF911F910F910895CF93DF93C3
:103DD00000D01F92CDB7DEB720913702243031F5E5
:103DE00023E02983805891099B838A8382E0809312
:103DF000E9008FEF9091E800815095FD06C095EDA8
:103E00009A95F1F700008111F5CF8091E80085FFC8
:103E10000DC040E050E063E070E0CE0101960E94EA
:103E200031218091E8008E778093E8000F900F9009
:103E30000F90DF91CF910895CF93DF93EC010E9413
:103E40001421823011F08430F9F482E08093E9008B
:103E50009FEF8091E800915085FD06C085ED8A9521
:103E6000F1F700009111F5CF8091E80085FF0CC0BB
:103E700040E050E066E070E0CE010E943121809188
:103E8000E8008E778093E800DF91CF910895CF937B
:103E9000DF93EC010E941421823011F08430D9F5B7
:103EA00080911301882339F08091310287FF03C08C
:103EB00060E282E002C068E081E08093E9008FEF79
:103EC0009091E800815095FD06C095ED9A95F1F727
:103ED00000008111F5CF8091E80085FF1CC0809122
:103EE0001301811105C040E050E068E070E003C0BC
:103EF00070E040E050E0CE010E9431218091E80066
:103F00008E778093E80080E2FE01A3EFB1E001909C
:103F10000D928A95E1F7DF91CF9108958091360255
:103F2000811109C00E94C6220E9423238091E200D1
:103F300084608093E20008951092360208950895F7
:103F400008950C94C01942E061EC81E00E94402287
:103F500042E261EC82E00C9440228091390283308D
:103F600009F460C030F4813071F0823009F499C0F6
:103F700008958A3009F485C08B3009F46BC089300C
:103F800009F0A7C020C080913802813A09F0A1C091
:103F90008091E800877F8093E80080913C029091B7
:103FA0003D02892B21F460E283EF91E003C060E0E1
:103FB00080E090E070E00E947C218091E8008B77A7
:103FC0008093E800089580913802813209F081C021
:103FD00080913C0290913D02029708F07AC0809156
:103FE000E800877F8093E8008091E80082FD05C0AB
:103FF000809137028111F8CF6CC02091F30080913D
:10400000F20090E0922B029729F48091F1008B7FCF
:10401000813021F48091F100809313028091E800B7
:104020008B7753C080913802813A09F052C0809159
:104030003C0290913D02892B09F04BC08091E80031
:10404000877F8093E8008091E80080FFFCCF80911B
:10405000130136C0809138028132D9F580913C023B
:1040600090913D02892BA9F58091E800877F80938C
:10407000E8000E94752280913A02809313010C940B
:10408000C81180913802813221F58091E800877F44
:104090008093E8000E94752280913B028093140275
:1040A000089580913802813AA1F48091E800877FD9
:1040B0008093E8008091E80080FFFCCF809114029B
:1040C0008093F1008091E8008E778093E8000C9453
:1040D0007522089584B7877F84BF0FB6F894A8959A
:1040E00080916000886180936000109260000FBE34
:1040F00090E080E80FB6F89480936100909361009F
:104100000FBE0E94480C0E94C6220E942323809169
:10411000E20084608093E20078940E94B2250E94BD
:10412000500C89E091E00E94D50B809137028530D8
:1041300069F40E947319809135028823B1F30E94BB
:10414000A819882391F30E941B21EFCF0E945A0CDB
:10415000ECCF0C94AB20292F332723303105C9F045
:1041600064F42130310581F02230310509F04CC072
:104170008BE390E020EF33E04BC02132310521F199
:104180002232310589F140C082E190E02BE234E037
:104190003FC099278130910571F02CF4892BA1F54E
:1041A000ECEEF3E00DC08230910541F0039761F52C
:1041B000ECEBF3E005C0EAEDF3E002C0E2ECF3E083
:1041C000849190E09F0124C06115710541F0613038
:1041D0007105D1F489E090E02BE134E019C089E069
:1041E00090E022E034E014C06115710541F06130C7
:1041F000710551F480EC90E02DE334E009C080E4D7
:1042000090E02DEF34E004C080E090E020E030E06A
:10421000FA0131832083089580913702843011F0B0
:1042200081E0089582E0089580911502811102C015
:104230000C940C21089580E189BD82E189BD09B407
:1042400000FEFDCF8091D8008F7D8093D8008091B3
:10425000E00082608093E0008091E00081FDFCCF6F
:104260000895CF92DF92EF92FF920F931F93CF9317
:10427000DF93EC018B016A010E949422811133C00B
:10428000C114D10439F0F60180819181081B190B0A
:10429000C80FD91FE12CF12C0115110519F18091DE
:1042A000E80085FD16C08091E8008E778093E800D5
:1042B000C114D10449F0F60180819181E80EF91E04
:1042C000F182E08285E00FC00E949422882321F3CE
:1042D0000AC089918093F10001501109FFEFEF1A94
:1042E000FF0ADACF80E0DF91CF911F910F91FF900D
:1042F000EF90DF90CF90089520913E0230913F02E1
:104300002617370748F06115710539F42091E80048
:104310002E772093E80001C0B90140E061157105D6
:10432000A9F120913702222309F443C0253009F472
:1043300042C02091E80023FD40C02091E80022FD0A
:1043400032C02091E80020FFE9CF4091F300209196
:10435000F20030E0342BFC01CF016115710559F0FA
:104360002830310540F481918093F100615071094A
:104370002F5F3F4FF1CF41E02830310509F040E099
:104380002091E8002E772093E800C8CF4111C9CFD3
:104390000AC080913702882361F0853061F08091F6
:1043A000E80083FD0AC08091E80082FFF2CF80E040
:1043B000089582E0089583E0089581E008952091B2
:1043C0003E0230913F022617370748F0611571050C
:1043D00039F42091E8002E772093E80001C0B9015C
:1043E000FC0120E06115710591F18091370288236D
:1043F00009F440C0853009F43FC08091E80083FD96
:104400003DC08091E80082FD2FC08091E80080FFD0
:10441000E9CF2091F3008091F20090E0922B61159A
:10442000710559F08830910540F424912093F100F2
:104430003196615071090196F2CF21E0089709F099
:1044400020E08091E8008E778093E800CBCF2111A7
:10445000CCCF0AC080913702882361F0853061F0AB
:104460008091E80083FD0AC08091E80082FFF2CFCE
:1044700080E0089582E0089583E0089581E0089542
:10448000982F973058F59093E900981739F070916C
:10449000EC002091ED005091F00003C0242F762F06
:1044A00050E021FF19C03091EB003E7F3093EB00CC
:1044B0003091ED003D7F3093ED003091EB003160A5
:1044C0003093EB007093EC002093ED005093F000DC
:1044D0002091EE0027FF07C09F5FD3CF8F7080939E
:1044E000E90081E0089580E008958091380287FF17
:1044F00011C08091E80082FD05C0809137028111D2
:10450000F8CF11C08091E8008B770BC08091370203
:10451000882349F08091E80080FFF8CF8091E8007F
:104520008E778093E80008952091E4003091E500B3
:1045300095E64091EC00842F817040FF22C080916D
:10454000E80080FD1CC080913702882391F08530FF
:1045500091F08091EB0085FD10C04091E4005091F6
:10456000E5004217530729F39A01915011F784E0AF
:10457000089582E0089583E0089581E0089580E041
:1045800008954091E80042FFDECF08950E94342351
:104590000E943C23E0EEF0E0808181608083E8EDC2
:1045A000F0E080818F77808319BCA7EDB0E08C911B
:1045B0008E7F8C9380818F7E808310923602089547
:1045C0000F931F93CF93DF930E9434230E943C23C9
:1045D000C8EDD0E088818F77888388818068888360
:1045E00088818F7D888319BC109237021092330224
:1045F000109235021092340200EE10E0F801808132
:104600008B7F808388818160888342E060E080E0E6
:104610000E944022E1EEF0E080818E7F8083E2EE16
:10462000F0E0808181608083808188608083F801F0
:1046300080818E7F8083888180618883DF91CF91A4
:104640001F910F910895E8EDF0E080818F7E8083C7
:10465000E7EDF0E080818160808384E082BF81E0CB
:10466000809336020C94E022E8EDF0E080818E7FAA
:1046700080831092E20008951092DA001092E10017
:1046800008951F920F920FB60F9211242F933F930C
:104690004F935F936F937F938F939F93AF93BF934A
:1046A000EF93FF938091E10082FF0BC08091E200C5
:1046B00082FF07C08091E1008B7F8093E1000E9420
:1046C000B1258091DA0080FF1FC08091D80080FF63
:1046D0001BC08091DA008E7F8093DA008091D90030
:1046E00080FF0DC080E189BD82E189BD09B400FE73
:1046F000FDCF81E0809337020E948E1F05C019BC58
:10470000109237020E949C1F8091E10080FF19C027
:104710008091E20080FF15C08091E2008E7F80933F
:10472000E2008091E20080618093E2008091D800F5
:1047300080628093D80019BC85E0809337020E9484
:10474000A01F8091E10084FF30C08091E20084FFCF
:104750002CC080E189BD82E189BD09B400FEFDCF96
:104760008091D8008F7D8093D8008091E1008F7E6A
:104770008093E1008091E2008F7E8093E20080913F
:10478000E20081608093E20080913302882311F07F
:1047900084E007C08091E30087FD02C081E001C092
:1047A00083E0809337020E94A11F8091E10083FF84
:1047B00029C08091E20083FF25C08091E100877FBE
:1047C0008093E10082E0809337021092330280915F
:1047D000E1008E7F8093E1008091E2008E7F8093E4
:1047E000E2008091E20080618093E20042E060E0BC
:1047F00080E00E9440228091F00088608093F00069
:104800000E949F1FFF91EF91BF91AF919F918F9158
:104810007F916F915F914F913F912F910F900FBEBC
:104820000F901F9018951F920F920FB60F921124A0
:104830002F933F934F935F936F937F938F939F93A8
:10484000AF93BF93CF93DF93EF93FF93C091E900B2
:10485000CF708091EC00D82FD17080FDD0E81092FD
:10486000E9008091F000877F8093F00078940E94A7
:1048700057241092E9008091F00088608093F00046
:10488000CD2BCF70C093E900FF91EF91DF91CF91D5
:10489000BF91AF919F918F917F916F915F914F9158
:1048A0003F912F910F900FBE0F901F9018951F935F
:1048B000CF93DF93CDB7DEB7AA970FB6F894DEBFDC
:1048C0000FBECDBFE8E3F2E088E08E0F9091F100DB
:1048D00091938E13FBCF0E94AD1F8091E80083FF60
:1048E00028C18091380290913902492F50E04A3016
:1048F000510508F01EC1FA01ED54FF4F0C94272614
:10490000803821F0823809F014C108C08091340247
:1049100090913502992389F082600FC080913C020A
:104920008F70873008F005C18093E9008091EB001B
:1049300085FB882780F91092E9009091E800977F25
:104940009093E8008093F1001092F100D0C0282FDE
:104950002D7F09F0EEC0882319F0823061F0E9C0A4
:1049600080913A02813009F0E4C0933009F080E090
:10497000809335022EC080913A0281112AC0809125
:104980003C028F702FEF280F263008F0D2C08093A2
:10499000E9002091EB0020FF1CC0933021F48091AE
:1049A000EB00806214C09091EB0090619093EB005B
:1049B00021E030E0A90102C0440F551F8A95E2F7BB
:1049C0004093EA001092EA008091EB0088608093A7
:1049D000EB001092E9008091E800877F8093E80067
:1049E0000E947522A6C08111A4C010913A021F77BF
:1049F0008091E3008078812B8093E3008091E80030
:104A0000877F8093E8000E9475228091E80080FFF4
:104A1000FCCF8091E30080688093E300111102C015
:104A200082E001C083E08093370283C080588230E7
:104A300008F07FC080913A0290913B028C3D53E098
:104A4000950779F583E08A838AE289834FB7F894E2
:104A5000DE01139620E03EE051E2E32FF0E05093B8
:104A60005700E49120FF03C0E295EF703F5FEF70C5
:104A70008E2F90E0EA3010F0C79601C0C0968D935B
:104A80009D932F5F243149F74FBF8091E800877FC6
:104A90008093E8006AE270E0CE0101960E947C21DA
:104AA00015C060913C0270913D02AE014F5F5F4FB7
:104AB0000E94A920BC01892BE1F19091E800977F29
:104AC0009093E80089819A810E94DF218091E8001B
:104AD0008B778093E8002DC0803859F58091E800ED
:104AE000877F8093E800809133028093F10080916A
:104AF000E8008E7773CF81111CC090913A029230FA
:104B0000C0F48091E800877F8093E800909333029F
:104B10000E94752280913302811106C08091E300CA
:104B200087FD02C081E001C084E0809337020E94CB
:104B3000A31F8091E80083FF0AC08091E800877F6F
:104B40008093E8008091EB0080628093EB00AA964E
:104B50000FB6F894DEBF0FBECDBFDF91CF911F918E
:104B600008950895CF93809137028823A1F0C091D2
:104B7000E900CF709091EC00892F817090FD80E862
:104B8000C82B1092E9008091E80083FD0E94572411
:104B9000CF70C093E900CF910895DB018F939F936D
:104BA0000E943C26BF91AF91A29F800D911DA39FB3
:104BB000900DB29F900D11240895AA1BBB1B51E1CB
:104BC00007C0AA1FBB1FA617B70710F0A61BB70B7D
:104BD000881F991F5A95A9F780959095BC01CD0122
:104BE000089597FB072E16F4009407D077FD09D09F
:104BF0000E94DD2507FC05D03EF4909581959F4FDE
:104C00000895709561957F4F0895A1E21A2EAA1B11
:104C1000BB1BFD010DC0AA1FBB1FEE1FFF1FA2176C
:104C2000B307E407F50720F0A21BB30BE40BF50B69
:104C3000661F771F881F991F1A9469F760957095F2
:104C4000809590959B01AC01BD01CF010895EE0FB9
:104C5000FF1F0590F491E02D0994A29FB001B39F2E
:104C6000C001A39F700D811D1124911DB29F700D75
:104C7000811D1124911D08950E942D26A59F900D40
:104C8000B49F900DA49F800D911D11240895F99952
:104C9000FECF92BD81BDF89A992780B50895A8E10D
:104CA000B0E042E050E00C947B26262FF999FECF2D
:104CB00092BD81BDF89A019700B4021639F01FBA6F
:104CC00020BD0FB6F894FA9AF99A0FBE089503968C
:104CD000272F0E9456260E945526252F0E945626D1
:104CE000242F0C9456260196272F0E9456260C94AA
:104CF0005526DC01CB01FC01F999FECF06C0F2BDBF
:104D0000E1BDF89A319600B40D9241505040B8F789
:064D10000895F894FFCFA6
:104D160006C2012808140A321EA81E471F1C1FE6D9
:104D26001EAB1E01F0F1F4F5F6F7676636353497DB
:104D36009694953390919293010203040506070811
:024D4600090062
:00000001FF
