:100000000C94A4020C94EB020C94EB020C94EB0203
:100010000C94EB020C94EB020C94EB020C94EB02AC
:100020000C94EB020C94EB020C94D2220C94A423BB
:100030000C94F0180C94EB020C94EB020C94EB0271
:100040000C94EB020C94EB020C94EB020C94EB027C
:100050000C94A6080C9458190C94EB020C94EB0227
:100060000C94EB020C94EB020C94EB020C94EB025C
:100070000C94EB020C94EB020C94EB020C94EB024C
:100080000C94EB020C94EB020C94EB020C94EB023C
:100090000C94EB020C94EB020C94EB020C94EB022C
:1000A0000C94EB020C94EB020C94EB020E0810087B
:1000B000150818081B081E082108130E130E450EFC
:1000C000450E920EB00E08100810F20E870F980F12
:1000D000980FF80F0810081001109D109D10AF1018
:1000E000AF10A610AF10AF10AF109D109D10AB1049
:1000F000AF10AF10AB106B1D611D791DC11DC51D6B
:10010000C51DC11DC51DC51D9A1DC51DA41DAE1D46
:10011000C51DC51DC51DC51DC11DC51DC51DC11DD7
:10012000C51D871DC51DC51DBE1DBE1DBE1DBE1D19
:10013000BE1DBE1DBE1DBE1DBE1DC31DC51D6B1D2E
:100140005E1DC51DC51DC51DC51DC51DC51DC51D06
:10015000C51DC51DC51DC31DC51DC51DC11DC51D95
:10016000BC1DBC1DBC1DBC1DBC1DBC1DBC1DBC1DC7
:10017000BC1DC31D11243824302538243025842487
:10018000A7243025FE240D2529001E001F00200075
:1001900021002200230024002500260027002D0036
:1001A0002E002A004A002B0014001A000800150037
:1001B00017001C0018000C00120013002F00300064
:1001C00031004B00390004001600070009000A0046
:1001D0000B000D000E000F00330034002A00280031
:1001E0004E00E1001D001B00060019000500110073
:1001F0001000360037003800E500000052004D00C6
:10020000E000E200E3002C00E1002C0000002C00E4
:100210000000E70001515000000051004F00350080
:100220003A003B003C003D003E003F0040004100E2
:1002300042004300440045000000A5002B001400CC
:100240001A000800150017001C0018000C0012000E
:1002500013002F00300031000000390004001600A8
:10026000070009000A000B000D000E000F0033000C
:100270003400000028000000E1001D001B00060003
:100280001900050011001000360037003800E500A5
:10029000000000000000E000E200E3002C00E100AC
:1002A0002C0000002C0000000251010000000000A2
:1002B0000000005C0000BE00BD0000000000BD5C4E
:1002C000BE5CBC00AE00BB00A800AA00A9000000F4
:1002D000000000000000000000000000000000001E
:1002E000000000000000000000000000000000000E
:1002F00000000000000000000000000000000000FE
:1003000000000000000000000000000000000000ED
:1003100000000000000000000000000000000000DD
:1003200000000000000000000000000000000000CD
:1003300000000000000000000000000000000100BC
:100340000000000000000000005C00000000000051
:10035000000000000001010203040506080A0C0F5A
:100360001114181C2024292E33393F464C535B624C
:100370006A7179818A929AA2AAB2B9C1C8CFD5DC32
:10038000E1E7EBF0F4F7FAFCFDFEFFFEFDFCFAF707
:10039000F4F0EBE7E1DCD5CFC8C1B9B2AAA29A92DA
:1003A0008A8179716A625B534C463F39332E292426
:1003B000201C1814110F0C0A080605040302010181
:1003C00000000000000000000000040330000000F6
:1003D00016034B0042004400360037002D004D004C
:1003E0004B0049004900000010034B00420044004C
:1003F000660061006E007300000004030904090236
:100400003B00020100A0FA09040000010301010001
:100410000921110100012240000705810308000A9B
:10042000090401000103000000092111010001225B
:10043000BC000705820320000A1201100100000021
:100440000803A1130001000102030105010902A133
:100450000185020901A100050919012905150025D9
:100460000195057501810295017503810105010959
:100470003009311581257F950275088106093815E7
:1004800081257F950175088106050C0A38021581C2
:10049000257F950175088106C0C005010980A1016D
:1004A000850319012AB700150126B70095017510BB
:1004B0008100C0050C0901A101850419012AA002CF
:1004C000150126A002950175108100C005010906DD
:1004D000A1018505050719E029E715002501950803
:1004E000750181020507190029EF1500250195F016
:1004F000750181020508190129059505750191020B
:10050000950175039101C005010906A101050719AF
:10051000E029E7150025019508750181029501750F
:100520000881010507190029FF150026FF0095061F
:1005300075088100050819012905950575019102C5
:10054000950175039101C00011241FBECFEFDAE0C1
:10055000DEBFCDBF04B603FE27C08091A8029091F4
:10056000A902A091AA02B091AB028730904BA7409C
:10057000B04BD1F41092A8021092A9021092AA02D4
:100580001092AB0214BE84B7877F84BF0FB6F89475
:10059000A89580916000886180936000109260004F
:1005A0000FBEE0E0F8E3099511E0A0E0B1E0E4E47B
:1005B000FCE402C005900D92A639B107D9F722E0FC
:1005C000A6E9B1E001C01D92A83AB207E1F70E9486
:1005D00001200C9420260C94000081E0089581E015
:1005E00008950C94EF0208950C94F3021F93CF9397
:1005F000DF9300D000D01F92CDB7DEB749835A8376
:100600006B832091B10189819A81211112C06623E7
:1006100049F00E94ED15182F682F89819A810E9458
:10062000961503C00E94C115182F69817A81812F08
:1006300004C00E94ED1569817A810F900F900F9090
:100640000F900F90DF91CF911F910C94AD03FC019F
:10065000408151816281738184810C94F602CF9331
:10066000DF93EC010E942703BE01DF91CF910C9430
:10067000F4020E94A4190E942517811102C00E9451
:10068000CE170E9415090C94CC050C94C80508954A
:100690000C94470381E008950C944A03CF93C82F2C
:1006A0000E9448038C2F0E944C03CF910895089517
:1006B0000E948B100E9457032FEF84E39CE021508F
:1006C00080409040E1F700C000000C947E190F9329
:1006D0001F93CF93DF93EC010E9427038C01BE018F
:1006E0000E94F102882379F1BE01C8010E94FF0730
:1006F000882349F1BE01C8010E949F09882319F18E
:10070000BE01C8010E94E0098823E9F0BE01C801CA
:100710000E940B0B8823B9F08A81882369F00115A8
:100720008CE5180731F00E3D1C4531F40E94CE17C0
:100730000AC00E94580307C0CE01DF91CF911F91DC
:100740000F910C94ED0280E0DF91CF911F910F91FA
:10075000089580E090E0089508952BE4829FC00101
:100760001124FC012FE0729FE00DF11D1124E60F12
:10077000F11DEE0FFF1FE857FE4F859194910895EC
:10078000880F991FFC01E65BFC4F859194910895B9
:10079000CF93DF930E94AD030E94E004EC0181152A
:1007A000904508F041C0C11580E4D80708F0D1C0D9
:1007B000C83ED10510F5C03ED10508F0FDC0C83ACD
:1007C000D10578F4C53AD10508F0A2C0C130D105F1
:1007D00009F4F2C008F4EEC0C430D10508F0ECC052
:1007E000E9C0CF3BD10508F49BC0C03CD10508F45B
:1007F000E1C0CE01805C91099EC0C11590E2D9078D
:1008000058F4C11521E0D20708F0D6C0C03FD10589
:1008100008F4D0C0D065D0C0C11580E3D80708F077
:100820008EC0CE019F7087C0C11595E5D90708F02D
:1008300043C0C11524E5D20708F0A2C0C11582E566
:10084000D80708F5C11591E5D90708F085C0CE0194
:1008500074E0969587957A95E1F783709C2F937055
:1008600021E030E002C0220F331F9A95E2F73C6886
:10087000382BCF70C695C69580E2C89FE001112441
:10088000C22BD32B99C09E01237033278C2F8695C2
:100890008695C115D34508F064C0C1E0D0E002C020
:1008A000CC0FDD1F2A95E2F720E2829FC0011124C0
:1008B000C82BD92BDC6880C0C11529E5D207A0F46C
:1008C000C11588E5D80708F060C0C11596E5D907BD
:1008D00008F070C08C2F0E9474058F71C82FD0E073
:1008E000DC2FCC27D06268C0C1152AE5D20708F4F6
:1008F00051C0CE0190568115904208F05BC08D2FFB
:100900008F710E947405DD27D0628F71D82B54C07F
:10091000C55AD0E0CC5BDE4FC881D0E0D0644CC07B
:10092000C85AD0E0CC0FDD1FCA5EDE4F0990D881D7
:10093000C02DD46441C00E94C003EC013DC0CE0173
:100940009927D3FF03C0EC01D86C36C0EC01D06C02
:1009500033C0DF70D06A30C0DC2FCC27C16FD06AC3
:100960002BC0C1E0D0E002C0CC0FDD1F2A95E2F71A
:1009700020E2829FC0011124C82BD92BDA681CC049
:10098000DC2FCC27C46FD06A17C0DC2FCC27C06FF8
:10099000D06A12C08C2F8F700E94740594E0D69597
:1009A000C7959A95E1F7CF70D0E0DC2FCC27D069BE
:1009B000C82B02C0C0E0D0E0CE01DF91CF910895F6
:1009C0008238910569F1B0F48133910509F46DC065
:1009D00048F48932910509F463C08A32910509F41B
:1009E00069C008958533910509F455C0893391058F
:1009F000B9F00895833E910569F138F4803E910580
:100A0000B1F0823E910509F10895863E9105A9F164
:100A1000873E9105B9F1843E910509F064C023C079
:100A20002091990220FD4FC021FD4DC00895809175
:100A3000990280FD44C080919A0280FF44C0809159
:100A4000990284FD42C083EE4DC08091990282FFDD
:100A500038C0F5CF8091990282FD33C080919A020F
:100A600080FD31C0ECCF80919A0281FF32C080912D
:100A7000990284FD2AC087EE35C08091990283FFD8
:100A800026C0F5CF8091990283FD21C080919A0202
:100A900081FD1FC0ECCF8091990285FD1CC01DC057
:100AA0008091990285FD19C016C08091990286FD3A
:100AB00016C017C08091990286FD13C010C089E34B
:100AC00011C082EE0FC080EE0DC080E00BC086EE3C
:100AD00009C084EE07C089E205C085E303C08AE24D
:100AE00001C081E390E008959091990292FF0DC0BA
:100AF000282F2871283019F4877F846006C0282F9A
:100B00002471243011F48B7F886093FF0DC0282F4F
:100B10002871283119F4877E846106C0282F24713A
:100B2000243111F48B7E886120919A0220FF0DC040
:100B3000382F3871383019F4877F816006C0382F1C
:100B40003171313011F48E7F886021FF0DC0282F64
:100B50002871283119F4877E816106C0282F217100
:100B6000213111F48E7E886194FD877E0895E82FEF
:100B7000F0E0EE0FFF1FE857FD4F8081918108954F
:100B8000089580EA8A95F1F7089508950C94C505B3
:100B90000C94C6050C94C5050C94CA05CF93DF933D
:100BA000A6E5B1E04BE551E061E070E08D91E82F02
:100BB000E295EF70F0E021A18F70EB0102C0CC0F45
:100BC000DD1F8A95E2F7CE019C2F9095922391A389
:100BD00092A1892B82A34A175B0741F7A7E4B1E0F2
:100BE00046E551E061E070E08D91E82FE295EF700D
:100BF000F0E021A18F70EB0102C0CC0FDD1F8A95C0
:100C0000E2F7CE019C2F9095922391A392A1892B7C
:100C100082A34A175B0741F7EEE7F2E0A8E8B2E0EB
:100C200088E892E0119211921D921D928E179F07F3
:100C3000C9F785E00E94BD06DF91CF910C9439037E
:100C40002F923F924F925F926F927F928F929F92DC
:100C5000AF92BF92CF92DF92EF92FF920F931F93CA
:100C6000CF93DF9386E5C82E81E0D82E0EE712E001
:100C700098E8492E92E0592E312C88248394912CA7
:100C80005801D8016D907C9011971D921C92F6012D
:100C900081916F01C82FC295CF70D0E099A18F705C
:100CA000740101C0EE0C8A95EAF7892F8E2989A379
:100CB0008AA12E2C209482218AA30E94C105E7E4F8
:100CC000F1E020E030E06191A62FA295AF70B0E096
:100CD00090968C91D8014D915C9190E06F7002C01C
:100CE000959587956A95E2F780FD08C0C401022EAC
:100CF00002C0880F991F0A94E2F702C080E090E0DA
:100D0000482B592BD8014D935C932F5F3F4F2F30C9
:100D10003105C9F689A1282229A28AA1E82AEAA2D6
:100D20000E5F1F4F81E0F5012081318126153705C7
:100D300009F480E0382A4016510609F0A1CF232D8E
:100D400045E068E872E08EE792E00E94BE060E94ED
:100D50004503832DDF91CF911F910F91FF90EF906D
:100D6000DF90CF90BF90AF909F908F907F906F90CB
:100D70005F904F903F902F9008950895FF920F93AA
:100D80001F93CF93DF93F82E092F162FD72FC42F41
:100D9000222349F081E0809398010E9422199093C8
:100DA000970180939601809198018823D9F08091D2
:100DB0009601909197010E942E19069798F0EF2DB9
:100DC000F02FA12FBD2F80E090E04C2F50E0841732
:100DD000950734F4219131912D933D930196F7CFEE
:100DE00010929801DF91CF911F910F91FF9008957C
:100DF00080919202869586958695089580919202BB
:100E000081FD07C08260809392020E945A170C9461
:100E1000910808958091920281FF07C08D7F809391
:100E200092020E945A170C949D0808958091920294
:100E300081FD0C940A070C94FE068091920286951F
:100E4000817008958091000108950E9425178111F5
:100E500002C00E94CE170E94561780939202282F3C
:100E600026952695269530E02430310524F08770AC
:100E70008861809392028091920280FF04C08695DF
:100E80008695869501C080E00C94670820919202B7
:100E9000822F869586958695482F50E043305105E0
:100EA00054F48F5F982F990F990F990F822F8770A5
:100EB000892B8093920280919202816080939202AA
:100EC0000E945A17809192028695869586950C9479
:100ED000670880919202982F969596959695A1F025
:100EE000915E990F990F990F8770892B80939202C9
:100EF000887F91E009F490E08091920290FB80F964
:100F0000809392020E945A1780919202869586954C
:100F100086950C9467088091920280FD13C08160D1
:100F200080939202813019F489E08093920280913B
:100F300092020E945A178091920286958695869514
:100F40000C94670808958091920280FF08C08E7FFC
:100F5000809392020E945A1780E00C9467080895CB
:100F60008091920280FD0C94A3070C948B079091C2
:100F70009202892F8695869586958F5F8F719770DF
:100F8000843038F4880F880F880F892B8093920261
:100F900002C09093920280919202887F91E009F4BE
:100FA00090E08091920290FB80F9809392020E94DF
:100FB0005A17809192028695869586950C946708BB
:100FC000843008F083E0909192029770282F220FCE
:100FD000220F220F922B90939202987F21E009F426
:100FE00020E09091920220FB90F9909392020C9451
:100FF00067080E94E007809192020C945A17FC0146
:10100000DB0112968C918823F9F0EB5BFC45E7300D
:10101000F105D8F4EA5AFF4F0C94BE2583E001C0D5
:1010200080E00E94F90780E008950E946907FBCFE5
:101030000E944607F8CF0E94B007F5CF0E94B7077D
:10104000F2CF0E941607EFCF81E00895279A2F98DC
:1010500008952F980895CF92DF92EF92FF928C37E8
:1010600024E1920728F469E070E00E94742529C009
:10107000A0E0B0E08A50974DAF4FBF4F6627782F62
:10108000892F9A2F25EF38E241E050E00E949C25FD
:1010900069017A01CA01B9010E9464259B01AC0172
:1010A000C701B6010E946425BB27A92F982F872F5F
:1010B000009721E0A207B10511F0BC0102C06FEF5B
:1010C0007FEFCB01FF90EF90DF90CF900895CF930B
:1010D000C82F843050F4811109C080918000877F2F
:1010E000809380000E94290806C0C3E080918000A0
:1010F0008860809380002C2F30E0AFEFBFEF0E941C
:10110000C42523E030E040E050E00E949C25C90166
:101110000E942B0890938D0080938C00CF910895AE
:10112000089510929A011092990110929B01EFE696
:10113000F0E08081816080830895EFE6F0E08081B7
:101140008E7F80830E94F8060C9467081F920F928E
:101150000FB60F9211242F933F934F935F936F938A
:101160007F938F939F93AF93BF93CF93EF93FF930F
:101170000E9422074091990150919A014F5F5F4F61
:1011800094EF899F90011124CA01B9010E9474252E
:1011900090939A0180939901B901660F672F661F9A
:1011A000770B71950E9474256F7780919B01823037
:1011B00019F4603451F404C0813039F46F3729F4E4
:1011C00080916F008E7F80936F00E62FF0E0E65BEA
:1011D000FC4FC4910E94F806282F41E051E0C49FC3
:1011E000C001C59F900D112463E070E00E9474253A
:1011F000269FC001279F900D11240E942B089093D9
:101200008D0080938C00FF91EF91CF91BF91AF91B2
:101210009F918F917F916F915F914F913F912F910E
:101220000F900FBE0F901F9018950E9426088AE01D
:101230008093800089E1809381008FEF9FEF9093EE
:101240008700809386000E9425070E941D07811158
:101250000C94910808950F931F93CF93DF93C62F9B
:10126000D42F122FFC0182818823C9F060939E0144
:101270000E94221990939D0180939C0180E28C0F23
:10128000883008F057C0C77081E001C0880FCA9548
:10129000EAF7DF91CF911F910F910C94D30D8091BC
:1012A0009E01681330C080919C0190919D010E9425
:1012B0002E19883C910538F500E20D0FCD17B9F0D5
:1012C00080E28C0F883040F4C77081E001C0880F45
:1012D000CA95EAF70E94DA0D083028F581E09D2FC3
:1012E000977001C0880F9A95EAF70E94D30D812F5D
:1012F0000E94C00D0830F0F4D77081E001C0880F63
:10130000DA95EAF70AC080E28C0F883098F4C7704B
:1013100081E001C0880FCA95EAF7DF91CF911F9154
:101320000F910C94DA0D812FDF91CF911F910F91C6
:101330000C94C00DDF91CF911F910F9108959C01E6
:10134000CB01233F4CE53407F9F078F4283DFCE568
:101350003F07B9F0293D4CE5340711F1273D3C45E5
:1013600031F526E241EE61EE1EC0253FFCE53F0768
:1013700099F070F0263F3C45D1F427E245EE66EE49
:1013800012C027E245EE0EC026E241EE60EE0BC031
:1013900027E245EE64EE07C026E241EE62EE03C0AE
:1013A00028E241E065EE0E942B0980E00895FC01EF
:1013B0008281882319F010929E01089581E008959A
:1013C000CF93DF93EC01FB018281882309F41FC1D5
:1013D000C230FCE5DF0708F41BC1C6319CE5D90724
:1013E00038F09E012A5F3C452930310508F010C1D4
:1013F0000E94381790939A0280939902C031ECE5CD
:10140000DE0709F4C3C008F041C0C8308CE5D80736
:1014100009F49AC0F0F4C430ECE5DE0709F487C0A3
:1014200068F4C2308CE5D80709F477C0C330DC45D6
:1014300009F0E3C080919902826076C0C630ECE585
:10144000DE0709F46EC008F07BC0809199028860C5
:101450006BC0CC308CE5D80709F485C068F4CA307D
:10146000ECE5DE0709F474C008F079C00E948B1027
:1014700080919902806858C0CE308CE5D80709F475
:1014800076C008F07FC0809199028BC0CB3FECE51D
:10149000DE0709F44FC018F5C3318CE5D80709F40D
:1014A0007DC078F4C131ECE5DE0709F473C0C231C8
:1014B000DC4509F0A2C00E948B10809199028F77C1
:1014C00033C0C5318CE5D80709F472C008F486C072
:1014D000CA3FDC4509F091C080919A023EC0CF3FDF
:1014E000FCE5DF0709F45FC058F4CD3F9CE5D90760
:1014F00009F444C008F43FC080919A0282602DC074
:10150000C130FDE5DF0709F475C008F45DC0C230E5
:10151000DD4509F072C080E06EC080919902816063
:1015200003C08091990280618093990266C0809186
:10153000990211C080919A02826080939A025DC0E4
:10154000809199028062F0CF809199028064ECCF03
:101550008091990288608460E7CF8160EECF8091AE
:1015600099028E7FE1CF809199028D7FDDCF8091AE
:101570009902877FD9CF80919A0218C080919A02F0
:101580008D7FDBCF809199028F7ECECF80919902A3
:101590008F7DCACF809199028F7BC6CF80919902AF
:1015A000877F8B7FC1CF80919A028D7F8E7FC5CF41
:1015B0008091990282FB222720F991E0922790FBEB
:1015C00082F990FB83F9B0CF80919A02982F909581
:1015D00091708E7F892B90FB81F9AFCF0E948B1089
:1015E0008091990287FB222720F991E0922790FBB6
:1015F00087F99ACF81E00E94D0178091990290914B
:101600009A020E9449170E948B1080E001C081E07D
:10161000DF91CF910895CF93DF9386319C4541F5BB
:10162000EB010E946E16982F8A8120910101309162
:101630000201882379F09A7A81E009F480E08093AE
:101640009F01911102C069E201C065E3C9010E94D6
:101650006B180AC080919F01811102C069E201C02C
:1016600065E3C9010E9476180E94BC1680E001C0A3
:1016700081E0DF91CF9108959093A5018093A4011B
:101680000895E091A401F091A501309721F0019017
:10169000F081E02D099480E00895E091A401F0919B
:1016A000A501309799F020911501222359F020913E
:1016B000990227FF07C0DC012C9111962C931197FA
:1016C00025E02C930280F381E02D09940895E091A8
:1016D000A401F091A501309739F022E0DC012C93B0
:1016E0000480F581E02D099408952091A2013091A4
:1016F000A3012817390771F09093A3018093A201E9
:10170000E091A401F091A501309721F00680F781C6
:10171000E02D099408952091A0013091A10128178E
:10172000390771F09093A1018093A001E091A40189
:10173000F091A501309721F00084F185E02D099406
:10174000089585B7806885BF85B7806885BF08958F
:1017500008950C94A80B0C94A90B0C94A80B0C9452
:10176000A80B0E94A10B0E94AD0B0C94AB0B81E067
:1017700008950E9419190E94CE050E94B8190E946E
:1017800025070C94AF0B7F928F929F92AF92BF92DE
:10179000CF92DF92EF92FF920F931F93CF93DF933D
:1017A000CDB7DEB72A970FB6F894DEBF0FBECDBF18
:1017B0000E9420060E94B70B811111C08FEF898310
:1017C0008A831B820E9422198160782F9D838C83DB
:1017D00049815A816B818D810E94750C4FC047EA07
:1017E000A42E41E0B42E00E010E0702E802F0E9465
:1017F000B7056C01F501819091905F0188269926CB
:101800008114910431F40F5F1F4F0530110569F702
:10181000D5CF8091490281FD0E94C00580E0EE2471
:10182000E394F12C94012E213F21232B09F18E8387
:101830007F82CE20DF2081E0CD2809F480E08887F8
:101840000E9422198160782F9A8789874E815F8153
:1018500068858A850E94750C000F111FF801E955F3
:10186000FE4F80819181E826F926F182E08206C050
:101870008F5FEE0CFF1C8F30A9F6C5CF0E94900839
:101880000E944A1B0E94410B9091A6018917C9F042
:101890000E94410B8093A6012A960FB6F894DEBFF2
:1018A0000FBECDBFDF91CF911F910F91FF90EF90B1
:1018B000DF90CF90BF90AF909F908F907F900C94CF
:1018C0004E032A960FB6F894DEBF0FBECDBFDF9150
:1018D000CF911F910F91FF90EF90DF90CF90BF902D
:1018E000AF909F908F907F900895CF93DF93CDB767
:1018F000DEB72B970FB6F894DEBF0FBECDBF4F8378
:10190000588769877A878B87DE01119686E0FD010B
:1019100011928A95E9F785E0FE01379601900D92C4
:101920008A95E1F749815A816B817C818D819E8105
:101930000E945B132B960FB6F894DEBF0FBECDBF8F
:10194000DF91CF910895FC01808191810E942F1633
:101950000895CF93882309F4A9C0C82F8238C1F411
:101960000E94410B81FDA2C069E380910101909129
:1019700002010E946B180E94BC162FEF81EE94E0CA
:10198000215080409040E1F700C0000069E319C099
:10199000833801F50E94410B80FD88C063E580918A
:1019A0000101909102010E946B180E94BC162FEF5A
:1019B00081EE94E0215080409040E1F700C00000AB
:1019C00063E580910101909102010E947618CF9108
:1019D0000C94BC168438C1F40E94410B82FD66C091
:1019E00067E480910101909102010E946B180E94AE
:1019F000BC162FEF81EE94E0215080409040E1F73B
:101A000000C0000067E4DDCF8CEF8C0F813AF8F462
:101A10008C2F0E94D61D811149C06C2F809101012D
:101A2000909102010E94EB17882349F06C2F80915E
:101A30000101909102010E9476180E94BC166C2F41
:101A400080910101909102010E946B18C0CF80E249
:101A50008C0F883048F4C77081E001C0880FCA95A8
:101A6000EAF70E947116B3CFEBE5EC0FE33040F4D8
:101A7000F0E0E757FE4F808190E0CF910C94750B1A
:101A8000E8E5EC0FE73150F4F0E0EE0FFF1FE55A08
:101A9000FE4F80819181CF910C948B0BC03F30F031
:101AA0008C2F0E94521ACF910C943F1BCF91089516
:101AB000882309F464C0823879F40E94410B81FFC5
:101AC0005EC069E380910101909102010E946B1850
:101AD0000E94BC1669E310C08338B1F40E94410B28
:101AE00080FF4DC063E580910101909102010E9449
:101AF0006B180E94BC1663E5809101019091020170
:101B00000E9476180C94BC16843879F40E94410B1C
:101B100082FF35C067E480910101909102010E942B
:101B20006B180E94BC1667E4E7CF9CEF980F913AC0
:101B300010F4682FE1CF90E2980F983050F487703E
:101B400091E001C0990F8A95EAF7892F0E947716D4
:101B5000D9CF9BE5980F933020F480E090E00C946F
:101B6000750B98E5980F973120F480E090E00C9485
:101B70008B0B803F20F00E94BA1A0C943F1B0895F3
:101B8000CF93C82F0E94A90CC93349F42FEF87EED9
:101B900093E0215080409040E1F700C000008C2F7E
:101BA000CF910C94580D882321F00E9471160C944B
:101BB000BC160895882321F00E9477160C94BC1659
:101BC0000895CF92DF92EF92FF920F931F93CF93DE
:101BD000DF937C01062FC72FFC01158112951F7022
:101BE000D281D1110E948E160E946716882379F047
:101BF000DD2369F080E2800F883048F082E00E94A7
:101C000006170E94671691E0D82ED92601C0D12C64
:101C1000CC2EC2948FE0C8228C2D90E0FC01E35AB8
:101C2000FF4F0C94BE258C2F807FCF70882311F03E
:101C3000C295C07FDD2399F0CC2309F4C4C180E2B2
:101C4000800F883010F0011104C08C2F0E94711693
:101C500003C08C2F0E9481160E94BC16B4C1802F35
:101C60000E94580DCC2309F4D3C180E2800F883044
:101C700010F0011104C08C2F0E94771603C08C2F26
:101C80000E9487160E94BC16C3C18C2F807FCF7024
:101C9000803211F0C295C07F002319F00130C9F0E5
:101CA00022C0DD2371F0112341F0113031F40E9484
:101CB000A1168C2B0E94A916ABC10E94A1168C2BD9
:101CC0001DC0112319F0113009F4A2C10E94B216EF
:101CD00025C0DD2321F0163008F09AC10EC0153062
:101CE00008F096C11BC0DD2361F0112331F0F7012C
:101CF000858180FF68C18F7085838C2F0E94D30DF2
:101D000087C1112359F0093309F06EC1FFEF27EEA7
:101D100083E0F15020408040E1F764C18C2F0E94A5
:101D2000DA0D76C18C2F86958695837019F08130F7
:101D300061F06EC1DD2321F0802F9C2F937002C0D3
:101D400080E090E00E94750B6BC1DD2321F0802FB5
:101D50009C2F937002C080E090E00E948B0B60C1CA
:101D6000DD23F9F0053F51F0063F71F0043FA9F47F
:101D7000809193029091940281600BC080919302B4
:101D800090919402826005C0809193029091940298
:101D900084609093940280939302802F0E94521A41
:101DA0001EC0053F51F0063F71F0043FA9F4809139
:101DB0009302909194028E7F0BC080919302909138
:101DC00094028D7F05C080919302909194028B7F45
:101DD0009093940280939302802F0E94BA1A0E94DB
:101DE0003F1B1EC18C2F837009F045C0D11114C157
:101DF000402F429546954770440F440F602F6F70F7
:101E0000862F90E0A0E0B0E0042E04C0880F991F58
:101E1000AA1FBB1F0A94D2F704FF10C00FE010E006
:101E200020E030E004C0000F111F221F331F4A952D
:101E3000D2F7009510952095309503C000E010E092
:101E40009801C695C695C370BC01CD01602B712B5E
:101E5000822B932BC23049F058F4C13019F00E9404
:101E6000AC14DAC00E949A14D7C00E94BE14D4C029
:101E70000E949814D1C0DD2319F08C2F817001C00D
:101E80008695882309F4C8C0402F4295469547702F
:101E9000440F440F602F6F70862F90E0A0E0B0E0F9
:101EA000042E04C0880F991FAA1FBB1F0A94D2F7E3
:101EB00004FF10C00FE010E020E030E004C0000F8D
:101EC000111F221F331F4A95D2F7009510952095B8
:101ED000309503C000E010E09801C695C695C37028
:101EE000BC01CD01602B712B822B932BC23049F0AA
:101EF00058F4C13019F00E9471158EC00E945F1510
:101F00008BC00E94831588C00E94D21485C0CF70F8
:101F1000DD2339F08C2F0E94F814802F0E94D30DFE
:101F20007BC0802F0E94DA0D8C2F0E94191574C07F
:101F3000023F01F128F4003F41F0013FA1F03FC012
:101F4000033FF9F0043F39F13AC0DD2341F0153089
:101F500008F05EC08C2F8F710E943E1559C016305C
:101F600008F056C0F7CFDD2339F08C2F8F710E9417
:101F7000F8144EC0DD23C9F38C2F8F710E94191500
:101F800047C0DD2329F08C2F8F710E94E31440C0DD
:101F90000E94DE143DC0DD2349F0CF718C2F0E94DA
:101FA000F81463E08C2F0E94F11632C081E00E9489
:101FB0000617123068F182E00E94061729C0DD235F
:101FC00031F0112391F2802F0E94A90C21C011231E
:101FD00099F2093349F49FEFE7EEF3E09150E040C6
:101FE000F040E1F700C00000802F0E94580D10C0A3
:101FF0004C2F4F70602FC7010E94A9030E94091443
:102000000FC04C2F4F70602FC7010E94AC0308C057
:1020100088EF8C0D843020F40E94410B0E944E0307
:10202000DD20C9F00E94631680FD15C0F701128201
:102030000E945D160E94F814C7010E944C100E9475
:102040005D16DF91CF911F910F91FF90EF90DF9080
:10205000CF900C941915DF91CF911F910F91FF90A4
:10206000EF90DF90CF9008950F931F93CF93DF935E
:10207000EC01688179818A810E943A168C010E9464
:1020800095150E948614B801CE010E94E10DDF91E2
:10209000CF911F910F910895CF93DF93FC01908111
:1020A000818123813481232B31F08F3F31F481E012
:1020B0009F3F19F403C081E001C080E080FD0EC0A5
:1020C000EF01CF010E946703882341F0CE010E94F7
:1020D0003410CE01DF91CF910C942F03DF91CF917B
:1020E00008950E948E160E949E160E94BC160E94A1
:1020F000691C0E943F1B80E090E00E94750B80E00D
:1021000090E00C948B0B80910101909102010E9450
:1021100081180C9471100E947E160C948310E92F84
:10212000E295EF704E2F50E0FA013297EE30F10554
:10213000B0F4E359FF4F0C94BE25803F91F018F4A2
:10214000883E68F40EC0843F51F40BC0883E48F0CE
:10215000813F29F406C093FB882780F9089580E029
:10216000089581E008950E942F160E948F1008950F
:10217000CF93DF9300D000D01F92CDB7DEB70F9082
:102180000F900F900F900F90DF91CF910895CF9304
:10219000DF9300D000D000D0CDB7DEB726960FB6C3
:1021A000F894DEBF0FBECDBFDF91CF9108951F938E
:1021B000CF93DF93C091B20116E08091B301C817AD
:1021C00099F0D0E01C9FF0011D9FF00D1124EC54FC
:1021D000FE4F4081518162817381848195810E948B
:1021E000C7102196C770E9CFDF91CF911F91089555
:1021F0004091E4015091E5016091E6017091E701A1
:102200008091E8019091E9010C94C710CF938091DF
:10221000E90182958F7009F05FC08091E601882303
:1022200009F45AC08091B201B091B3017091E401F8
:10223000A091E5014091E7015091E80191E07F3FD5
:1022400009F090E0692FC6E08B1709F445C04115ED
:10225000510521F0AF3F21F020E003C021E001C093
:10226000262F90E020FD35C0C89FF001C99FF00DDA
:102270001124EC54FE4F21812A132BC020812713F7
:1022800028C02281211125C02381348124173507DC
:1022900010F421503109241B350B283C3105C8F4BA
:1022A0002091E9012F7020612093E90126E0289F09
:1022B000F001299FF00D1124E754FE4F80818F70AB
:1022C0008061808384EE91E00E944C10CF910C9449
:1022D000D71001968770B8CFCF910895AF92BF9273
:1022E000CF92DF92EF92FF920F931F93CF93DF93E2
:1022F000CDB7DEB761970FB6F894DEBF0FBECDBF86
:102300008C0185E0F801DE011D9601900D928A9501
:10231000E1F7D8014C9111965C9111971296EC90CF
:102320003091E4016091E5018091E7019091E8012D
:10233000009731F06F3F31F421E03F3F19F403C0C3
:1023400021E001C020E0B22FB170BB2E20FD60C1A2
:10235000F801C380D480A090E601AA2009F4EEC061
:102360002091E901C816D90628F0D601A81BB90B9F
:10237000CD0104C0809590958C0D9D1DFF24F39494
:10238000883C910580F0F12C207F09F09CC07C2DC9
:10239000D98AC88A6E2D89890E94B81084EE91E08E
:1023A0000E944C102DC1822F807F09F054C056131B
:1023B00014C0431312C0FE2CE1100FC02F70206117
:1023C0002093E9010E94F81084EE91E00E944C10E5
:1023D0008091E901F80185835CC1CD2831F05F3F30
:1023E00031F481E04F3F19F403C081E001C080E087
:1023F00080FD03C081E08E2502C080E090E0F82FD0
:10240000F170FF2E80FF1CC08091B2012091B301BA
:1024100036E0821709F41AC190E0389FF001399F25
:10242000F00D1124EC54FE4F6181561306C06081FB
:10243000461303C06281E61203C001968770E9CF9C
:10244000FE2CEE2009F425C18091E9018160809382
:10245000E901F12C1EC1561309C0431307C0E11056
:1024600005C08091E901F8018583A4C04D875E878E
:102470008D859E850E94B310882379F1EE2069F145
:102480002091E901822F82958F7090E0029774F07D
:102490008091E4019091E50198878F831986DB860E
:1024A000CA862C87CE0107960E944C1086E0F80160
:1024B000A4EEB1E001900D928A95E1F70E94061119
:1024C0000E94F8100DC0561771F04D875E878D85FC
:1024D0009E850E94B31081111AC0C8010E944C1041
:1024E000FF24F394D6C04313F0CFE110EECF8091D8
:1024F000E901F8018583C8010E944C1086E0E4EEF2
:10250000F1E0DF011D928A95E9F7FA2CC2C0EE20B6
:1025100021F32091E901822F82958F7090E002973C
:102520002CF28091E4019091E5019A8389831B82CA
:10253000DD82CC822E83CE010196B6CFC816D90695
:1025400028F0F601E81BF90BCF0104C080959095A7
:102550008C0D9D1D883C910548F0F12C7C2DD98A6D
:10256000C88A6E2D89890E94B8104AC0FE2CEE20C0
:1025700009F4B3CF561333C0431331C02091E9019E
:1025800020FD24C0822F82958F70482F50E0411586
:102590005105E1F0D80115962C9315974F30510550
:1025A00049F08F5F982F9295907F822F8F70892BA3
:1025B00015968C93C8010E944C1086E0F801A4EE99
:1025C000B1E001900D928A95E1F73DC086E0F801F7
:1025D000A4EEB1E001900D928A95E1F75AC04D87C3
:1025E0005E878D859E850E94B31081115FCF80919B
:1025F000E90181608093E901C8010E944C1049C043
:10260000E4EEF1E086E0DF011D928A95E9F71BC058
:10261000EE2009F462CF4D875E878D859E850E94EE
:10262000B310F82E882309F458CF86E0F801A4EE01
:10263000B1E001900D928A95E1F784EE91E00E945D
:10264000A30C0E9406110E94F81023C04D875E87DC
:102650008D859E850E942F16292F22952F7022305E
:1026600028F49F7039F0811105C00BC0243028F484
:102670009F7049F4805E883020F0C8010E944C10A1
:10268000BF2CFB2C06C0D80115969C91907F91F72A
:10269000F8CF8F2D61960FB6F894DEBF0FBECDBF79
:1026A000DF91CF911F910F91FF90EF90DF90CF902E
:1026B000BF90AF9008951F93CF93DF93CDB7DEB750
:1026C0002C970FB6F894DEBF0FBECDBF4F8358874F
:1026D00069877A878B879C87CE0107960E946E1147
:1026E0008823D1F09F8188852A853B85232B31F073
:1026F0008F3F31F481E09F3F19F403C081E001C0B6
:1027000080E080FD47C04F81588569857A858B853B
:102710009C850E94C7103EC086E0FE013796DE0110
:10272000119601900D928A95E1F7FF81E8856A85FF
:102730007B856115710531F0EF3F31F481E0FF3F9A
:1027400019F403C081E001C080E080FD23C0209126
:10275000B30130E0C9010196877099274091B20119
:1027600050E084179507F1F1F983EA837D836C8348
:1027700096E0929FD001939FB00D1124AC54BE4FB0
:10278000FE01319601900D929A95E1F78093B30185
:102790000E94D71016E08091B2019091B301891781
:1027A00071F1189FC00111248C549E4F0E946E112C
:1027B000882329F1E091B2011E9FF0011124EC540D
:1027C000FE4F4081518162817381848195810E9495
:1027D000C7108091B20190E001968770992780938D
:1027E000B201D9CF0E948B101092B3011092B201A6
:1027F000E4EEF1E086E0DF011D928A95E9F72C9680
:102800000FB6F894DEBF0FBECDBFDF91CF911F9101
:102810000895EF92FF920F931F93CF93DF938C0154
:10282000892B09F46CC0F12CEE24E394E801219685
:10283000F8018491843740F4843008F051C081302D
:1028400081F0823019F15BC0853709F444C0A8F1EA
:102850009CE7980F903708F052C08F770E94580D70
:1028600041C00E5F1F4FFE01849190E2980F983097
:1028700050F48770FE2D01C0FF0F8A95EAF78F2F65
:102880000E94911614C00E94A90C2DC00E5F1F4F0C
:10289000FE01849190E2980F983060F48770FE2DCD
:1028A00001C0FF0F8A95EAF78F2F0E9497160E94AA
:1028B000BC1619C00E94580D16C00E5F1F4FFE01B6
:1028C000C491CC2381F08FE99FE00197F1F700C01C
:1028D0000000C150F6CF0E5F1F4FFE01F49003C001
:1028E0000E94A90C8E018F2D882309F49FCFEFE958
:1028F000FFE03197F1F700C000008150F5CFDF9184
:10290000CF911F910F91FF90EF9008950895089532
:102910000C9487140C9488140E948A1460932002EB
:102920007093210280932202909323020C947110E1
:102930000C948C140F931F9300912002109121028C
:102940002091220230912302602B712B822B932B3A
:102950001F910F910C948C140F931F9300912002E0
:1029600010912102209122023091230260237123D1
:10297000822393231F910F910C948C140F931F9318
:102980000091200210912102209122023091230215
:1029900060277127822793271F910F910C948C1425
:1029A0000C9487140E94D01460931C0270931D0233
:1029B00080931E0290931F020C94711060E070E0EF
:1029C000CB010C94D2140F931F9341E050E060E0D0
:1029D00070E08A019B0104C0000F111F221F331FEA
:1029E0008A95D2F7C901B8011F910F910C94D214A6
:1029F0000F931F9341E050E060E070E004C0440F8B
:102A0000551F661F771F8A95D2F780911C029091FF
:102A10001D02A0911E02B0911F028A019B01082B8A
:102A2000192B2A2B3B2BC901B8011F910F910C9434
:102A3000D2140F931F9341E050E060E070E004C0B7
:102A4000440F551F661F771F8A95D2F74095509502
:102A50006095709580911C0290911D02A0911E02BC
:102A6000B0911F028A019B01082319232A233B23CB
:102A7000C901B8011F910F910C94D2140F931F93A9
:102A800041E050E060E070E004C0440F551F661F55
:102A9000771F8A95D2F780911C0290911D02A09118
:102AA0001E02B0911F028A019B01082719272A27BD
:102AB0003B27C901B8011F910F910C94D2140F93B9
:102AC0001F9300911C0210911D0220911E02309153
:102AD0001F02602B712B822B932B1F910F910C9453
:102AE000D2140F931F9300911C0210911D0220918C
:102AF0001E0230911F0260237123822393231F91B2
:102B00000F910C94D2140F931F9300911C021091FB
:102B10001D0220911E0230911F026027712782271B
:102B200093271F910F910C94D21408952FE0929F38
:102B3000800D1124E82FE695E695E695877051E023
:102B400001C0550F8A95EAF785E0E89FF00111244E
:102B5000E651FE4F20E030E070E04081CB01022ED4
:102B600002C0969587950A94E2F781708195842733
:102B70008523842781932F5F3F4F2530310569F7E7
:102B800008952FE0929F800D1124682F6695669519
:102B90006695982F977085E0689FB001112440E0FA
:102BA00050E080E0FB01E40FF51FE651FE4F20816D
:102BB00030E0092E02C0369527950A94E2F721707D
:102BC0003327042E01C0220F0A94EAF7822B4F5FAD
:102BD0005F4F4530510531F70895BF92CF92DF9294
:102BE000EF92FF920F931F93CF93DF938C01C090CE
:102BF0001C02D0901D02E0901E02F0901F028091F6
:102C0000200290912102A0912202B0912302C82AB1
:102C1000D92AEA2AFB2ACFE1D0E0D701C6010C2E3F
:102C200004C0B695A795979587950A94D2F780FD2D
:102C300004C0219790F7B12C07C0BC2EB8018C2F8F
:102C40000E94C8030197A9F38B2DDF91CF911F91AB
:102C50000F91FF90EF90DF90CF90BF900895CF93AA
:102C6000DF93EC010E94ED15BE010E94C803DF91C5
:102C7000CF9108951F93CF93DF93EB019091B10112
:102C8000992321F0CB010E942F1613C0882349F00D
:102C9000CB010E94ED15182F682FCE010E949615CA
:102CA00004C0CB010E94C115182FBE01812F0E94C4
:102CB000C803DF91CF911F910895809124028595DB
:102CC0008595859508958091240287700895909147
:102CD0002402977081E009F480E008958091480211
:102CE000089590914802892B809348020895809519
:102CF00090914802892380934802089510924802D7
:102D0000089590914702892B8093470208958095FA
:102D100090914702892380934702089510924702B9
:102D2000089590914602892B8093460208958095DC
:102D3000909146028923809346020895109246029C
:102D4000089580912502089508950C94A4160C947A
:102D5000A51690912502981721F0809325020C94D6
:102D6000A716089580912502882329F01092250244
:102D700080E00C94A7160895E0910101F091020102
:102D8000809148028083E0910101F09102019081DD
:102D900080914702892B8083E0910101F09102012B
:102DA000908180914602892B80838091250288231F
:102DB00081F0E0910101F09102019081892B8083E3
:102DC00080910101909102010E94D51781110E940A
:102DD000B21680910101909102010C944D0B0C945C
:102DE000A41698E0899F90011124262B2093240299
:102DF0000E94F814809124028595859585950C9400
:102E0000EF161092240280E00C94EF162091240219
:102E10008095822380932402982F977079F430E074
:102E2000482F082E000C550B2417350739F08595CF
:102E3000859585950E9419150C94011708956FEFDB
:102E40007FEF80E090E00C940A2680E090E00E9402
:102E5000E62521E08C3E9E4F09F020E0822F089568
:102E600082E090E00C94DE2583E090E00C94DE2577
:102E7000CF9384E090E00E94DE25C82F81E290E0AD
:102E80000E94DE252C2F30E0A901582BCA01CF91DA
:102E90000895CF93C92F682F84E090E00E94EC251D
:102EA0006C2F81E290E0CF910C94EC2586E090E0CD
:102EB0000C94DE25682F86E090E00C94EC25AB01A5
:102EC000BC018FE090E00C94FE25AB01BC0183E1D6
:102ED00090E00C94FE2560E070E0CB010C94651747
:102EE00060E070E0CB010E945F170C946B176CEEF2
:102EF0007EEF80E090E00E940A2660E082E090E0B1
:102F00000E94EC2560E083E090E00E94EC251092A6
:102F1000200210922102109222021092230260E0FD
:102F200084E090E00E94EC2560E081E290E00E9465
:102F3000EC2560E085E090E00E94EC2560E086E012
:102F400090E00E94EC256FEF87E090E00E94EC2576
:102F500040E050E0BA0188E090E00E94FE2560E089
:102F60008DE090E00E94EC2540E050E0BA0188E15D
:102F700090E00E94FE2560E087E190E00E94EC2551
:102F800040E050E0BA018CE190E00E94FE2560E054
:102F900080E290E00E94EC250C9470170C94771757
:102FA000682F8EE090E00C94EC25FC013296809125
:102FB0001501882331F08091990287FF02C09EE1BC
:102FC00001C096E080E0915028F021912223D9F3AE
:102FD0008F5FF9CF0895662351F1209115012223C7
:102FE000E9F02091990227FF19C0462F4695469592
:102FF00046954E31E0F4677021E030E002C0220FC8
:10300000331F6A95E2F7FC01E40FF11D828190E025
:103010002823392381E0232B69F409C0FC0132966F
:1030200008962191621729F0E817F907D1F780E097
:10303000089581E008959C01FC0132969FEF80E0A5
:103040004191461789F09F3F19F4411101C0982F13
:103050008F5F8630A9F79F3F39F0F901E90FF11D25
:1030600097FDFA956283089508959C012A5F3F4F6A
:10307000FC014281461301C0128201968217930718
:10308000B9F70895262F2695269526952E3168F4B2
:10309000FC01E20FF11D677021E030E001C0220F5A
:1030A0006A95EAF78281282B22830895262F269598
:1030B000269526952E3170F4FC01E20FF11D677004
:1030C00021E030E001C0220F6A95EAF72095828165
:1030D00028232283089520911501222329F020918D
:1030E000990227FD0C9442180C941B18209115018D
:1030F000222329F02091990227FD0C9456180C9454
:10310000351820911501FC013296222331F080916F
:10311000990287FF02C08EE101C086E0DF011D92A7
:103120008A95E9F7089508950C9493180C949318D0
:10313000CF930E9496180E9420060E949418C0E027
:103140008C2F0E94B705892B29F4CF5FC530C1F7BA
:1031500080E001C081E0CF9108950C9493180C9405
:10316000AD180E94AF1880919F02843061F11092D7
:103170004A0220E488E190E00FB6F894A895809385
:1031800060000FBE2093600080E00E94670880E02E
:103190000E944E030E94AF1883B7817F846083BF73
:1031A00083B7816083BF7894889583B78E7F83BF10
:1031B0000FB6F894A89580916000886180936000B4
:1031C000109260000FBE08950C9493180E948B100B
:1031D0000E9425070E94410B0E944E030C94E418A4
:1031E0001F920F920FB60F9211248F939F93AF935C
:1031F000BF9380914A02811113C0809195029091F2
:103200009602A0919702B09198024196A11DB11D1E
:103210008093950290939602A0939702B0939802A0
:10322000BF91AF919F918F910F900FBE0F901F9004
:10323000189582E084BD93E095BD9AEF97BD809389
:103240006E0008952FB7F8948091950290919602A0
:10325000A0919702B09198022FBF0895CF92DF926C
:10326000EF92FF920F931F932FB7F894409195021E
:103270005091960260919702709198022FBF6A0157
:103280007B01EE24FF248C0120E030E0C016D10643
:10329000E206F30610F4415051099A01281B390B3C
:1032A000C9011F910F91FF90EF90DF90CF9008958B
:1032B00078941F920F920FB60F9211248F939F93C1
:1032C000AF93BF938091950290919602A09197023F
:1032D000B09198020196A11DB11D80939502909323
:1032E0009602A0939702B0939802BF91AF919F91DD
:1032F0008F910F900FBE0F901F90189581E08093D3
:10330000E00080E28093D8001092C9008FE19EE433
:103310000197F1F700C0000087E090EBDC0180939B
:10332000A8029093A902A093AA02B093AB029CE0DA
:1033300088E10FB6F894A895809360000FBE909333
:103340006000FFCF0C941F170E9420068FE39CE9BA
:103350000197F1F700C000000E94200680E00E9463
:10336000B70580FF04C00E94A2190C947E1908952D
:103370000E942517811102C00E94CE170E943017AB
:10338000809349020E94381790939A028093990281
:103390000E943417682F70E080E090E00C9498143D
:1033A0008091520280FF0BC06091080185E0689F08
:1033B000B001112475956795759567952BC081FFB0
:1033C00009C06091080185E0689FB00111247595DE
:1033D000679520C082FF07C06091080185E0689F63
:1033E000B001112417C0909151029923D1F060913E
:1033F0000701961788F72091080185E0289F900122
:103400001124929FA001939F500D112470E0CA01D6
:103410000E9488256038710540F46115710519F422
:1034200006C065E070E0862F08958FE7089581E07B
:1034300008958091520280FF08C06091040170E0FD
:10344000759567957595679521C081FF06C0609158
:10345000040170E07595679519C082FF04C0609102
:10346000040170E010C090915102992399F060918D
:1034700003019617A0F780910401899FC0011124D0
:1034800070E00E9488256038710540F4611571056F
:1034900019F406C061E070E0862F08958FE7089563
:1034A00081E00895803F21F40E94D019819504C0E5
:1034B000813F29F40E94D019809356020895823FDB
:1034C00021F40E94D019819504C0833F29F40E9401
:1034D000D019809355020895893F19F40E94191A52
:1034E00005C08A3F31F40E94191A819580935702D2
:1034F00008958B3F21F40E94191A819504C08C3FD6
:1035000029F40E94191A809358020895843F21F4E7
:1035100080915402816017C0853F21F4809154024C
:10352000826011C0863F21F48091540284600BC0F8
:10353000873F21F480915402886005C0883F31F4B0
:103540008091540280618093540208958D3F21F44C
:103550008091520281600BC08E3F21F48091520213
:10356000826005C08F3F29F480915202846080936D
:1035700052020895803F39F48091560287FF6CC053
:103580001092560269C0813F29F4809156021816A4
:10359000BCF362C090915502823F29F497FF5CC052
:1035A0001092550259C0833F19F41916CCF354C038
:1035B000893F41F48091570218160CF04DC01092CB
:1035C00057024AC08A3F29F48091570287FF44C0BE
:1035D000F6CF8B3F39F48091580287FF3DC010929F
:1035E00058023AC08C3F29F4809158021816BCF357
:1035F00033C0843F21F4809154028E7F17C0853FF1
:1036000021F4809154028D7F11C0863F21F4809176
:1036100054028B7F0BC0873F21F480915402877F37
:1036200005C0883F31F4809154028F7E809354020C
:1036300013C08D3F21F4809152028E7F0BC08E3FCC
:1036400021F4809152028D7F05C08F3F29F4809133
:1036500052028B7F809352028091550281110EC0DD
:103660008091560281110AC080915702811106C0D3
:1036700080915802811102C010925102089583E591
:1036800092E00E94670B0E9422199093500280934F
:103690004F020895CF93DF9300D000D000D0CDB774
:1036A000DEB786E0E3E5F2E0DE01119601900D92CF
:1036B0008A95E1F780915502811105C080915602EB
:1036C000882309F47AC080914D0290914E020E94A5
:1036D0002E19AC0190915102992339F020910901E2
:1036E00030E02417350758F068C020910A018AE0BD
:1036F000289F900111242417350718F05EC09F3FC2
:1037000019F09F5F90935102109257021092580245
:1037100080915502181624F40E94D0198093550206
:103720008091550287FF05C00E94D0198195809332
:10373000550280915602181624F40E94D0198093E5
:1037400056028091560287FF05C00E94D0198195CC
:1037500080935602309155023323E1F020915602B6
:103760002223C1F045EB3403C0011124992319F041
:103770009093550203C081E08093550235EB2303FB
:10378000C0011124992319F09093560203C081E0DF
:10379000809356020E943F1B80914F0290915002ED
:1037A00090934E0280934D0286E0FE013196A3E590
:1037B000B2E001900D928A95E1F780915702811154
:1037C00005C080915802882309F47AC080914B0289
:1037D00090914C020E942E19AC01909151029923B4
:1037E00039F02091050130E02417350758F068C002
:1037F000209106018AE0289F9001112424173507A3
:1038000018F05EC09F3F19F09F5F90935102109295
:1038100055021092560280915702181624F40E9405
:10382000191A809357028091570287FF05C00E94A2
:10383000191A81958093570280915802181624F422
:103840000E94191A809358028091580287FF05C080
:103850000E94191A819580935802309157023323A0
:10386000E1F0209158022223C1F045EB3403C0015E
:103870001124992319F09093570203C081E080939B
:10388000570235EB2303C0011124992319F09093BB
:10389000580203C081E0809358020E943F1B809130
:1038A0004F029091500290934C0280934B0286E01D
:1038B000FE013196A3E5B2E001900D928A95E1F701
:1038C00026960FB6F894DEBF0FBECDBFDF91CF9125
:1038D0000895E3E5F2E086E0DF011D928A95E9F7BD
:1038E00010925102109252020895833081F128F40F
:1038F000813059F08230D1F00895853009F449C003
:10390000B8F1863009F456C0089580910A01262F37
:1039100030E0280F311D2F3F310524F4680F6093EC
:103920000A0108958FEF80930A010895809109019B
:10393000262F30E0280F311D2F3F310524F4680F6A
:103940006093090108958FEF809309010895809194
:103950000801262F30E0280F311D2F3F310524F4B8
:10396000680F6093080108958FEF80930801089510
:1039700080910701262F30E0280F311D2F3F3105A0
:1039800024F4680F6093070108958FEF8093070177
:10399000089580910401262F30E0280F311D2F3F1C
:1039A000310524F4680F6093040108958FEF80932C
:1039B0000401089580910301262F30E0280F311D66
:1039C0002F3F310524F4680F6093030108958FEFB2
:1039D000809303010895833011F128F4813049F078
:1039E000823091F00895853081F120F18630C1F167
:1039F000089580910A01681720F4861B80930A01BC
:103A0000089510920A01089580910901681720F421
:103A1000861B8093090108951092090108958091F1
:103A20000801681720F4861B8093080108951092FE
:103A30000801089580910701681720F4861B809380
:103A400007010895109207010895809104016817F5
:103A500020F4861B809304010895109204010895B8
:103A600080910301681720F4861B80930301089559
:103A70001092030108950F931F9341E050E060E01E
:103A800070E08A019B0104C0000F111F221F331F29
:103A90008A95D2F7C901B8010E9498141F910F911D
:103AA0000C948B10482F50E0FA013597EF33F10555
:103AB00008F06BC0E558FF4F0C94BE250E94CE174E
:103AC00060C080914902817F8E7F8093490281E0AE
:103AD00080935A0208950E948B102FEF83ED90E39C
:103AE000215080409040E1F700C000000E947E1904
:103AF00048C080914902982F9095917090FB80F971
:103B00008093490291113DC0897F877F10C08091C9
:103B1000490281FB222720F991E0922790FB81F94D
:103B200080934902992369F18091490281608093D1
:103B3000490227C08091490282FB222720F991E0A7
:103B4000922790FB82F9ECCF8091490283FB2227D8
:103B500020F991E0922790FB83F9E2CF0E948B102D
:103B60008091990287FB222720F991E0922790FB10
:103B700087F98093990205C0895301C08D510E9435
:103B80003B1D81E0089580E0FACF80E0089580E059
:103B900008950C94C71D8E518A3030F4E82FF0E060
:103BA000E457FE4F8081089580E00895CF93C82F99
:103BB00080915A02813051F018F0823099F17DC025
:103BC0000E946E16823209F07AC004C00E946E16FE
:103BD000823261F48C2F0E94C91D811104C08C2F88
:103BE0000E94521D1DC081E090E01AC08C2F0E94DF
:103BF000C71D811114C0C43179F048F4CB3079F07D
:103C0000C03109F060C082E080935A0208C0C93216
:103C100019F0C83321F057C010925A0254C081E005
:103C2000817053C0C93289F118F5C43171F1B0F413
:103C3000C73009F046C08EE180930A0182E3809389
:103C400009018AE08093080184E18093070188E0FC
:103C50008093040188E28093030133C082EE8C0FCD
:103C6000863078F58C2F0E94CB1D8093590229C095
:103C7000CE34E9F020F4CB3421F56AE013C0C1352D
:103C800079F0C235F1F461E00DC0809159028823CA
:103C900019F01092590215C081E080935A0215C0A4
:103CA00061E006C0809159020E94751C0AC06AE05A
:103CB000809159020E94EB1C04C010925A0280E0CD
:103CC00004C081E002C080E0ABCFCF910895809125
:103CD0007B020895CF93DF9300D01F92CDB7DEB75C
:103CE00090919F02943019F589837B836A8382E0E7
:103CF0008093E9008FEF9091E800815095FD06C018
:103D000095ED9A95F1F700008111F5CF8091E800CB
:103D100085FF0DC040E050E063E070E0CE01019609
:103D20000E94C6208091E8008E778093E8000F9073
:103D30000F900F90DF91CF910895CF93DF93EC0117
:103D40000E94A920823011F0843031F4BE0184E059
:103D5000DF91CF910C946A1EDF91CF910895BC0141
:103D600083E00C946A1ECF93DF93EC010E94A9209C
:103D7000823011F08430F9F482E08093E9008FEF13
:103D80009091E800815095FD06C095ED9A95F1F768
:103D900000008111F5CF8091E80085FF0CC040E064
:103DA00050E066E070E0CE010E94C6208091E800FD
:103DB0008E778093E800DF91CF910895CF93DF93C2
:103DC000EC010E94A920823011F08430D9F5809155
:103DD0001501882339F08091990287FF03C060E2C2
:103DE00082E002C068E081E08093E9008FEF90916B
:103DF000E800815095FD06C095ED9A95F1F7000019
:103E00008111F5CF8091E80085FF1CC080911501DC
:103E1000811105C040E050E068E070E003C070E050
:103E200040E050E0CE010E94C6208091E8008E77ED
:103E30008093E80080E2FE01ABE5B2E001900D92D4
:103E40008A95E1F7DF91CF91089580919E028111CB
:103E500009C00E9457220E94B4228091E20084602F
:103E60008093E200089510929E02089508950895A7
:103E70000C94E61842E061EC81E00E94D02142E21D
:103E800061EC82E00C94D0218091A102833009F48E
:103E900060C030F4813071F0823009F499C0089527
:103EA0008A3009F485C08B3009F46BC0893009F081
:103EB000A7C020C08091A002813A09F0A1C08091E2
:103EC000E800877F8093E8008091A4029091A5028A
:103ED000892B21F460E28BE592E003C060E080E092
:103EE00090E070E00E9411218091E8008B77809330
:103EF000E80008958091A002813209F081C080918C
:103F0000A4029091A502029708F07AC08091E8007F
:103F1000877F8093E8008091E80082FD05C0809152
:103F20009F028111F8CF6CC02091F3008091F200C4
:103F300090E0922B029729F48091F1008B7F8130E1
:103F400021F48091F10080937B028091E8008B77CF
:103F500053C08091A002813A09F052C08091A4021E
:103F60009091A502892B09F04BC08091E800877FD2
:103F70008093E8008091E80080FFFCCF80911501DC
:103F800036C08091A0028132D9F58091A40290912F
:103F9000A502892BA9F58091E800877F8093E8002E
:103FA0000E9405228091A202809315010C948B102F
:103FB0008091A002813221F58091E800877F809373
:103FC000E8000E9405228091A30280937C0208955C
:103FD0008091A002813AA1F48091E800877F8093CC
:103FE000E8008091E80080FFFCCF80917C02809304
:103FF000F1008091E8008E778093E8000C94052210
:10400000089584B7877F84BF0FB6F894A8958091F0
:104010006000886180936000109260000FBE90E0A5
:1040200080E80FB6F89480936100909361000FBE12
:104030000E94B10B0E9457220E94B4228091E2009C
:1040400084608093E20078940E9449250E94B90B15
:104050008BE091E00E943C0B80919F02853069F4D7
:104060000E94B11880919D028823B1F30E94981894
:10407000882391F30E94B020EFCF0E94C30BECCFB6
:104080000C944220292F332723303105C9F060F4E6
:104090002130310581F02230310509F04AC08BE32F
:1040A00090E02EEF33E049C02132310511F1223288
:1040B000310579F13EC082E190E029E334E03DC072
:1040C00099278130910561F040F08230910559F0D7
:1040D000039779F5EAECF3E008C0EAEFF3E005C0F6
:1040E000E8EEF3E002C0E0EDF3E0849190E09F01A0
:1040F00024C06115710541F061307105D1F489E08A
:1041000090E029E234E019C089E090E020E134E059
:1041100014C06115710541F06130710551F48CEBEB
:1041200090E02BE434E009C080E490E027E035E043
:1041300004C080E090E020E030E0FA013183208389
:10414000089580919F02843011F081E0089582E00B
:10415000089580917D02811102C00C94A1200895E0
:1041600080E189BD82E189BD09B400FEFDCF809167
:10417000D8008F7D8093D8008091E000826080938A
:10418000E0008091E00081FDFCCF0895CF92DF92A6
:10419000EF92FF920F931F93CF93DF93EC018B016C
:1041A0007A010E942422811133C0E114F10439F014
:1041B000F70180819181081B190BC80FD91FC12CF1
:1041C000D12C0115110519F18091E80085FD16C06B
:1041D0008091E8008E778093E800E114F10449F0C3
:1041E000F70180819181C80ED91ED182C08285E0FD
:1041F0000FC00E942422882321F30AC08991809352
:10420000F10001501109FFEFCF1ADF0ADACF80E089
:10421000DF91CF911F910F91FF90EF90DF90CF90A2
:1042200008952091A6023091A7022617370748F07B
:104230006115710539F42091E8002E772093E8008C
:1042400001C0B901FC0120E06115710579F180918F
:104250009F028823F1F18530F1F18091E80083FD20
:104260003CC08091E80082FD2EC08091E80080FF74
:10427000EBCF2091F3008091F20090E0922B61153A
:10428000710551F08830910538F421912093F100A7
:10429000615071090196F3CF21E0089709F020E001
:1042A0008091E8008E778093E800CECF2111CFCFA8
:1042B0000AC080919F02882361F0853061F080916F
:1042C000E80083FD0AC08091E80082FFF2CF80E021
:1042D000089582E0089583E0089581E00895209193
:1042E000A6023091A7022617370748F0611571051D
:1042F00039F42091E8002E772093E80001C0B9013D
:10430000FC0120E06115710591F180919F028823E5
:1043100009F440C0853009F43FC08091E80083FD76
:104320003DC08091E80082FD2FC08091E80080FFB1
:10433000E9CF2091F3008091F20090E0922B61157B
:10434000710559F08830910540F424912093F100D3
:104350003196615071090196F2CF21E0089709F07A
:1043600020E08091E8008E778093E800CBCF211188
:10437000CCCF0AC080919F02882361F0853061F024
:104380008091E80083FD0AC08091E80082FFF2CFAF
:1043900080E0089582E0089583E0089581E0089523
:1043A000982F973068F59093E900981739F070913D
:1043B000EC002091ED005091F00003C0242F762FE7
:1043C00050E021FD02C09F5FECCF3091EB003E7FBB
:1043D0003093EB003091ED003D7F3093ED00309154
:1043E000EB0031603093EB007093EC002093ED0014
:1043F0005093F0002091EE0027FDE5CF80E0089576
:104400008F708093E90081E008958091A00287FF7A
:1044100011C08091E80082FD05C080919F0281114A
:10442000F8CF11C08091E8008B770BC080919F027C
:10443000882349F08091E80080FFF8CF8091E80060
:104440008E778093E80008952091E4003091E50094
:1044500095E64091EC00842F817040FF23C080914D
:10446000E80080FD1DC080919F02882399F085306F
:1044700099F08091EB0085FD11C04091E4005091CE
:10448000E5002417350729F3915011F09A01E1CF87
:1044900084E0089582E0089583E0089581E008951E
:1044A00080E008954091E80042FFDDCF08950E942A
:1044B000C5220E94CD22E0EEF0E080818160808301
:1044C000E8EDF0E080818F77808319BCA7EDB0E044
:1044D0008C918E7F8C9380818F7E808310929E0240
:1044E00008950F931F93CF93DF930E94C5220E94DC
:1044F000CD22C8EDD0E088818F778883888180685D
:10450000888388818F7D888319BC10929F021092C6
:104510009B0210929D0210929C0200EE10E0F801A6
:1045200080818B7F808388818160888342E060E026
:1045300080E00E94D021E1EEF0E080818E7F8083D8
:10454000E2EEF0E0808181608083808188608083FA
:10455000F80180818E7F8083888180618883DF91EC
:10456000CF911F910F910895E8EDF0E080818F7E4B
:104570008083E7EDF0E080818160808384E082BF0A
:1045800081E080939E020C947122E8EDF0E080813E
:104590008E7F80831092E20008951092DA001092CC
:1045A000E10008951F920F920FB60F9211242F93DE
:1045B0003F934F935F936F937F938F939F93AF93AB
:1045C000BF93EF93FF938091E10082FF0BC0809136
:1045D000E20082FF07C08091E1008B7F8093E100C1
:1045E0000E9448258091DA0080FF1FC08091D8008A
:1045F00080FF1BC08091DA008E7F8093DA0080916B
:10460000D90080FF0DC080E189BD82E189BD09B478
:1046100000FEFDCF81E080939F020E94251F05C010
:1046200019BC10929F020E94331F8091E10080FF0D
:1046300019C08091E20080FF15C08091E2008E7F5A
:104640008093E2008091E20080618093E20080919B
:10465000D80080628093D80019BC85E080939F02C7
:104660000E94371F8091E10084FF30C08091E200FA
:1046700084FF2CC080E189BD82E189BD09B400FEC0
:10468000FDCF8091D8008F7D8093D8008091E1008C
:104690008F7E8093E1008091E2008F7E8093E20024
:1046A0008091E20081608093E20080919B028823E8
:1046B00011F084E007C08091E30087FD02C081E033
:1046C00001C083E080939F020E94381F8091E10027
:1046D00083FF29C08091E20083FF25C08091E10023
:1046E000877F8093E10082E080939F0210929B027B
:1046F0008091E1008E7F8093E1008091E2008E7FC7
:104700008093E2008091E20080618093E20042E0C9
:1047100060E080E00E94D0218091F000886080936A
:10472000F0000E94361FFF91EF91BF91AF919F91D2
:104730008F917F916F915F914F913F912F910F904A
:104740000FBE0F901F9018951F920F920FB60F92E9
:1047500011242F933F934F935F936F937F938F9386
:104760009F93AF93BF93CF93DF93EF93FF93C0914A
:10477000E900CF708091EC00D82FD17080FDD0E897
:104780001092E9008091F000877F8093F000789488
:104790000E94E8231092E9008091F00088608093E5
:1047A000F000CD2BCF70C093E900FF91EF91DF9126
:1047B000CF91BF91AF919F918F917F916F915F91B9
:1047C0004F913F912F910F900FBE0F901F90189512
:1047D0001F93CF93DF93CDB7DEB7AA970FB6F894A8
:1047E000DEBF0FBECDBFE0EAF2E08091F100819321
:1047F00022E0E83AF207C9F70E94441F8091E800DE
:1048000083FF2EC18091A0029091A102492F50E018
:104810004A30510508F024C1FA01E654FF4F0C94C8
:10482000BE25803821F0823809F01AC108C0809175
:104830009C0290919D02992389F082600FC0809123
:10484000A4028F70873008F00BC18093E90080913B
:10485000EB0085FB882780F91092E9009091E80031
:10486000977F9093E8008093F1001092F100D1C0FF
:10487000282F2D7F09F0F4C0882319F0823061F0D1
:10488000EFC08091A202813009F0EAC0933009F0B4
:1048900080E080939D022EC08091A20281112AC0E7
:1048A0008091A4028F702FEF280F263008F0D8C017
:1048B0008093E9002091EB0020FF1CC0933021F48D
:1048C0008091EB00806214C09091EB009061909316
:1048D000EB0021E030E0A90102C0440F551F8A958A
:1048E000E2F74093EA001092EA008091EB008860C2
:1048F0008093EB001092E9008091E800877F80931D
:10490000E8000E940522ACC08111AAC01091A20249
:104910001F778091E3008078812B8093E300809162
:10492000E800877F8093E8000E9405228091E800DC
:1049300080FFFCCF8091E30080688093E300111139
:1049400002C082E001C083E080939F0289C080584A
:10495000823008F085C08091A2029091A3028C3D24
:1049600053E0950779F583E08A838AE289834FB71C
:10497000F894DE01139620E03EE051E2E32FF0E0F0
:1049800050935700E49120FF03C0E295EF703F5F22
:10499000EF708E2F90E0EA3010F0C79601C0C096FD
:1049A0008D939D932F5F243149F74FBF8091E8008D
:1049B000877F8093E8006AE270E0CE0101960E9452
:1049C000112116C06091A4027091A502AE014F5F43
:1049D0005F4F0E944020BC01892B09F441C0909197
:1049E000E800977F9093E80089819A810E946F2167
:1049F0008091E8008B778093E80032C0803881F5A1
:104A00008091E800877F8093E80080919B028093EB
:104A1000F1008091E8008E7772CF811121C08091E2
:104A2000A2029091A30299270297D4F48091E80002
:104A3000877F8093E8008091A20280939B020E946E
:104A4000052280919B02811106C08091E30087FDC1
:104A500002C081E001C084E080939F020E943A1F5F
:104A60008091E80083FF0AC08091E800877F8093EF
:104A7000E8008091EB0080628093EB00AA960FB66D
:104A8000F894DEBF0FBECDBFDF91CF911F91089587
:104A90000895CF9380919F028823A1F0C091E900EF
:104AA000CF709091EC00892F817090FD80E8C82B29
:104AB0001092E9008091E80083FD0E94E823CF7006
:104AC000C093E900CF910895DB018F939F930E94DB
:104AD000D325BF91AF91A29F800D911DA39F900DF3
:104AE000B29F900D11240895AA1BBB1B51E107C072
:104AF000AA1FBB1FA617B70710F0A61BB70B881F6E
:104B0000991F5A95A9F780959095BC01CD010895FC
:104B100097FB072E16F4009407D077FD09D00E946A
:104B2000742507FC05D03EF4909581959F4F08951C
:104B3000709561957F4F0895A1E21A2EAA1BBB1BA9
:104B4000FD010DC0AA1FBB1FEE1FFF1FA217B30759
:104B5000E407F50720F0A21BB30BE40BF50B661F6F
:104B6000771F881F991F1A9469F760957095809533
:104B700090959B01AC01BD01CF010895EE0FFF1F81
:104B80000590F491E02D0994A29FB001B39FC0015C
:104B9000A39F700D811D1124911DB29F700D811D69
:104BA0001124911D08950E94C425A59F900DB49FC6
:104BB000900DA49F800D911D11240895F999FECFA9
:104BC00092BD81BDF89A992780B50895A8E1B0E01B
:104BD00042E050E00C941226262FF999FECF92BDA8
:104BE00081BDF89A019700B4021639F01FBA20BDB2
:104BF0000FB6F894FA9AF99A0FBE08950396272FE4
:104C00000E94ED250E94EC25252F0E94ED25242FE2
:104C10000C94ED250196272F0E94ED250C94EC2590
:104C2000DC01CB01FC01F999FECF06C0F2BDE1BD6C
:104C3000F89A319600B40D9241505040B8F708955B
:044C4000F894FFCF16
:104C44000626022808641E140A321E671EDE1EB3DE
:104C54001EAF1E9D1E01E200E900EA00B500B60089
:104C6400B700CD008301CC008A0192019401210296
:104C7400230224022502260227022A02B300B400DA
:104C84006F007000818283F0F1F4F5F6F767663601
:104C94003534979694953390919293E200E900EA23
:104CA40000B500B600B700CD008301CC008A0192A4
:104CB4000194012102230224022502260227022A4A
:104CC40002B300B4006F0070008182830102030408
:064CD400050607080900B7
:00000001FF
