:100000000C94A4020C94EB020C94EB020C94EB0203
:100010000C94EB020C94EB020C94EB020C94EB02AC
:100020000C94EB020C94EB020C94BE210C949022E5
:100030000C946F180C94EB020C94EB020C94EB02F2
:100040000C94EB020C94EB020C94EB020C94EB027C
:100050000C949B080C94D7180C94EB020C94EB02B4
:100060000C94EB020C94EB020C94EB020C94EB025C
:100070000C94EB020C94EB020C94EB020C94EB024C
:100080000C94EB020C94EB020C94EB020C94EB023C
:100090000C94EB020C94EB020C94EB020C94EB022C
:1000A0000C94EB020C94EB020C94EB02FC07FE07A1
:1000B0000308060809080C080F08FC0DFC0D2E0E9D
:1000C0002E0E7B0E9B0EFB0FFB0FDD0E7A0F8B0FA0
:1000D0008B0FEB0FFB0FFB0FF40F7D107D108F10BC
:1000E0008F1086108F108F108F107D107D108B1049
:1000F0008F108F108B103B1C311C491CA21CA91C9B
:10010000A91CA21CA91CA91C6A1CA91C741C7E1C6D
:10011000A91CA91CA91CA91CA21CA91CA91CA21CC5
:10012000A91C571CA91CA91C8E1C8E1C8E1C8E1C65
:100130008E1C8E1C8E1C8E1C8E1CA41CA91C3B1C91
:100140002E1CA91CA91CA91CA91CA91CA91CA91C02
:10015000A91CA91CA91CA41CA91CA91CA21CA91C83
:100160008C1C8C1C8C1C8C1C8C1C8C1C8C1C8C1C4F
:100170008C1CA41CFD222423162424231624702363
:1001800093231624E923F82329001E001F002000D2
:1001900021002200230024002500260027002D0036
:1001A0002E002A004A002B0014001A000800150037
:1001B00017001C0018000C00120013002F00300064
:1001C00031004B00390004001600070009000A0046
:1001D0000B000D000E000F00330034002A00280031
:1001E0004E00E1001D001B00060019000500110073
:1001F0001000360037003800E500000052004D00C6
:10020000E000E200E3002C00E1002C0000002C00E4
:100210000000E70001515000000051004F00350080
:100220003A003B003C003D003E003F0040004100E2
:1002300042004300440045000000A5002B001400CC
:100240001A000800150017001C0018000C0012000E
:1002500013002F00300031000000390004001600A8
:10026000070009000A000B000D000E000F0033000C
:100270003400000028000000E1001D001B00060003
:100280001900050011001000360037003800E500A5
:100290000000000000000251E200E3002C00E10039
:1002A0002C0000002C000000E7000000000000000F
:1002B0000000005C0000BE00BD0000000000BD5C4E
:1002C000BE5CBC00AE00BB00A800AA00A9000000F4
:1002D000000000000000000000000000000000001E
:1002E000000000000000000000000000000000000E
:1002F00000000000000000000000000000000000FE
:1003000000000000000000000000000000000000ED
:1003100000000000000000000000000000000000DD
:1003200000000000000000000000000000000000CD
:1003300000000000000000000000000000000000BD
:100340000000000000000000005C00000000000051
:10035000000000000001010203040506080A0C0F5A
:100360001114181C2024292E33393F464C535B624C
:100370006A7179818A929AA2AAB2B9C1C8CFD5DC32
:10038000E1E7EBF0F4F7FAFCFDFEFFFEFDFCFAF707
:10039000F4F0EBE7E1DCD5CFC8C1B9B2AAA29A92DA
:1003A0008A8179716A625B534C463F39332E292426
:1003B000201C1814110F0C0A080605040302010181
:1003C00000000000000000000000040330000000F6
:1003D00016034B0042004400360037002D004D004C
:1003E0004B0049004900000010034B00420044004C
:1003F000660061006E007300000004030904090236
:100400003B00020100A0FA09040000010301010001
:100410000921110100012240000705810308000A9B
:10042000090401000103000000092111010001225B
:10043000BC000705820320000A1201100100000021
:100440000803A1130001000102030105010902A133
:100450000185020901A100050919012905150025D9
:100460000195057501810295017503810105010959
:100470003009311581257F950275088106093815E7
:1004800081257F950175088106050C0A38021581C2
:10049000257F950175088106C0C005010980A1016D
:1004A000850319012AB700150126B70095017510BB
:1004B0008100C0050C0901A101850419012AA002CF
:1004C000150126A002950175108100C005010906DD
:1004D000A1018505050719E029E715002501950803
:1004E000750181020507190029EF1500250195F016
:1004F000750181020508190129059505750191020B
:10050000950175039101C005010906A101050719AF
:10051000E029E7150025019508750181029501750F
:100520000881010507190029FF150026FF0095061F
:1005300075088100050819012905950575019102C5
:10054000950175039101C00011241FBECFEFDAE0C1
:10055000DEBFCDBF04B603FE27C08091A2029091FA
:10056000A302A091A402B091A5028730904BA740AE
:10057000B04BD1F41092A2021092A3021092A402E6
:100580001092A50214BE84B7877F84BF0FB6F8947B
:10059000A89580916000886180936000109260004F
:1005A0000FBEE0E0F8E3099511E0A0E0B1E0E0E182
:1005B000FAE402C005900D92A439B107D9F722E000
:1005C000A4E9B1E001C01D92A23AB207E1F70E948E
:1005D000E71E0C9406250C94000081E0089581E04C
:1005E00008950C94EF021F93CF93DF9300D000D0B7
:1005F0001F92CDB7DEB749835A832091AF0189811D
:100600009A81211112C0662349F00E94A215182F69
:10061000682F89819A810E94471503C00E94761530
:10062000182F69817A81812F04C00E94A2156981E7
:100630007A810F900F900F900F900F90DF91CF91D4
:100640001F910C94B303FC0140815181628173813D
:1006500084810C94F3020E9416068FE39CE90197B3
:10066000F1F700C000000E94160680E00E94BD0560
:1006700080FF04C00E94D2160C94FD1808950E94B9
:100680002B030E94D816811102C00E9481170E947C
:100690000A090C94B8050C94BB0508950C944D03FD
:1006A00081E008950C945003CF93C82F0E944E030D
:1006B0008C2F0E945203CF91089508950E946D10CF
:1006C0000E945D032FEF84E39CE021508040904026
:1006D000E1F700C000000C94FD180F931F93CF9317
:1006E000DF93EC010E9423038C01BE010E94F10202
:1006F000882379F1BE01C8010E94ED07882349F1E2
:10070000BE01C8010E948D09882319F1BE01C801EC
:100710000E94CE098823E9F0BE01C8010E94F90AAF
:100720008823B9F08A81882369F001158CE51807C0
:1007300031F00E3D1C4531F40E9481170AC00E9421
:100740005E0307C0CE01DF91CF911F910F910C94F2
:10075000ED0280E0DF91CF911F910F91089580E02D
:1007600090E0089508959FE0799FF00111249BE4A3
:10077000899FE00DF11D1124E60FF11DEE0FFF1F03
:10078000E857FE4F859194910895880F991FFC01B9
:10079000E65BFC4F859194910895CF93DF930E947F
:1007A000B3030E94E004EC01811520E59207F0F507
:1007B000811530E4930708F0CDC0883E910500F51F
:1007C000803E910508F0F8C0883A910570F4853AAA
:1007D000910508F09FC08130910509F4EDC008F43F
:1007E000E9C0049708F0E8C0E5C08F3B910508F424
:1007F00099C0803C910508F4DDC0805C91099DC0E2
:10080000811540E2940758F4C11581E0D80708F03B
:10081000D3C0C03FD10508F4CDC0D065CDC081158F
:1008200020E3920708F08DC09F7087C0811535E5E1
:10083000930708F044C0811544E5940708F0A1C06F
:10084000C11582E5D80708F5C11521E5D20708F0E2
:1008500084C08C2F837021E030E002C0220F331F50
:100860008A95E2F73C68CE0174E0969587957A9573
:10087000E1F78370382BCF70C695C69580E2C89F8C
:10088000E0011124C22BD32B97C02C2F269526953F
:10089000CE0183709927C115D34508F063C040E2AB
:1008A000249F90011124C1E0D0E002C0CC0FDD1FD5
:1008B0008A95E2F72C2B3D2BE901DC687DC0811580
:1008C00049E59407A0F4C11588E5D80708F05EC093
:1008D000C11526E5D20708F06DC08C2F0E94740563
:1008E0008F71C82FD0E0DC2FCC27D06265C0811576
:1008F0003AE5930708F44FC090568115904208F0EE
:1009000059C08D2F8F710E947405DD27D0628F71C1
:10091000D82B52C0C55AD0E0CE5BDE4FC881D0E0A4
:10092000D0644AC0C85AD0E0CC0FDD1FCC5EDE4F89
:100930000990D881C02DD4643FC00E94C503EC014A
:100940003BC09927D3FF03C0EC01D86C35C0EC0144
:10095000D06C32C0DF70D06A2FC0DC2FCC27C16FC3
:10096000D06A2AC040E2249F90011124C1E0D0E067
:1009700002C0CC0FDD1F8A95E2F7C22BD32BDA68B9
:100980001BC0D82FCC27C46FD06A16C0DC2FCC2751
:10099000C06FD06A11C08F700E94740594E0D69524
:1009A000C7959A95E1F7CF70D0E0DC2FCC27D069BE
:1009B000C82B02C0C0E0D0E0CE01DF91CF910895F6
:1009C0008238910569F1B0F48133910509F46DC065
:1009D00048F48932910509F463C08A32910509F41B
:1009E00069C008958533910509F455C0893391058F
:1009F000B9F00895833E910569F138F4803E910580
:100A0000B1F0823E910509F10895863E9105A9F164
:100A1000873E9105B9F1843E910509F064C023C079
:100A20002091930220FD4FC021FD4DC0089580917B
:100A3000930280FD44C08091940280FF44C0809165
:100A4000930284FD42C083EE4DC08091930282FFE9
:100A500038C0F5CF8091930282FD33C0809194021B
:100A600080FD31C0ECCF8091940281FF32C0809133
:100A7000930284FD2AC087EE35C08091930283FFE4
:100A800026C0F5CF8091930283FD21C0809194020E
:100A900081FD1FC0ECCF8091930285FD1CC01DC05D
:100AA0008091930285FD19C016C08091930286FD46
:100AB00016C017C08091930286FD13C010C089E351
:100AC00011C082EE0FC080EE0DC080E00BC086EE3C
:100AD00009C084EE07C089E205C085E303C08AE24D
:100AE00001C081E390E008959091930292FF0DC0C0
:100AF000282F2871283019F4877F846006C0282F9A
:100B00002471243011F48B7F886093FF0DC0282F4F
:100B10002871283119F4877E846106C0282F24713A
:100B2000243111F48B7E88612091940220FF0DC046
:100B3000382F3871383019F4877F816006C0382F1C
:100B40003171313011F48E7F886021FF0DC0282F64
:100B50002871283119F4877E816106C0282F217100
:100B6000213111F48E7E886194FD877E0895089569
:100B70000C94B70508950C94BA05E82FF0E0EE0F39
:100B8000FF1FEE57FD4F808191810895089580EAFF
:100B90008A95F1F70895A4E5B1E041E050E025E041
:100BA0002A0F8D91E82FE295EF70F0E031A18F7060
:100BB000BA0102C0660F771F8A95E2F7CB01962F24
:100BC0009095932391A392A1892B82A32A13E9CF15
:100BD000A5E4B1E041E050E02FE02A0F8D91E82F2D
:100BE000E295EF70F0E031A18F70BA0102C0660F9C
:100BF000771F8A95E2F7CB01962F9095932391A3C7
:100C000092A1892B82A32A13E9CFE8E7F2E0A2E8B8
:100C1000B2E0119211921D921D9272E0E238F70734
:100C2000C1F785E00E94AB060C943F034F925F92A0
:100C30006F927F928F929F92AF92BF92CF92DF92EC
:100C4000EF92FF920F931F93CF93DF9384E5A82E2B
:100C500081E0B82E08E712E0D12C88248394912CEF
:100C60003801D8014D905C9011971D921C92F501AE
:100C700081915F01C82FC295CF70D0E099A18F708C
:100C8000740101C0EE0C8A95EAF7892F8E2989A399
:100C90008AA1CE2CC0948C218AA30E94C705E5E4CA
:100CA000F1E080E090E06191A62FA295AF70B0E0F6
:100CB00090964C91D8012D913C9150E06F7002C0FC
:100CC000559547956A95E2F740FD08C0A401082EA6
:100CD00002C0440F551F0A94E2F702C040E050E002
:100CE000242B352BD8012D933C9301968F30910501
:100CF000D1F689A1C822C9A28AA1E82AEAA20E5F78
:100D00001F4F81E0F301208131814216530609F41F
:100D100080E0D82AF2E002381F0709F0A1CF2D2D7C
:100D200045E062E872E088E792E00E94AC060E942B
:100D30004B038D2DDF91CF911F910F91FF90EF907D
:100D4000DF90CF90BF90AF909F908F907F906F90EB
:100D50005F904F9008950895FF920F931F93CF9344
:100D6000DF93F82E092F162FD72FC42F222349F0F7
:100D700081E0809396010E94A11890939501809341
:100D80009401809196018823D9F0809194019091EB
:100D900095010E94AD18069798F0EF2DF02FA12F26
:100DA000BD2F80E090E04C2F50E08417950734F47D
:100DB000219131912D933D930196F7CF1092960199
:100DC000DF91CF911F910F91FF90089580918C0238
:100DD000869586958695089580918C0281FD07C041
:100DE000826080938C020E940D170C9486080895EF
:100DF00080918C0281FF07C08D7F80938C020E94BE
:100E00000D170C949208089580918C0281FD0C942A
:100E1000F8060C94EC0680918C02869581700895FA
:100E20008091000108950E94D816811102C00E948D
:100E300081170E94091780938C02282F26952695EA
:100E4000269530E02430310524F087708861809346
:100E50008C0280918C0280FF04C0869586958695D1
:100E600001C080E00C94550820918C02822F869559
:100E700086958695482F50E04330510554F48F5F96
:100E8000982F990F990F990F822F8770892B809334
:100E90008C0280918C02816080938C020E940D17DD
:100EA00080918C028695869586950C945508809144
:100EB0008C02982F969596959695A1F0915E990F34
:100EC000990F990F8770892B80938C02887F91E00E
:100ED00009F490E080918C0290FB80F980938C0261
:100EE0000E940D1780918C028695869586950C94AC
:100EF000550880918C0280FD13C0816080938C0224
:100F0000813019F489E080938C0280918C020E94D8
:100F10000D1780918C028695869586950C945508C0
:100F2000089580918C0280FF08C08E7F80938C0290
:100F30000E940D1780E00C945508089580918C0252
:100F400080FD0C9491070C94790790918C02892F65
:100F50008695869586958F5F8F719770843038F46B
:100F6000880F880F880F892B80938C0202C0909382
:100F70008C0280918C02887F91E009F490E080914E
:100F80008C0290FB80F980938C020E940D17809157
:100F90008C028695869586950C945508843008F0C9
:100FA00083E090918C029770282F220F220F220F3E
:100FB000922B90938C02987F21E009F420E090918D
:100FC0008C0220FB90F990938C020C9455080E949F
:100FD000CE0780918C020C940D17FC01DB01129658
:100FE0008C918823F9F0EB5BFC45E730F105D8F4F0
:100FF000EA5AFF4F0C94A42483E001C080E00E94D1
:10100000E70780E008950E945707FBCF0E9434074E
:10101000F8CF0E949E07F5CF0E94A507F2CF0E944D
:101020000407EFCF81E00895279A2F9808952F980D
:101030000895CF92DF92EF92FF928C3724E19207CE
:1010400028F469E070E00E945A2429C0A0E0B0E0D2
:101050008A50974DAF4FBF4F6627782F892F9A2F11
:1010600025EF38E241E050E00E94822469017A01D4
:10107000CA01B9010E944A249B01AC01C701B60113
:101080000E944A24BB27A92F982F872F009721E081
:10109000A207B10511F0BC0102C06FEF7FEFCB01D9
:1010A000FF90EF90DF90CF900895CF93DF931F9242
:1010B000CDB7DEB7843060F481110BC09091800011
:1010C000977F9093800089830E941708898106C0CA
:1010D00083E090918000986090938000282F30E00A
:1010E000AFEFBFEF0E94AA2423E030E040E050E0E1
:1010F0000E948224C9010E94190890938D00809358
:101100008C000F90DF91CF9108950895109298016F
:101110001092970110929901EFE6F0E080818160D2
:1011200080830895EFE6F0E080818E7F80830E94C7
:10113000E6060C9455081F920F920FB60F921124D9
:101140002F933F934F935F936F937F938F939F93CF
:10115000AF93BF93CF93EF93FF930E9410074091FB
:101160009701509198014F5F5F4F94EF899F9001D5
:101170001124CA01B9010E945A24909398018093C6
:101180009701B901660F672F661F770B71950E9453
:101190005A246F7780919901823019F4603451F4A8
:1011A00004C0813039F46F3729F480916F008E7F4D
:1011B00080936F00E62FF0E0E65BFC4FC4910E9445
:1011C000E606282F41E051E0C49FC001C59F900D65
:1011D000112463E070E00E945A24269FC001279FDB
:1011E000900D11240E94190890938D0080938C001B
:1011F000FF91EF91CF91BF91AF919F918F917F918F
:101200006F915F914F913F912F910F900FBE0F9073
:101210001F9018950E9414088AE08093800089E14D
:10122000809381008FEF9FEF9093870080938600DB
:101230000E9413070E940B0781110C9486080895E1
:101240000F931F93CF93DF93C62FD42F022FFC0150
:1012500082818823C9F060939C010E94A118909319
:101260009B0180939A0180E28C0F883008F050C077
:10127000C77081E001C0880FCA95EAF7DF91CF916E
:101280001F910F910C94BC0D10919C01161330C04E
:1012900080919A0190919B010E94AD18883C910524
:1012A00038F5C0E2CD0F1D17B9F080E2810F88300C
:1012B00040F4177081E001C0880F1A95EAF70E9488
:1012C000C30DC83048F481E09D2F977001C0880F8E
:1012D0009A95EAF70E94BC0D802F0E94A90DC83094
:1012E000B8F4D77081E001C0880FDA95EAF70AC038
:1012F00080E28C0F883060F4C77081E001C0880FF5
:10130000CA95EAF7DF91CF911F910F910C94C30D0D
:10131000DF91CF911F910F9108959C01CB01233F45
:101320004CE53407F9F078F4283DFCE53F07B9F0C7
:10133000293D4CE5340711F1273D3C4531F526E2C6
:1013400041EE61EE1EC0253FFCE53F0799F070F0CD
:10135000263F3C45D1F427E245EE66EE12C027E277
:1013600045EE0EC026E241EE60EE0BC027E245EEF0
:1013700064EE07C026E241EE62EE03C028E241E0DF
:1013800065EE0E94200980E00895FC018281882397
:1013900019F010929C01089581E00895CF93DF9396
:1013A000EC01FB018281882309F41FC1C230FCE5F6
:1013B000DF0708F41BC1C6319CE5D90738F09E0150
:1013C0002A5F3C452930310508F010C10E94EB1618
:1013D0009093940280939302C031ECE5DE0709F408
:1013E000C3C008F041C0C8308CE5D80709F49AC0E2
:1013F000F0F4C430ECE5DE0709F487C068F4C230CD
:101400008CE5D80709F477C0C330DC4509F0E3C0A8
:1014100080919302826076C0C630ECE5DE0709F465
:101420006EC008F07BC08091930288606BC0CC30A6
:101430008CE5D80709F485C068F4CA30ECE5DE070E
:1014400009F474C008F079C00E946D108091930275
:10145000806858C0CE308CE5D80709F476C008F013
:101460007FC0809193028BC0CB3FECE5DE0709F48F
:101470004FC018F5C3318CE5D80709F47DC078F466
:10148000C131ECE5DE0709F473C0C231DC4509F077
:10149000A2C00E946D10809193028F7733C0C53136
:1014A0008CE5D80709F472C008F486C0CA3FDC4551
:1014B00009F091C0809194023EC0CF3FFCE5DF0768
:1014C00009F45FC058F4CD3F9CE5D90709F444C046
:1014D00008F43FC08091940282602DC0C130FDE5C8
:1014E000DF0709F475C008F45DC0C230DD4509F0BE
:1014F00072C080E06EC080919302816003C08091D1
:10150000930280618093930266C08091930211C020
:10151000809194028260809394025DC080919302D6
:101520008062F0CF809193028064ECCF809193022F
:1015300088608460E7CF8160EECF809193028E7FD8
:10154000E1CF809193028D7FDDCF80919302877FE1
:10155000D9CF8091940218C0809194028D7FDBCF07
:10156000809193028F7ECECF809193028F7DCACFE0
:10157000809193028F7BC6CF80919302877F8B7F70
:10158000C1CF809194028D7F8E7FC5CF80919302D1
:1015900082FB222720F991E0922790FB82F990FBB1
:1015A00083F9B0CF80919402982F909591708E7F9F
:1015B000892B90FB81F9AFCF0E946D10809193022F
:1015C00087FB222720F991E0922790FB87F99ACF99
:1015D00081E00E94831780919302909194020E946F
:1015E000FC160E946D1080E001C081E0DF91CF9178
:1015F0000895CF93DF9386319C4541F5EB010E941E
:101600002216282F8A8140910101509102018823DE
:1016100079F02A7A91E009F490E090939D0191117C
:1016200002C069E201C065E3CA010E94ED170AC069
:1016300080919D01811102C069E201C065E3CA0188
:101640000E94F8170E946E1680E001C081E0DF91D1
:10165000CF9108959093A3018093A2010895E09102
:10166000A201F091A301309721F00190F081E02DCB
:10167000099480E00895E091A201F091A3013097D0
:1016800099F020911301222359F02091930227FF12
:1016900007C0DC012C9111962C93119725E02C9317
:1016A0000280F381E02D09940895E091A201F09168
:1016B000A301309739F022E0DC012C930480F581FE
:1016C000E02D099408952091A0013091A101821785
:1016D000930771F09093A1018093A001E091A20182
:1016E000F091A301309721F00680F781E02D099455
:1016F000089520919E0130919F018217930771F008
:1017000090939F0180939E01E091A201F091A3012B
:10171000309721F00084F185E02D0994089585B774
:10172000806885BF85B7806885BF0895089508954E
:101730000C94970B08950C949A0B0E948F0B0E94A7
:10174000960B0C94980B81E008950E9498180E94C3
:10175000CB050E9421190E9413070C949B0B7F92CA
:101760008F929F92AF92BF92CF92DF92EF92FF92B1
:101770000F931F93CF93DF93CDB7DEB72A970FB6A2
:10178000F894DEBF0FBECDBF0E9416060E94A30BC9
:10179000811111C08FEF89838A831B820E94A11857
:1017A0008160782F9D838C8349815A816B818D81E3
:1017B0000E94610C4FC035EA832E31E0932E00E089
:1017C00010E0702E802F0E94BD056C01F401A190E5
:1017D000B1904F01A826B926A114B10431F40F5FCE
:1017E0001F4F0530110569F7D5CF8091470281FD64
:1017F0000E94C60590E0EE24E394F12C97012A2183
:101800003B21232B09F19E837F82CE20DF2091E0B4
:10181000CD2809F490E098870E94A1188160782F64
:101820009A8789874E815F8168858A850E94610CCD
:10183000000F111FF801EB55FE4F80819181E826C2
:10184000F926F182E08206C09F5FEE0CFF1C9F30FC
:10185000A9F6C5CF0E9485080E94B31A1091A40171
:101860000E942F0B1817C9F00E942F0B8093A40120
:101870002A960FB6F894DEBF0FBECDBFDF91CF9191
:101880001F910F91FF90EF90DF90CF90BF90AF909E
:101890009F908F907F900C9454032A960FB6F894E3
:1018A000DEBF0FBECDBFDF91CF911F910F91FF9093
:1018B000EF90DF90CF90BF90AF909F908F907F90F0
:1018C0000895CF93DF93CDB7DEB72B970FB6F8947B
:1018D000DEBF0FBECDBF4F83588769877A878B875E
:1018E000DE01119686E0FD0111928A95E9F785E007
:1018F000FE01379601900D928A95E1F749815A8150
:101900006B817C818D819E810E9417132B960FB66F
:10191000F894DEBF0FBECDBFDF91CF910895FC01DB
:10192000808191810E94E3150895CF93DF931F92E8
:10193000CDB7DEB7882309F4A0C0682F8238C1F480
:101940000E942F0B81FD99C069E380910101909164
:1019500002010E94ED170E946E162FEF81EE94E0B7
:10196000215080409040E1F700C0000069E319C0B9
:10197000833811F50E942F0B80FD7FC063E58091B5
:101980000101909102010E94ED170E946E162FEF47
:1019900081EE94E0215080409040E1F700C00000CB
:1019A00063E580910101909102010E94F8170F9068
:1019B000DF91CF910C946E168438C1F40E942F0BE6
:1019C00082FD5BC067E480910101909102010E9459
:1019D000ED170E946E162FEF81EE94E021508040AB
:1019E0009040E1F700C0000067E4DBCF8CEF860F8A
:1019F000813A70F4862F69830E94BC1C6981811131
:101A00003CC080910101909102010E94ED17CFCF5F
:101A100080E2860F883048F4677081E001C0880F4B
:101A20006A95EAF70E942516C2CFEBE5E60FE33090
:101A300050F4F0E0E957FE4F808190E00F90DF9185
:101A4000CF910C94630BE8E5E60FE73160F4F0E02A
:101A5000EE0FFF1FE75AFE4F808191810F90DF91BB
:101A6000CF910C94790B603F40F0862F0E94BB19F8
:101A70000F90DF91CF910C94A81A0F90DF91CF9126
:101A80000895882309F464C0823879F40E942F0BEA
:101A900081FF5EC069E380910101909102010E9483
:101AA000ED170E946E1669E310C08338B1F40E94EE
:101AB0002F0B80FF4DC063E58091010190910201E1
:101AC0000E94ED170E946E1663E5809101019091CE
:101AD00002010E94F8170C946E16843879F40E9463
:101AE0002F0B82FF35C067E48091010190910201C4
:101AF0000E94ED170E946E1667E4E7CF9CEF980FE7
:101B0000913A10F4682FE1CF90E2980F983050F49A
:101B1000877091E001C0990F8A95EAF7892F0E949A
:101B20002B16D9CF9BE5980F933020F480E090E0FE
:101B30000C94630B98E5980F973120F480E090E0C7
:101B40000C94790B803F20F00E94231A0C94A81A61
:101B50000895CF93C82F0E94950CC93349F42FEFF5
:101B600087EE93E0215080409040E1F700C00000F4
:101B70008C2FCF910C94410D882321F00E942516C3
:101B80000C946E160895882321F00E942B160C9455
:101B90006E160895BF92CF92DF92EF92FF920F934D
:101BA0001F93CF93DF937C01062FC72FFC01158174
:101BB00012951F70D281D1110E9442160E941B16ED
:101BC000882379F0DD2369F080E2800F883048F0C7
:101BD00082E00E94B9160E941B1691E0B82EB92629
:101BE00001C0B12CCC2EC2948FE0C822D12CF601BA
:101BF000E35AFF4F0C94A4248C2F807FCF7088234E
:101C000011F0C295C07FDD2399F0CC2309F4CEC139
:101C100080E2800F883010F0011104C08C2F0E94E8
:101C2000251603C08C2F0E9435160E946E16BEC169
:101C3000802F0E94410DCC2309F4DDC180E2800F8A
:101C4000883010F0011104C08C2F0E942B1603C0A5
:101C50008C2F0E943B160E946E16CDC18C2F807F68
:101C6000CF70803211F0C295C07F002319F001308F
:101C7000C9F022C0DD2371F0112341F0113031F49D
:101C80000E9455168C2B0E945B16B5C10E945516FA
:101C90008C2B1DC0112319F0113009F4ACC10E9426
:101CA000641625C0DD2321F0163008F0A4C10EC053
:101CB000153008F0A0C11BC0DD2361F0112331F005
:101CC000F701858180FF72C18F7085838C2F0E9400
:101CD000BC0D91C1112359F0093309F078C1FFEF10
:101CE00027EE83E0F15020408040E1F76EC18C2F59
:101CF0000E94C30D80C18C2F86958695837090E0DD
:101D0000009719F0019761F076C1DD2321F0802F53
:101D10009C2F937002C080E090E00E94630B76C11C
:101D2000DD2321F0802F9C2F937002C080E090E093
:101D30000E94790B6BC1DD23F9F0053F51F0063F9E
:101D400071F0043FA9F480918D0290918E02816020
:101D50000BC080918D0290918E02826005C08091AF
:101D60008D0290918E02846090938E0280938D02FA
:101D7000802F0E94BB191EC0053F51F0063F71F035
:101D8000043FA9F480918D0290918E028E7F0BC04A
:101D900080918D0290918E028D7F05C080918D0281
:101DA00090918E028B7F90938E0280938D02802F74
:101DB0000E94231A0E94A81A29C18C2F837009F04F
:101DC00049C0D1111FC1402F429546954770440F1D
:101DD000440F602F6F70862F90E0A0E0B0E0042EDB
:101DE00004C0880F991FAA1FBB1F0A94D2F704FFD3
:101DF00010C00FE010E020E030E004C0000F111F21
:101E0000221F331F4A95D2F70095109520953095E3
:101E100003C000E010E09801C695C695C370D0E0FD
:101E2000BC01CD01602B712B822B932BC230D105CD
:101E300059F0C330D10559F0219719F00E945C1474
:101E4000E1C00E944A14DEC00E946E14DBC00E94F2
:101E50004814D8C0DD2319F08C2F817001C08695FD
:101E6000882309F4CFC0402F429546954770440F10
:101E7000440F602F6F70862F90E0A0E0B0E0042E3A
:101E800004C0880F991FAA1FBB1F0A94D2F704FF32
:101E900010C00FE010E020E030E004C0000F111F80
:101EA000221F331F4A95D2F7009510952095309543
:101EB00003C000E010E09801C695C695C370D0E05D
:101EC000BC01CD01602B712B822B932BC230D1052D
:101ED00059F0C330D10559F0219719F00E9422150D
:101EE00091C00E9410158EC00E9434158BC00E94B4
:101EF000831488C0CF70DD2339F08C2F0E94A91481
:101F0000802F0E94BC0D7EC0802F0E94C30D8C2F9D
:101F10000E94CA1477C0023F01F128F4003F41F04B
:101F2000013FA1F03FC0033FF9F0043F39F13AC04F
:101F3000DD2341F0153008F05EC08C2F8F710E94B8
:101F4000EF1459C0163008F056C0F7CFDD2339F032
:101F50008C2F8F710E94A9144EC0DD23C9F38C2FE2
:101F60008F710E94CA1447C0DD2329F08C2F8F7116
:101F70000E94941440C00E948F143DC0DD2349F09C
:101F8000CF718C2F0E94A91463E08C2F0E94A4169D
:101F900032C081E00E94B916123068F182E00E94DE
:101FA000B91629C0DD2331F0112391F2802F0E9450
:101FB000950C21C0112399F2093349F49FEFE7EE04
:101FC000F3E09150E040F040E1F700C00000802FC6
:101FD0000E94410D10C04C2F4F70602FC7010E940E
:101FE000AF030E94BB1312C04C2F4F70602FC7016C
:101FF0000E94B2030BC028E0C21AD10884E0C816C0
:10200000D10420F40E942F0B0E945403BB20D1F076
:102010000E94171680FD16C0F70112820E94111649
:102020000E94A914C7010E942C100E941116DF9172
:10203000CF911F910F91FF90EF90DF90CF90BF90C5
:102040000C94CA14DF91CF911F910F91FF90EF90E4
:10205000DF90CF90BF9008950F931F93CF93DF939E
:10206000EC01888199812B813C81232BB9F09F3F22
:1020700011F48F3F99F0CE010E946D03882371F017
:10208000688179818A810E94EE158C010E94461533
:102090000E944714B801CE010E94CA0DDF91CF9172
:1020A0001F910F9108950E9442160E9452160E949D
:1020B0006E160E944E1B0E94A81A80E090E00E94BB
:1020C000630B80E090E00C94790B8091010190917A
:1020D00002010E9403180C9453100E9432160C94B3
:1020E0006510E92FE295EF70F0E03297EE30F105E0
:1020F000B0F4E359FF4F0C94A424803F91F018F4FE
:10210000883E68F40EC0843F51F40BC0883E48F00E
:10211000813F29F406C093FB882780F9089580E069
:10212000089581E008950E94E3150E9471100895BA
:10213000CF93DF9300D000D01F92CDB7DEB70F90C2
:102140000F900F900F900F90DF91CF910895CF9344
:10215000DF9300D000D000D0CDB7DEB726960FB603
:10216000F894DEBF0FBECDBFDF91CF9108951F93CE
:10217000CF93DF93C091B00116E08091B101C817F1
:1021800099F0D0E01C9FF0011D9FF00D1124EE543A
:10219000FE4F4081518162817381848195810E94CB
:1021A000A7102196C770E9CFDF91CF911F910895B5
:1021B0004091E2015091E3016091E4017091E501E9
:1021C0008091E6019091E7010C94A7108091E701BE
:1021D00082958F7009F054C08091E401882309F43E
:1021E0004FC08091B001A091B1016091E201709166
:1021F000E3014091E5015091E601B6E08A1709F448
:102200003FC090E041155105C1F17F3F11F46F3F90
:10221000A1F1B89FF001B99FF00D1124EE54FE4FCB
:10222000218172132AC02081621327C022812111CB
:1022300024C0238134812417350710F4215031093B
:10224000241B350B283C3105C0F42091E7012F7089
:1022500020612093E70126E0289FF001299FF00DDF
:102260001124E954FE4F80818F708061808382EE5B
:1022700091E00E942C100C94B71001968770BECF8D
:102280000895CF92DF92EF92FF920F931F93CF9317
:10229000DF93CDB7DEB762970FB6F894DEBF0FBEFF
:1022A000CDBF8C0185E0F801DE011D9601900D92F5
:1022B0008A95E1F7D8014C9111965C91119712968D
:1022C0006C9112971396CD90DC9014973091E201A7
:1022D0007091E3018091E5019091E601009709F486
:1022E0006BC17F3F19F43F3F09F466C1E090E40100
:1022F000EE2009F4C0C02091E701C816D90628F0E5
:10230000F601E81BF90BCF0104C0809590958C0D68
:102310009D1DFF24F394883C910578F0F12C207FDB
:1023200009F0C6C07C2DD98AC88A89890E94981074
:1023300082EE91E00E942C10B1C0822F807F09F0C4
:1023400046C0751314C0341312C0611110C02F7031
:1023500020612093E7010E94D81082EE91E00E9454
:102360002C108091E701D80115968C932EC0CD28B2
:1023700019F15F3F11F44F3FF9F0F62E61111CC0C7
:102380008091B0012091B10136E0821709F45AC062
:1023900090E0389FF001399FF00D1124EE54FE4F6C
:1023A0007181571306C07081471303C07281711188
:1023B00003C001968770E9CFF62E662309F427C182
:1023C0008091E70181608093E701F12C20C17513B2
:1023D00008C0341306C0611104C08091E701D80120
:1023E000C3C04D875E878D859E856A8B0E94931042
:1023F0006A898823E1F16623D1F12091E701822FD8
:1024000082958F7090E0029774F08091E201909134
:10241000E30198878F831986DB86CA862C87CE01D5
:1024200007960E942C1086E0F801A2EEB1E0019020
:102430000D928A95E1F70E94E6100E94D810FF24C1
:10244000F394E5C04D875E878D859E850E94E315D8
:10245000292F22952F7030E0223031050CF0CBC0AF
:102460009F7009F0C5C0805E883008F4D0C0C801F4
:102470000E942C10E4CFC816D90608F453C0F60108
:10248000E81BF90BCF01883C910508F450C0F12CF2
:102490007C2DD98AC88A89890E949810E2EEF1E0E1
:1024A00086E0DF011D928A95E9F70E94D810AFC03F
:1024B000751314C0341312C0611110C08091E7016C
:1024C000F8018583C8010E942C1086E0E2EEF1E05D
:1024D000DF011D928A95E9F7FE2C99C04D875E8732
:1024E0008D859E856A8B0E9493106A89882309F4E2
:1024F000BECF662309F4BBCF2091E701822F8295DE
:102500008F7090E002970CF48ECF8091E201909151
:10251000E3019A8389831B82DD82CC822E83CE01E4
:1025200001967FCF809590958C0D9D1DACCFF62E9A
:10253000662309F49CCF75132EC034132CC0209150
:10254000E70120FD1FC0822F82958F70D9F0D8013E
:1025500015962C9315978F3049F08F5F982F929591
:10256000907F822F8F70892B15968C93C8010E94C3
:102570002C1086E0F801A2EEB1E001900D928A9550
:10258000E1F793CF86E0F801A2EEB1E001900D9261
:102590008A95E1F73CC04D875E878D859E850E94B8
:1025A0009310811140CF8091E70181608093E70112
:1025B000C8010E942C102BC0662309F458CF4D8708
:1025C0005E878D859E850E949310F82E882309F4DE
:1025D0004ECF86E0F801A2EEB1E001900D928A950F
:1025E000E1F782EE91E00E948F0C0E94E6105DCF31
:1025F000811139CF0CC0243031050CF038CF9F70D9
:1026000009F431CFF8019581907F09F02CCF8F2DFF
:1026100062960FB6F894DEBF0FBECDBFDF91CF91AB
:102620001F910F91FF90EF90DF90CF9008951F932F
:10263000CF93DF93CDB7DEB72C970FB6F894DEBFFC
:102640000FBECDBF4F83588769877A878B879C875A
:10265000CE0107960E944111882369F08F819885E9
:102660002A853B85232BF1F19F3F09F063C08F3F03
:1026700009F060C037C086E0FE013796DE01119692
:1026800001900D928A95E1F76F817885EA85FB8547
:10269000309741F17F3F11F46F3F21F12091B1015B
:1026A00030E0C9010196877099274091B00150E050
:1026B0008417950709F447C069837A83FD83EC8307
:1026C00096E0929FD001939FB00D1124AE54BE4F5F
:1026D000FE01319601900D929A95E1F78093B10138
:1026E0000E94B71016E08091B0019091B101891756
:1026F000C1F1189FC00111248E549E4F0E944111B8
:10270000882379F1E091B0011E9FF0011124EE546D
:10271000FE4F4081518162817381848195810E9445
:10272000A7108091B00190E001968770992780935F
:10273000B001D9CF4F81588569857A858B859C8575
:102740000E94A710CFCF0E946D101092B10110927D
:10275000B001E2EEF1E086E0DF011D928A95E9F733
:10276000C1CF2C960FB6F894DEBF0FBECDBFDF9160
:10277000CF911F910895EF92FF920F931F93CF93E4
:10278000DF938C01892B09F46CC0F12CEE24E394C7
:10279000E8012196F8018491843740F4843008F0F0
:1027A00051C0813081F0823019F15BC0853709F466
:1027B00044C0A8F19CE7980F903708F052C08F777B
:1027C0000E94410D41C00E5F1F4FFE01C49180E287
:1027D0008C0F883048F4C7708E2D01C0880FCA95C1
:1027E000EAF70E94451614C08C2F0E94950C2DC04C
:1027F0000E5F1F4FFE01C49180E28C0F883058F4A9
:10280000C7708E2D01C0880FCA95EAF70E944B163B
:102810000E946E161AC08C2F0E94410D16C00E5FCA
:102820001F4FFE01C491CC2381F08FE99FE00197F7
:10283000F1F700C00000C150F6CF0E5F1F4FFE0140
:10284000F49003C00E94950C8E018F2D882309F40B
:102850009FCFEFE9FFE03197F1F700C00000815012
:10286000F5CFDF91CF911F910F91FF90EF900895D9
:1028700008950C9438140E94391460931E027093CA
:102880001F0280932002909321020C94531008950C
:102890000C943B140F931F9300911E0210911F0282
:1028A0002091200230912102602B712B822B932BDF
:1028B0001F910F910C943B140F931F9300911E02D4
:1028C00010911F0220912002309121026023712378
:1028D000822393231F910F910C943B140F931F930A
:1028E00000911E0210911F022091200230912102BE
:1028F00060277127822793271F910F910C943B1417
:1029000008950C9480140E94811460931A027093AD
:102910001B0280931C0290931D020C94531060E0E4
:1029200070E0CB010C9483140F931F9341E050E0AF
:1029300060E070E08A019B0104C0000F111F221F9C
:10294000331F8A95D2F7C901B8011F910F910C94DA
:1029500083140F931F9341E050E060E070E004C0E7
:10296000440F551F661F771F8A95D2F780911A0270
:1029700090911B02A0911C02B0911D028A019B0143
:10298000082B192B2A2B3B2BC901B8011F910F9142
:102990000C9483140F931F9341E050E060E070E0CB
:1029A00004C0440F551F661F771F8A95D2F74095C4
:1029B00050956095709580911A0290911B02A0919C
:1029C0001C02B0911D028A019B01082319232A23AE
:1029D0003B23C901B8011F910F910C9483140F93ED
:1029E0001F9341E050E060E070E004C0440F551FC9
:1029F000661F771F8A95D2F780911A0290911B0269
:102A0000A0911C02B0911D028A019B010827192781
:102A10002A273B27C901B8011F910F910C948314F9
:102A20000F931F9300911A0210911B0220911C0218
:102A300030911D02602B712B822B932B1F910F91D4
:102A40000C9483140F931F9300911A0210911B0290
:102A500020911C0230911D02602371238223932355
:102A60001F910F910C9483140F931F9300911A02DE
:102A700010911B0220911C0230911D0260277127CA
:102A8000822793271F910F910C94831408952FE0B0
:102A9000929F800D1124A82FA695A695A6958770C4
:102AA00051E001C0550F8A95EAF785E0A89FD00153
:102AB000112420E030E070E0F901EA0FFB1FE8513B
:102AC000FE4F4081CB01022E02C0969587950A9455
:102AD000E2F7817099278195842785238427808355
:102AE0002F5F3F4F2530310539F708952FE0929F32
:102AF000800D1124682F669566956695982F9770BE
:102B000085E0689FB001112440E050E080E0FA01C8
:102B1000E60FF71FE851FE4F208130E0092E02C07A
:102B2000369527950A94E2F721703327042E01C0C9
:102B3000220F0A94EAF7822B4F5F5F4F4530510511
:102B400031F70895BF92CF92DF92EF92FF920F93E9
:102B50001F93CF93DF938C01C0901E02D0901F0271
:102B6000E0902002F090210280911A0290911B02C5
:102B7000A0911C02B0911D02C82AD92AEA2AFB2A78
:102B8000CFE1D0E0D701C6010C2E04C0B695A795C1
:102B9000979587950A94D2F780FF07C0BC2EB8019D
:102BA0008C2F0E94CD03019719F4219758F7B12C6F
:102BB0008B2DDF91CF911F910F91FF90EF90DF90C0
:102BC000CF90BF900895CF93DF93EC010E94A215A0
:102BD000BE010E94CD03DF91CF9108951F93CF9343
:102BE000DF93EB019091AF01992321F0CB010E947B
:102BF000E31513C0882349F0CB010E94A215182FBA
:102C0000682FCE010E94471504C0CB010E947615A3
:102C1000182FBE01812F0E94CD03DF91CF911F910C
:102C200008958091220285958595859508958091D6
:102C300022028770089590912202977081E009F432
:102C400080E0089580914602089590914602892B74
:102C5000809346020895809590914602892380933F
:102C60004602089510924602089590914502892BDC
:102C70008093450208958095909145028923809321
:102C80004502089510924502089590914402892BBF
:102C90008093440208958095909144028923809303
:102CA00044020895109244020895809123020895E9
:102CB00008950C94581690912302981721F0809350
:102CC00023020C945916089580912302882329F039
:102CD0001092230280E00C9459160895E0910101AE
:102CE000F0910201809146028083E0910101F09110
:102CF0000201908180914502892B8083E09101013E
:102D0000F0910201908180914402892B808380910F
:102D10002302882381F0E0910101F091020190816A
:102D2000892B808380910101909102010E94881774
:102D300081110E94641680910101909102010C940E
:102D40003B0B08950C94A11698E0899F90011124E3
:102D5000262B209322020E94A9148091220285959D
:102D6000859585950C94A2161092220280E00C9411
:102D7000A216209122028095822380932202982F0E
:102D8000977079F430E0482F082E000C550B24176B
:102D9000350739F08595859585950E94CA140C9460
:102DA000B41608956FEF7FEF80E090E00C94F0246C
:102DB00080E090E00E94CC2421E08C3E9E4F09F000
:102DC00020E0822F089582E090E00C94C42483E0F8
:102DD00090E00C94C424CF9384E090E00E94C4243B
:102DE000C82F81E290E00E94C4242C2F30E0A9017A
:102DF000582BCA01CF910895CF93C92F682F84E033
:102E000090E00E94D2246C2F81E290E0CF910C944C
:102E1000D22486E090E00C94C424682F86E090E0F1
:102E20000C94D224AB01BC018FE090E00C94E4241C
:102E3000AB01BC0183E190E00C94E42460E070E01D
:102E4000CB010C94181760E070E0CB010E941217C0
:102E50000C941E176CEE7EEF80E090E00E94F02450
:102E600060E082E090E00E94D22460E083E090E0A5
:102E70000E94D22410921E0210921F021092200271
:102E80001092210260E084E090E00E94D22460E091
:102E900081E290E00E94D22460E085E090E00E9410
:102EA000D22460E086E090E00E94D2246FEF87E0B9
:102EB00090E00E94D22440E050E0BA0188E090E027
:102EC0000E94E42460E08DE090E00E94D22440E083
:102ED00050E0BA0188E190E00E94E42460E087E1DC
:102EE00090E00E94D22440E050E0BA018CE190E0F2
:102EF0000E94E42460E080E290E00E94D2240C94DE
:102F000023170C942A17682F8EE090E00C94D2249B
:102F1000FC01329680911301882331F08091930255
:102F200087FF02C09EE101C096E080E0915028F04A
:102F300021912223D9F38F5FF9CF08959C01FC01E1
:102F400032969FEF80E04191461789F09F3F19F438
:102F5000411101C0982F8F5F8630A9F79F3F39F04C
:102F6000F901E90FF11D97FDFA956283089508951F
:102F7000FC01329608962081261301C010823196FA
:102F8000E817F907C1F70895262F26952695269567
:102F90002E3168F4FC01E20FF11D677021E030E092
:102FA00001C0220F6A95EAF78281282B22830895B7
:102FB000262F2695269526952E3170F4FC01E20FDA
:102FC000F11D677021E030E001C0220F6A95EAF739
:102FD00020958281282322830895209113012223A2
:102FE00029F02091930227FD0C94C4170C949E178E
:102FF00020911301222329F02091930227FD0C94A4
:10300000D8170C94B81720911301FC013296222393
:1030100031F08091930287FF02C08EE101C086E00B
:10302000DF011D928A95E9F7089508950C9415180B
:103030000E94161880919902843061F11092480222
:1030400020E488E190E00FB6F894A89580936000A2
:103050000FBE2093600080E00E94550880E00E942F
:1030600054030E94161883B7817F846083BF83B79F
:10307000816083BF7894889583B78E7F83BF0FB6B6
:10308000F894A89580916000886180936000109208
:1030900060000FBE089508950895CF930E944B18C5
:1030A0000E9416060E944C18C0E08C2F0E94BD059D
:1030B000892B29F4CF5FC530C1F780E001C081E0E2
:1030C000CF91089508950C9462180E946D100E948B
:1030D00013070E942F0B0E9454030C9463181F9235
:1030E0000F920FB60F9211248F939F93AF93BF93BC
:1030F00080914802811113C080918F0290919002BB
:10310000A0919102B09192024196A11DB11D8093B0
:103110008F0290939002A0939102B0939202BF917C
:10312000AF919F918F910F900FBE0F901F901895A8
:1031300082E084BD93E095BD9AEF97BD80936E00C9
:1031400008952FB7F89480918F0290919002A091EA
:103150009102B09192022FBF0895CF92DF92EF9229
:10316000FF920F931F932FB7F89440918F025091C5
:10317000900260919102709192022FBF6A017B01CF
:10318000EE24FF248C0120E030E0C016D106E206D8
:10319000F30610F4415051099A01281B390BC9015B
:1031A0001F910F91FF90EF90DF90CF90089578944A
:1031B0001F920F920FB60F9211248F939F93AF938C
:1031C000BF9380918F0290919002A0919102B09153
:1031D00092020196A11DB11D80938F0290939002DF
:1031E000A0939102B0939202BF91AF919F918F9162
:1031F0000F900FBE0F901F90189581E08093E00014
:1032000080E28093D8001092C9008FE19EE401977C
:10321000F1F700C0000087E090EBDC018093A20290
:103220009093A302A093A402B093A5029CE088E12E
:103230000FB6F894A895809360000FBE909360003D
:10324000FFCF0E94D816811102C00E9481170E94F0
:10325000E316809347020E94EB16909394028093AA
:1032600093020E94E716682F70E080E090E00C94D3
:10327000481480914C0280FF0BC06091060185E0EC
:10328000689FB001112475956795759567952BC05A
:1032900081FF09C06091060185E0689FB00111249B
:1032A0007595679520C082FF07C06091060185E093
:1032B000689FB001112417C090914B029923D1F05F
:1032C00060910501961788F72091060185E0289FF7
:1032D00090011124929FA001939F500D112470E042
:1032E000CA010E946E246038710540F461157105B1
:1032F00039F002C065E070E0862F08958FE70895E9
:1033000081E0089580914C0280FF08C06091040123
:1033100070E0759567957595679521C081FF06C02A
:103320006091040170E07595679519C082FF04C033
:103330006091040170E010C090914B029923C1F09C
:10334000609103019617A0F780910401899FC00145
:10335000112470E00E946E246038710528F4611514
:10336000710521F0862F08958FE7089581E0089573
:1033700061E070E0F4CF803F21F40E94391981951B
:1033800004C0813F29F40E943919809350020895A6
:10339000823F21F40E943919819504C0833F29F4AA
:1033A0000E94391980934F020895893F19F40E94B1
:1033B000821905C08A3F31F40E9482198195809359
:1033C000510208958B3F21F40E948219819504C017
:1033D0008C3F29F40E948219809352020895843F01
:1033E00021F480914E02816017C0853F21F48091C5
:1033F0004E02826011C0863F21F480914E028460AB
:103400000BC0873F21F480914E02886005C0883F41
:1034100031F480914E02806180934E0208958D3F79
:1034200021F480914C0281600BC08E3F21F4809189
:103430004C02826005C08F3F29F480914C02846069
:1034400080934C020895803F39F48091500287FFA9
:103450006CC01092500269C0813F29F480915002E3
:103460001816BCF362C090914F02823F29F497FF77
:103470005CC010924F0259C0833F19F41916CCF367
:1034800054C0893F41F48091510218160CF04DC090
:10349000109251024AC08A3F29F48091510287FF5D
:1034A00044C0F6CF8B3F39F48091520287FF3DC074
:1034B000109252023AC08C3F29F4809152021816A1
:1034C000BCF333C0843F21F480914E028E7F17C03D
:1034D000853F21F480914E028D7F11C0863F21F4FB
:1034E00080914E028B7F0BC0873F21F480914E026A
:1034F000877F05C0883F31F480914E028F7E809394
:103500004E0213C08D3F21F480914C028E7F0BC080
:103510008E3F21F480914C028D7F05C08F3F29F4AE
:1035200080914C028B7F80934C0280914F028111DD
:103530000EC08091500281110AC080915102811108
:1035400006C080915202811102C010924B02089570
:103550008DE492E00E94550B0E94A11890934A02BC
:103560008093490208951F93CF93DF93809149027E
:1035700090914A020E94AD18AC0190914B029923A0
:1035800021F02091070130E006C0209108018AE077
:10359000289F900111244217530708F47BC08091A3
:1035A0004F02C0915002D0915102109152028111EC
:1035B00007C0C1116BC0D11169C0111167C06AC0C9
:1035C0009F3F19F09F5F90934B02181624F40E94BE
:1035D000391980934F0280914F0287FF05C00E94E6
:1035E0003919819580934F021C1624F40E943919D1
:1035F000809350028091500287FF05C00E943919C4
:1036000081958093500230914F023323E1F0209155
:1036100050022223C1F045EB3403C0011124892F4D
:10362000990F990B009709F481E080934F0235EBD5
:103630002303C0011124892F990F990B009709F4D6
:1036400081E0809350021D1624F40E948219809319
:1036500051028091510287FF05C00E948219819515
:1036600080935102111624F40E9482198093520211
:103670008091520287FF05C00E9482198195809334
:103680005202DF91CF911F910C94A81A9F3F09F02D
:1036900099CFA1CFDF91CF911F910895EDE4F2E092
:1036A00086E0DF011D928A95E9F710924B02109295
:1036B0004C020895833081F128F4813059F0823032
:1036C000D1F00895853009F449C0B8F1863009F485
:1036D00056C0089580910801262F30E0280F311D33
:1036E0002F3F310524F4680F6093080108958FEF90
:1036F00080930801089580910701262F30E0280F5C
:10370000311D2F3F310524F4680F609307010895A0
:103710008FEF80930701089580910601262F30E0F6
:10372000280F311D2F3F310524F4680F60930601E7
:1037300008958FEF80930601089580910501262F4B
:1037400030E0280F311D2F3F310524F4680F6093BE
:10375000050108958FEF809305010895809104017C
:10376000262F30E0280F311D2F3F310524F4680F3C
:103770006093040108958FEF809304010895809170
:103780000301262F30E0280F311D2F3F310524F48F
:10379000680F6093030108958FEF809303010895EC
:1037A000833011F128F4813049F0823091F008958E
:1037B000853081F120F18630C1F1089580910801B2
:1037C000681720F4861B8093080108951092080161
:1037D000089580910701681720F4861B80930701E4
:1037E000089510920701089580910601681720F44A
:1037F000861B80930601089510920601089580911A
:103800000501681720F4861B809305010895109226
:103810000501089580910401681720F4861B8093A8
:10382000040108951092040108958091030168171E
:1038300020F4861B809303010895109203010895DC
:103840000F931F93482F50E0FA013597EF33F1059E
:1038500008F07FC0E558FF4F0C94A4240E94811704
:1038600071C080914702817F8E7F8093470281E003
:10387000809354026FC00E946D100FEF13ED20E390
:10388000015010402040E1F700C000000E94FD18E8
:1038900059C080914702982F9095917090FB80F9C4
:1038A0008093470291114EC0897F877F10C080911D
:1038B000470281FB222720F991E0922790FB81F9B2
:1038C000809347029923F1F18091470281608093B0
:1038D000470238C08091470282FB222720F991E0FD
:1038E000922790FB82F9ECCF8091470283FB22273D
:1038F00020F991E0922790FB83F9E2CF0E946D10AE
:103900008091930287FB222720F991E0922790FB78
:1039100087F98093930216C0895301C08D5141E00D
:1039200050E060E070E08A019B0104C0000F111FAD
:10393000221F331F8A95D2F7C901B8010E9448148B
:103940000E946D1081E006C061E070E080E090E0D0
:10395000F5CF80E01F910F91089580E0089580E0F9
:1039600008958E518A3030F4E82FF0E0E657FE4F8C
:103970008081089580E00895CF93C82F80915402EC
:10398000813051F018F0823099F17DC00E942216EA
:10399000823209F07AC004C00E942216823261F499
:1039A0008C2F0E94AD1C811104C08C2F0E94201C02
:1039B0001DC081E090E01AC08C2F0E94AF1C8111C5
:1039C00014C0C43179F048F4CB3079F0C03109F03B
:1039D00060C082E08093540208C0C93219F0C83335
:1039E00021F057C01092540254C081E0817053C03E
:1039F000C93289F118F5C43171F1B0F4C73009F05A
:103A000046C08EE18093080182E3809307018AE03B
:103A10008093060184E18093050188E0809304018E
:103A200088E28093030133C082EE8C0F863078F5F4
:103A30008C2F0E94B11C8093530229C0CE34E9F030
:103A400020F4CB3421F56AE013C0C13579F0C235DA
:103A5000F1F461E00DC080915302882319F01092B7
:103A6000530215C081E08093540215C061E006C086
:103A7000809153020E945A1B0AC06AE0809153024F
:103A80000E94D01B04C01092540280E004C081E068
:103A900002C080E0ABCFCF91089580917502089568
:103AA000CF93DF9300D01F92CDB7DEB790919902EC
:103AB000943019F589837B836A8382E08093E900DF
:103AC0008FEF9091E800815095FD06C095ED9A9595
:103AD000F1F700008111F5CF8091E80085FF0DC05E
:103AE00040E050E063E070E0CE0101960E94AE1F1E
:103AF0008091E8008E778093E8000F900F900F90F0
:103B0000DF91CF910895CF93DF93EC010E94911F35
:103B1000823011F0843031F4BE0184E0DF91CF9126
:103B20000C94501DDF91CF910895BC0183E00C945B
:103B3000501DCF93DF93EC010E94911F823011F052
:103B40008430F9F482E08093E9009FEF8091E800EF
:103B5000915085FD06C085ED8A95F1F70000911121
:103B6000F5CF8091E80085FF0CC040E050E066E0B2
:103B700070E0CE010E94AE1F8091E8008E778093A6
:103B8000E800DF91CF910895CF93DF93EC010E947D
:103B9000911F823011F08430D9F580911301882370
:103BA00039F08091930287FF03C060E282E002C097
:103BB00068E081E08093E9008FEF9091E800815008
:103BC00095FD06C095ED9A95F1F700008111F5CFAE
:103BD0008091E80085FF1CC080911301811105C010
:103BE00040E050E068E070E003C070E040E050E08A
:103BF000CE010E94AE1F8091E8008E778093E8008E
:103C000080E2FE01A5E5B2E001900D928A95E1F710
:103C1000DF91CF91089580919802811109C00E948F
:103C200043210E94A0218091E20084608093E20001
:103C30000895109298020895089508950C946518B7
:103C400042E061EC81E00E94BD2042E261EC82E052
:103C50000C94BD2080919B02833009F460C030F445
:103C6000813071F0823009F499C008958A3009F4E6
:103C700085C08B3009F46BC0893009F0A7C020C023
:103C800080919A02813A09F0A1C08091E800877F73
:103C90008093E80080919E0290919F02892B21F4ED
:103CA00060E285E592E003C060E080E090E070E0D3
:103CB0000E94F91F8091E8008B778093E8000895B7
:103CC00080919A02813209F081C080919E02909188
:103CD0009F02029708F07AC08091E800877F809366
:103CE000E8008091E80082FD05C080919902811171
:103CF000F8CF6CC02091F3008091F20090E0922BFD
:103D0000029729F48091F1008B7F813021F480911A
:103D1000F100809375028091E8008B7753C0809109
:103D20009A02813A09F052C080919E0290919F02BE
:103D3000892B09F04BC08091E800877F8093E800D1
:103D40008091E80080FFFCCF8091130136C0809104
:103D50009A028132D9F580919E0290919F02892B1F
:103D6000A9F58091E800877F8093E8000E94F22007
:103D700080919C02809313010C946D1080919A02A3
:103D8000813221F58091E800877F8093E8000E94CE
:103D9000F22080919D0280937602089580919A028C
:103DA000813AA1F48091E800877F8093E8008091B8
:103DB000E80080FFFCCF809176028093F100809133
:103DC000E8008E778093E8000C94F220089584B781
:103DD000877F84BF0FB6F894A895809160008861B2
:103DE00080936000109260000FBE90E080E80FB6F4
:103DF000F89480936100909361000FBE0E949D0B28
:103E00000E9443210E94A0218091E200846080935F
:103E1000E20078940E942F240E94A50B89E091E093
:103E20000E942A0B80919902853069F40E9418182B
:103E3000809197028823B1F30E944D18882391F353
:103E40000E94981FEFCF0E94AF0BECCF0C94281F5D
:103E5000292F332723303105C9F064F4213031058F
:103E600081F02230310509F04CC08BE390E02EEF59
:103E700033E04BC02132310521F12232310589F185
:103E800040C082E190E029E334E03FC099278130CF
:103E9000910571F02CF4892BA1F5EAEFF3E00DC048
:103EA0008230910541F0039761F5EAECF3E005C03B
:103EB000E8EEF3E002C0E0EDF3E0849190E09F01D2
:103EC00024C06115710541F061307105D1F489E0BC
:103ED00090E029E234E019C089E090E020E134E08C
:103EE00014C06115710541F06130710551F48CEB1E
:103EF00090E02BE434E009C080E490E027E035E076
:103F000004C080E090E020E030E0FA0131832083BB
:103F1000089580919902843011F081E0089582E043
:103F2000089580917702811102C00C94891F089531
:103F300080E189BD82E189BD09B400FEFDCF809199
:103F4000D8008F7D8093D8008091E00082608093BC
:103F5000E0008091E00081FDFCCF0895CF92DF92D8
:103F6000EF92FF920F931F93CF93DF93EC018B019E
:103F70006A010E941121811133C0C114D10439F0AA
:103F8000F60180819181081B190BC80FD91FE12C04
:103F9000F12C0115110519F18091E80085FD16C07D
:103FA0008091E8008E778093E800C114D10449F035
:103FB000F60180819181E80EF91EF182E08285E0B0
:103FC0000FC00E941121882321F30AC08991809398
:103FD000F10001501109FFEFEF1AFF0ADACF80E07C
:103FE000DF91CF911F910F91FF90EF90DF90CF90D5
:103FF00008952091A0023091A1022617370748F0BA
:104000006115710539F42091E8002E772093E800BE
:1040100001C0B90140E061157105A9F12091990233
:10402000222309F443C0253009F442C02091E8005E
:1040300023FD40C02091E80022FD32C02091E8001D
:1040400020FFE9CF4091F3002091F20030E0342BC3
:10405000FC01CF016115710559F02830310540F49C
:1040600081918093F100615071092F5F3F4FF1CF33
:1040700041E02830310509F040E02091E8002E773A
:104080002093E800C8CF4111C9CF0AC0809199029E
:10409000882361F0853061F08091E80083FD0AC0DB
:1040A0008091E80082FFF2CF80E0089582E00895D9
:1040B00083E0089581E008952091A0023091A1024B
:1040C0002617370748F06115710539F42091E8008B
:1040D0002E772093E80001C0B901FC0120E06115B2
:1040E000710591F180919902882309F440C08530CF
:1040F00009F43FC08091E80083FD3DC08091E80055
:1041000082FD2FC08091E80080FFE9CF2091F3006D
:104110008091F20090E0922B6115710559F0883082
:10412000910540F424912093F1003196615071097A
:104130000196F2CF21E0089709F020E08091E80095
:104140008E778093E800CBCF2111CCCF0AC080912D
:104150009902882361F0853061F08091E80083FD49
:104160000AC08091E80082FFF2CF80E0089582E0EB
:10417000089583E0089581E00895982F973058F5C9
:104180009093E900981739F07091EC002091ED00C0
:104190005091F00003C0242F762F50E021FF19C06A
:1041A0003091EB003E7F3093EB003091ED003D7F8E
:1041B0003093ED003091EB0031603093EB00709361
:1041C000EC002093ED005093F0002091EE0027FFCB
:1041D00007C09F5FD3CF8F708093E90081E008957F
:1041E00080E0089580919A0287FF11C08091E800D5
:1041F00082FD05C0809199028111F8CF11C0809194
:10420000E8008B770BC080919902882349F0809158
:10421000E80080FFF8CF8091E8008E778093E80077
:1042200008952091E4003091E50095E64091EC007E
:10423000842F817040FF22C08091E80080FD1CC067
:1042400080919902882391F0853091F08091EB0064
:1042500085FD10C04091E4005091E50042175307DE
:1042600029F39A01915011F784E0089582E00895AE
:1042700083E0089581E0089580E008954091E8008A
:1042800042FFDECF08950E94B1210E94B921E0EEE5
:10429000F0E0808181608083E8EDF0E080818F77BD
:1042A000808319BCA7EDB0E08C918E7F8C938081C8
:1042B0008F7E80831092980208950F931F93CF935F
:1042C000DF930E94B1210E94B921C8EDD0E088811E
:1042D0008F77888388818068888388818F7D8883B1
:1042E00019BC1092990210929502109297021092A6
:1042F000960200EE10E0F80180818B7F8083888138
:104300008160888342E060E080E00E94BD20E1EEB1
:10431000F0E080818E7F8083E2EEF0E0808181603A
:104320008083808188608083F80180818E7F808394
:10433000888180618883DF91CF911F910F910895CB
:10434000E8EDF0E080818F7E8083E7EDF0E0808112
:104350008160808384E082BF81E0809398020C9426
:104360005D21E8EDF0E080818E7F80831092E20095
:1043700008951092DA001092E10008951F920F92B2
:104380000FB60F9211242F933F934F935F936F9328
:104390007F938F939F93AF93BF93EF93FF938091FE
:1043A000E10082FF0BC08091E20082FF07C0809194
:1043B000E1008B7F8093E1000E942E248091DA003F
:1043C00080FF1FC08091D80080FF1BC08091DA0061
:1043D0008E7F8093DA008091D90080FF0DC080E14C
:1043E00089BD82E189BD09B400FEFDCF81E08093E3
:1043F00099020E940B1E05C019BC109299020E94DE
:10440000191E8091E10080FF19C08091E20080FFB9
:1044100015C08091E2008E7F8093E2008091E200DF
:1044200080618093E2008091D80080628093D80000
:1044300019BC85E0809399020E941D1E8091E100C5
:1044400084FF30C08091E20084FF2CC080E189BDF0
:1044500082E189BD09B400FEFDCF8091D8008F7D37
:104460008093D8008091E1008F7E8093E10080915D
:10447000E2008F7E8093E2008091E2008160809371
:10448000E20080919502882311F084E007C08091BA
:10449000E30087FD02C081E001C083E080939902C0
:1044A0000E941E1E8091E10083FF29C08091E200DE
:1044B00083FF25C08091E100877F8093E10082E047
:1044C00080939902109295028091E1008E7F8093F3
:1044D000E1008091E2008E7F8093E2008091E20013
:1044E00080618093E20042E060E080E00E94BD20B5
:1044F0008091F00088608093F0000E941C1EFF9164
:10450000EF91BF91AF919F918F917F916F915F914B
:104510004F913F912F910F900FBE0F901F901895C4
:104520001F920F920FB60F9211242F933F934F9328
:104530005F936F937F938F939F93AF93BF93CF932B
:10454000DF93EF93FF93C091E900CF708091EC006F
:10455000D82FD17080FDD0E81092E9008091F00052
:10456000877F8093F00078940E94D4221092E90013
:104570008091F00088608093F000CD2BCF70C093C5
:10458000E900FF91EF91DF91CF91BF91AF919F91A2
:104590008F917F916F915F914F913F912F910F90EC
:1045A0000FBE0F901F9018951F93CF93DF93CDB739
:1045B000DEB7AA970FB6F894DEBF0FBECDBFEAE90B
:1045C000F2E088E08E0F9091F10091938E13FBCF73
:1045D0000E942A1E8091E80083FF28C180919A02E0
:1045E00090919B02492F50E04A30510508F01EC1BE
:1045F000FA01E654FF4F0C94A424803821F082384D
:1046000009F014C108C080919602909197029923F5
:1046100089F082600FC080919E028F70873008F011
:1046200005C18093E9008091EB0085FB882780F924
:104630001092E9009091E800977F9093E8008093B2
:10464000F1001092F100D0C0282F2D7F09F0EEC0AC
:10465000882319F0823061F0E9C080919C0281309A
:1046600009F0E4C0933009F080E0809397022EC0F7
:1046700080919C0281112AC080919E028F702FEF41
:10468000280F263008F0D2C08093E9002091EB007B
:1046900020FF1CC0933021F48091EB00806214C095
:1046A0009091EB0090619093EB0021E030E0A90144
:1046B00002C0440F551F8A95E2F74093EA0010921A
:1046C000EA008091EB0088608093EB001092E90093
:1046D0008091E800877F8093E8000E94F220A6C0C6
:1046E0008111A4C010919C021F778091E300807813
:1046F000812B8093E3008091E800877F8093E8001E
:104700000E94F2208091E80080FFFCCF8091E300BE
:1047100080688093E300111102C082E001C083E051
:104720008093990283C08058823008F07FC08091C6
:104730009C0290919D028C3D53E0950779F583E0B2
:104740008A838AE289834FB7F894DE01139620E0CA
:104750003EE051E2E32FF0E050935700E49120FF58
:1047600003C0E295EF703F5FEF708E2F90E0EA306C
:1047700010F0C79601C0C0968D939D932F5F243192
:1047800049F74FBF8091E800877F8093E8006AE295
:1047900070E0CE0101960E94F91F15C060919E0243
:1047A00070919F02AE014F5F5F4F0E94261FBC01B8
:1047B000892BE1F19091E800977F9093E80089813F
:1047C0009A810E945C208091E8008B778093E800BA
:1047D0002DC0803859F58091E800877F8093E800EC
:1047E000809195028093F1008091E8008E7773CFDD
:1047F00081111CC090919C029230C0F48091E8001D
:10480000877F8093E800909395020E94F220809128
:104810009502811106C08091E30087FD02C081E00E
:1048200001C084E0809399020E94201E8091E800DC
:1048300083FF0AC08091E800877F8093E800809121
:10484000EB0080628093EB00AA960FB6F894DEBF6F
:104850000FBECDBFDF91CF911F9108950895CF93E3
:10486000809199028823A1F0C091E900CF709091C6
:10487000EC00892F817090FD80E8C82B1092E90030
:104880008091E80083FD0E94D422CF70C093E9009C
:10489000CF910895DB018F939F930E94B924BF911C
:1048A000AF91A29F800D911DA39F900DB29F900D7F
:1048B00011240895AA1BBB1B51E107C0AA1FBB1FEF
:1048C000A617B70710F0A61BB70B881F991F5A959C
:1048D000A9F780959095BC01CD01089597FB072E0F
:1048E00016F4009407D077FD09D00E945A2407FCE3
:1048F00005D03EF4909581959F4F089570956195F0
:104900007F4F0895A1E21A2EAA1BBB1BFD010DC00B
:10491000AA1FBB1FEE1FFF1FA217B307E407F5076F
:1049200020F0A21BB30BE40BF50B661F771F881F4B
:10493000991F1A9469F760957095809590959B01E1
:10494000AC01BD01CF010895EE0FFF1F0590F4915A
:10495000E02D0994A29FB001B39FC001A39F700DE9
:10496000811D1124911DB29F700D811D1124911D77
:1049700008950E94AA24A59F900DB49F900DA49F16
:10498000800D911D11240895F999FECF92BD81BD2E
:10499000F89A992780B50895A8E1B0E042E050E088
:1049A0000C94F824262FF999FECF92BD81BDF89A78
:1049B000019700B4021639F01FBA20BD0FB6F89463
:1049C000FA9AF99A0FBE08950396272F0E94D324CE
:1049D0000E94D224252F0E94D324242F0C94D32468
:1049E0000196272F0E94D3240C94D224DC01CB0102
:1049F000FC01F999FECF06C0F2BDE1BDF89A3196EF
:104A000000B40D9241505040B8F70895F894FFCF8C
:104A10000624022808140A321E4D1DC41D991D9536
:104A20001D831D01E200E900EA00B500B600B700F1
:104A3000CD008301CC008A0192019401210223025E
:104A400024022502260227022A02B300B4006F00C6
:104A50007000818283F0F1F4F5F6F767663635343D
:104A6000979694953390919293E200E900EA00B50D
:104A700000B600B700CD008301CC008A01920194FA
:104A8000012102230224022502260227022A02B360
:104A900000B4006F007000818283010203040506E8
:044AA00007080900FA
:00000001FF
