:100000000C9450030C9497030C9497030C9497034F
:100010000C9497030C9497030C9497030C949703F8
:100020000C9497030C9497030C94D82A0C94AA2B45
:100030000C941C210C9497030C9497030C94970335
:100040000C9497030C9497030C9497030C949703C8
:100050000C948A100C9469210C9497030C949703C8
:100060000C9497030C9497030C9497030C949703A8
:100070000C9497030C9497030C9497030C94970398
:100080000C9497030C9497030C9497030C94970388
:100090000C9497030C9497030C9497030C94970378
:1000A0000C9497030C9497030C949703820E850E7F
:1000B0008D0E920E970E9C0EA10EA60EAB0EB00EDC
:1000C000B50EBA0EBC0EBF0EC20EC50EC80ECB0EBC
:1000D000CD0ED20EF20FF40FF90FFC0FFF0F02102E
:1000E00005103C163C166E166E16BB16D916311846
:1000F00031181B17B017C117C11721183118311843
:100100002A18C618C618D818D818CF18D818D8184A
:10011000D818C618C618D418D818D818D4187C25DA
:1001200072257F25C725CB25CB25C725CB25CB25FC
:10013000A025CB25AA25B425CB25CB25CB25CB25A2
:10014000C725CB25CB25C725CB258D25CB25CB2575
:10015000C425C425C425C425C425C425C425C42557
:10016000C425C925CB257C256F25CB25CB25CB25C3
:10017000CB25CB25CB25CB25CB25CB25CB25C92501
:10018000CB25CB25C725CB25C225C225C225C22517
:10019000C225C225C225C225C225C925172C3E2C41
:1001A000362D3E2C362D8A2CAD2C362D042D132DBC
:1001B00029003A003C003E00400042004400460056
:1001C000480000003B003D003F0041004300450067
:1001D0004700000035001F002100230025002700F4
:1001E0002E0049004B001E002000220024002600A3
:1001F0002D002A004A0000002B001A0015001C00E8
:100200000C00130030004C004E00140008001700D2
:10021000180012002F0031004D00000039001600B8
:1002200009000B000E0033002A000000000004004B
:1002300007000A000D000F00340028000000000035
:10024000E1001D000600050010003700E500000079
:100250000000E1001B001900110036003800E50025
:1002600052000000E000E30000002C000000E70066
:10027000E30050004F00E20000000000000000001A
:10028000E200E0005100000032190A00047F3F1F25
:10029000643214643214783C1E1E140A052223258D
:1002A0002628292A2C2D2F3032333536383A3B3D3B
:1002B0003E4042434547494A4C4E50515355575989
:1002C0005A5C5E6062646668696B6D6F71737577A6
:1002D000797B7D7F81838587898A8C8E90929496A5
:1002E000989A9C9E9FA1A3A5A7A8AAACAEAFB1B3B4
:1002F000B4B6B8B9BBBCBEBFC1C2C3C5C6C7C9CA04
:10030000CBCCCDCED0D1D2D2D3D4D5D6D7D7D8D9C5
:10031000D9DADADBDBDBDCDCDCDCDCDDDDDDDDDC23
:10032000DCDCDCDCDBDBDBDADAD9D9D8D7D7D6D535
:10033000D4D3D2D2D1D0CECDCCCBCAC9C7C6C5C3F7
:10034000C2C1BFBEBCBBB9B8B6B4B3B1AFAEACAA44
:10035000A8A7A5A3A19F9E9C9A98969492908E8CF4
:100360008A89878583817F7D7B79777573716F6DCE
:100370006B6968666462605E5C5A595755535150A8
:100380004E4C4A4947454342403E3D3B3A3836355C
:100390003332302F2D2C2A292826252322FFAA7F0D
:1003A00055400000000000000000000000010102B4
:1003B00003040506080A0C0F1114181C2024292E0A
:1003C00033393F464C535B626A7179818A929AA2B3
:1003D000AAB2B9C1C8CFD5DCE1E7EBF0F4F7FAFC7B
:1003E000FDFEFFFEFDFCFAF7F4F0EBE7E1DCD5CF14
:1003F000C8C1B9B2AAA29A928A8179716A625B5322
:100400004C463F39332E2924201C1814110F0C0A96
:1004100008060504030201010000000000000000BE
:1004200000000001010101010101010102020202BB
:10043000020202020203030303030303030404048E
:100440000404040405050505050606060606070757
:1004500007070708080808090909090A0A0A0B0B0F
:100460000B0C0C0C0D0D0D0E0E0E0F0F0F101011AE
:100470001111121213131414151516161717181834
:1004800019191A1A1B1B1C1D1D1E1E1F202021229C
:1004900022232424252626272829292A2B2C2D2DE2
:1004A0002E2F30313232333435363738393A3B3CFF
:1004B0003D3E3F404142434445464748494A4C4DF2
:1004C0004E4F50515354555658595A5B5D5E5F61BB
:1004D0006264656668696B6C6D6F7072737577784E
:1004E0007A7B7D7E8082838587888A8C8E8F9193AC
:1004F0009596989A9C9EA0A2A3A5A7A9ABADAFB1D3
:10050000B3B5B7BABCBEC0C2C4C6C9CBCDCFD1D4B7
:10051000D6D8DBDDDFE2E4E7E9EBEEF0F3F5F8FA5D
:10052000FDFF04033000000016034B0042004400AE
:10053000380058002D004D004B00490049000000D4
:1005400010034B0042004400660061006E0073001F
:1005500000000403090409023B00020100A0FA099B
:1005600004000001030101000921110100012240E2
:10057000000705810308000A0904010001030000C7
:100580000009211101000122BC000705820320009F
:100590000A120110010000000803A105000100017A
:1005A00002030105010902A10185020901A100055B
:1005B0000919012905150025019505750181029587
:1005C00001750381010501093009311581257F95E8
:1005D000027508810609381581257F950175088106
:1005E00006050C0A38021581257F950175088106DC
:1005F000C0C005010980A101850319012AB70015B2
:100600000126B700950175108100C0050C0901A1F4
:1006100001850419012AA002150126A00295017581
:10062000108100C005010906A1018505050719E033
:1006300029E71500250195087501810205071900B4
:1006400029EF1500250195F07501810205081901B2
:100650002905950575019102950175039101C00564
:10066000010906A101050719E029E71500250195F3
:100670000875018102950175088101050719002996
:10068000FF150026FF009506750881000508190171
:100690002905950575019102950175039101C00029
:1006A00011241FBECFEFDAE0DEBFCDBF04B603FEDC
:1006B00027C08091DB039091DC03A091DD03B09112
:1006C000DE038730904BA740B04BD1F41092DB0390
:1006D0001092DC031092DD031092DE0314BE84B787
:1006E000877F84BF0FB6F894A895809160008861D9
:1006F00080936000109260000FBEE0E0F8E309957F
:1007000011E0A0E0B1E0E0EBFDE502C005900D9244
:10071000A83DB107D9F723E0A8EDB1E001C01D92D3
:10072000AB3DB207E1F70E9407280C94D62E0C943B
:100730000000229A6E9A0C948F0681FF02C0769870
:1007400001C0769A82FF02C02A9801C02A9A0C94AE
:10075000070481E0089581E008950C94AB030895A7
:100760000C94AF031F93CF93DF9300D000D01F9260
:10077000CDB7DEB749835A836B833091710289818B
:100780009A81311114C0662359F0222349F00E9446
:10079000FF1D182F682F89819A810E94A81D03C010
:1007A0000E94D31D182F69817A81812F04C00E9475
:1007B000FF1D69817A810F900F900F900F900F901D
:1007C000DF91CF911F910C947204FC01262F408180
:1007D00051816281738184810C94B203CF93DF9342
:1007E000EC0160E00E94E503BE01DF91CF910C9423
:1007F000B0030E94B5210E94371F811102C00E94E0
:10080000E01F0E94F9100C9499030C948D06089532
:1008100081E008950C940804CF93C82F0E949D0393
:100820008C2F0E940A04CF91089508950E94B41855
:100830000E9415042FEF84E39CE0215080409040FB
:10084000E1F700C000000C948F210F931F93CF930A
:10085000DF93EC0161E00E94E5038C01BE010E9480
:10086000AD038823A9F1BE01C8010E94E30F8823CC
:1008700079F1BE01C8010E94C211882349F1BE016D
:10088000C8010E940312882319F1BE01C8010E9409
:100890002E138823E9F0BE01C8010E946B0E882345
:1008A000B9F08A81882369F001158CE5180731F0C9
:1008B0000E3D1C4531F40E94E01F0AC00E94160440
:1008C00007C0CE01DF91CF911F910F910C94A90326
:1008D00080E0DF91CF911F910F91089580E090E02B
:1008E000089508952CE6829FC0011124FC0129E09F
:1008F000729FE00DF11D1124E60FF11DEE0FFF1F99
:10090000E055FE4F859194910895880F991FFC0141
:10091000E857FD4F859194910895CF93DF930E94FE
:1009200072040E94A505EC018115904508F041C0B4
:10093000C11580E4D80708F0D1C0C83ED10510F534
:10094000C03ED10508F0FDC0C83AD10578F4C53ADB
:10095000D10508F0A2C0C130D10509F4F2C008F4F5
:10096000EEC0C430D10508F0ECC0E9C0CF3BD105E2
:1009700008F49BC0C03CD10508F4E1C0CE01805C06
:1009800091099EC0C11590E2D90758F4C11521E024
:10099000D20708F0D6C0C03FD10508F4D0C0D0655A
:1009A000D0C0C11580E3D80708F08EC0CE019F707B
:1009B00087C0C11595E5D90708F043C0C11524E5E6
:1009C000D20708F0A2C0C11582E5D80708F5C11505
:1009D00091E5D90708F085C0CE0174E0969587951A
:1009E0007A95E1F783709C2F937021E030E002C08C
:1009F000220F331F9A95E2F73C68382BCF70C695CB
:100A0000C69580E2C89FE0011124C22BD32B99C068
:100A10009E01237033278C2F86958695C115D3456B
:100A200008F064C0C1E0D0E002C0CC0FDD1F2A9501
:100A3000E2F720E2829FC0011124C82BD92BDC6889
:100A400080C0C11529E5D207A0F4C11588E5D807F3
:100A500008F060C0C11596E5D90708F070C08C2F6A
:100A60000E9439068F71C82FD0E0DC2FCC27D062CE
:100A700068C0C1152AE5D20708F451C0CE019056CE
:100A80008115904208F05BC08D2F8F710E9439064E
:100A9000DD27D0628F71D82B54C0C55AD0E0C65A1A
:100AA000DE4FC881D0E0D0644CC0C85AD0E0CC0F33
:100AB000DD1FC45DDE4F0990D881C02DD46441C0D4
:100AC0000E948504EC013DC0CE019927D3FF03C0ED
:100AD000EC01D86C36C0EC01D06C33C0DF70D06A4A
:100AE00030C0DC2FCC27C16FD06A2BC0C1E0D0E072
:100AF00002C0CC0FDD1F2A95E2F720E2829FC001E1
:100B00001124C82BD92BDA681CC0DC2FCC27C46F6A
:100B1000D06A17C0DC2FCC27C06FD06A12C08C2FD0
:100B20008F700E94390694E0D695C7959A95E1F7A3
:100B3000CF70D0E0DC2FCC27D069C82B02C0C0E03A
:100B4000D0E0CE01DF91CF9108958238910569F10F
:100B5000B0F48133910509F46DC048F489329105F0
:100B600009F463C08A32910509F469C00895853398
:100B7000910509F455C089339105B9F00895833E74
:100B8000910569F138F4803E9105B1F0823E9105FE
:100B900009F10895863E9105A9F1873E9105B9F1C5
:100BA000843E910509F064C023C02091CC0320FD50
:100BB0004FC021FD4DC008958091CC0380FD44C0FD
:100BC0008091CD0380FF44C08091CC0384FD42C05E
:100BD00083EE4DC08091CC0382FF38C0F5CF809169
:100BE000CC0382FD33C08091CD0380FD31C0ECCFBA
:100BF0008091CD0381FF32C08091CC0384FD2AC057
:100C000087EE35C08091CC0383FF26C0F5CF80915D
:100C1000CC0383FD21C08091CD0381FD1FC0ECCFAB
:100C20008091CC0385FD1CC01DC08091CC0385FD47
:100C300019C016C08091CC0386FD16C017C08091E4
:100C4000CC0386FD13C010C089E311C082EE0FC033
:100C500080EE0DC080E00BC086EE09C084EE07C0B8
:100C600089E205C085E303C08AE201C081E390E028
:100C700008959091CC0392FF0DC0282F2871283041
:100C800019F4877F846006C0282F2471243011F462
:100C90008B7F886093FF0DC0282F2871283119F4AD
:100CA000877E846106C0282F2471243111F48B7E45
:100CB00088612091CD0320FF0DC0382F3871383066
:100CC00019F4877F816006C0382F3171313011F4FB
:100CD0008E7F886021FF0DC0282F2871283119F4DC
:100CE000877E816106C0282F2171213111F48E7E0B
:100CF000886194FD877E0895E82FF0E0EE0FFF1FD6
:100D0000E459FC4F808191810895089580EA8A9585
:100D1000F1F7089508950C948A060C948B060C94B0
:100D20008A06CF93DF93A6E6B1E042E751E061E0A7
:100D300070E08D91E82FE295EF70F0E021A18F70C7
:100D4000EB0102C0CC0FDD1F8A95E2F7CE019C2F8C
:100D50009095922391A392A1892B82A34A175B07B6
:100D600041F7ADE5B1E046E651E061E070E08D911C
:100D7000E82FE295EF70F0E021A18F70EB0102C047
:100D8000CC0FDD1F8A95E2F7CE019C2F9095922320
:100D900091A392A1892B82A34A175B0741F7E4E54F
:100DA000F3E0ACE6B3E08CE693E0119211921D9271
:100DB0001D928E179F07C9F78CE00E947007DF9184
:100DC000CF910C94F9036F927F928F929F92AF9282
:100DD000BF92CF92DF92EF92FF920F931F93CF9328
:100DE000DF9386E6C82E81E0D82E04E513E09CE66A
:100DF000A92E93E0B92E712C88248394912CF601AE
:100E000081916F01C82FC295CF70D0E099A18F70EA
:100E1000740101C0EE0C8A95EAF7892F8E2989A307
:100E20008AA16E2C609486218AA30E948606EDE535
:100E3000F1E040E050E020E030E06191A62FA29583
:100E4000AF70B0E090968C9190E06F7002C0959575
:100E500087956A95E2F780FD08C0C401042E02C0A0
:100E6000880F991F0A94E2F702C080E090E0282BD7
:100E7000392B4F5F5F4F49305105F9F689A1682240
:100E800069A28AA1E82AEAA2F80180819181281743
:100E9000390721F03183208381E001C080E0782A86
:100EA0000E5F1F4FA016B10609F0A9CF272D4CE009
:100EB0006CE673E084E593E00E9471070E940504EC
:100EC000872DDF91CF911F910F91FF90EF90DF90D1
:100ED000CF90BF90AF909F908F907F906F9008952C
:100EE0000895FF920F931F93CF93DF93F82E092F4E
:100EF000162FD72FC42F222349F081E08093DA01E7
:100F00000E944E219093D9018093D8018091DA01FB
:100F10008823D9F08091D8019091D9010E945A215B
:100F2000069798F0EF2DF02FA12FBD2F80E090E0D5
:100F30004C2F50E08417950734F4219131912D9373
:100F40003D930196F7CF1092DA01DF91CF911F9177
:100F50000F91FF900895EF92FF920F931F93CF93FD
:100F6000DF93F62E472FE82FF0E0711106C0EE5DFB
:100F7000FB4F6491762F862F72C0272F30E0EE5DF5
:100F8000FB4FE4910E2F10E056E0659FC001112445
:100F9000CFEFD0E0BE010E94942D5BEA5603C00162
:100FA000579F900D11248F0D911D8F0D911D982F1E
:100FB000990F890F7E01E21AF30AE09ED001E19EAB
:100FC000B00DF09EB00D1124489FA0011124452FB3
:100FD00055277E01E41AF50AE09EA001E19E500D1E
:100FE000F09E500D11247E01E81AF108E29EC00126
:100FF000E39E900DF29E900D1124892F9927C81B16
:10100000D90BC09FC001C19F900DD09F900D11249E
:101010006230710591F048F461157105E1F06130BD
:101020007105A9F48B2F752F19C06430710561F01B
:1010300038F06630710579F00AC0892F7B2F0EC019
:101040008E2F7B2FE52F0AC08E2F792F02C0852F80
:101050007E2FEB2F03C08B2F7E2FE92F6E2FDF917A
:10106000CF911F910F91FF90EF9008950895CF9326
:10107000DF93762FE901682F842F0E94AB077983D5
:1010800068838A83DF91CF910895493C08F048EC4A
:101090000C94370880918403282F269530E0211581
:1010A000310519F48170826005C02B32310524F0BE
:1010B000817084658093840380918703893C18F054
:1010C00088EC80938703089588E090E00C946F2E5D
:1010D000CF92DF92EF92FF926B017C010E944A084F
:1010E000B701A60188E090E0FF90EF90DF90CF90ED
:1010F0000C948D2EE4E8F3E083E0808311828FEF7F
:10110000828388EC838314826081718182819381E0
:101110000C9468088091840380FF02C0869508952E
:1011200080E0089580918803833018F48F5F809366
:101130008803609184037091850380918603909168
:1011400087030C94680880918803882319F08150E4
:101150008093880360918403709185038091860356
:10116000909187030C94680870E00C944B11609187
:1011700007018091840380FF0AC08091060123E06B
:10118000829FC001112487579C4F0C94B408809112
:10119000080190910901891780F7E82FF0E09F017D
:1011A000220F331FE20FF31FE757FC4F118210820B
:1011B00012828F5FF0CF9091840390FF16C09091C0
:1011C000080120910901921770F4E92FF0E0DF0186
:1011D000AA0FBB1FEA0FFB1FE757FC4F81836083F9
:1011E00042839F5FF0CF0C94B7080895CF93DF93AD
:1011F00000D01F92CDB7DEB79091840390FF0AC054
:101200009E012F5F3F4F0E9445084B8169818A8173
:101210000E94DB080F900F900F90DF91CF910895FF
:10122000CF93DF93EC01EC81F0E0E356FD4F449166
:10123000E4E8F3E0628181810E94F6088C818F5F8F
:101240008C83DF91CF910895CF93DF93EC01E4E895
:10125000F3E0438162818C810E94F6088C818F5F6C
:101260008C83DF91CF9108950F931F93CF93DF93DA
:1012700000D01F92CDB7DEB78C018091DB018111C8
:101280000AC09E012F5F3F4F48EC6FEF0E94450858
:101290008A818093DB01F8018481813051F028F04C
:1012A000823061F44091DB010AC08091DB0140E0B3
:1012B00007C06091DB0140E080E003C040E080E0D7
:1012C00060E00E94DB08F801848190E0019663E011
:1012D00070E00E94A82D84830F900F900F90DF91F3
:1012E000CF911F910F910895AF92BF92CF92DF924D
:1012F000EF92FF920F931F93CF93DF9300D01F9233
:10130000CDB7DEB7182FF62E042FE22E909184036E
:1013100090FF6DC0E92FE695AE2FB0E0AE58BE4FFE
:101320008C91809349029E7F923061F49E012F5FE1
:101330003F4F812F0E9445084B8169818A810E941D
:10134000DB0843C0823019F4009187033EC0863029
:1013500019F41091850339C08930D9F38931A9F581
:10136000E9518E2F8170D82EE695F0E0E356FC4FC0
:10137000A590B490C12CBB2460910A01C61618F543
:101380002C2D30E0A29EC001A39E900DB29E900D28
:10139000112470E00E94942D812FD11002C0860F7D
:1013A00001C0861B90910801290F311DA901440F2E
:1013B000551F240F351F27573C4F402F6F2D0E947C
:1013C0004508C394D9CF0E94B70810938503F092C3
:1013D000860300938703EE2051F06091840370919F
:1013E000850380918603909187030E9468080F907F
:1013F0000F900F90DF91CF911F910F91FF90EF9081
:10140000DF90CF90BF90AF900895E4E8F3E0918132
:10141000282F4381628188E0890F0C94740981E050
:101420000C94050AE4E8F3E09181282F438162815E
:1014300088EF890F0C94740981E00C94120AE4E897
:10144000F3E0628128E0620F08F46FEF282F4381F8
:1014500081810C94740981E00C941F0AE4E8F3E0A4
:10146000628128E0621B08F460E0282F43818181BB
:101470000C94740981E00C942E0AE4E8F3E04381B3
:1014800028E0420F08F44FEF282F628181810C94ED
:10149000740981E00C943D0AE4E8F3E0438128E01C
:1014A000421B08F440E0282F628181810C9474096A
:1014B00081E00C944C0A20E00C947409FF920F9385
:1014C0001F93CF93DF93EC01F12C0FEF10E06091AD
:1014D0000A01F616F0F4809108012F2D30E0280F54
:1014E000311DC901880F991F280F391F27573C4FFD
:1014F00070E0C8010E94A82D962F8C81409187032F
:1015000060918603F99E800D11240E944508F39492
:10151000DECF0E94B7089A818C8190FF02C08F5F56
:1015200001C081508C83DF91CF911F910F91FF906B
:101530000895AF92BF92CF92DF92EF92FF920F93F6
:101540001F93CF93DF93FC01828180FF02C00FEFD6
:1015500001C001E010E044E1A42E80910A011817B7
:1015600008F043C080910801C12ED12CE601C80FBC
:10157000D11DCE01880F991FC80FD91FC757DC4F47
:10158000198218821A8234E0E32EF12CB12C80915A
:10159000DD018B0D85312CF06A2D0E94862D892F5F
:1015A00005C087FF03C090910A01890F082E000C27
:1015B000990BC816D90691F4809187038E9DA001DE
:1015C0008F9D500D112455954795559547959E0132
:1015D00060918603809185030E944508B00EF1E07A
:1015E000EF1AF108A1F61F5FB8CF0E94B7088091EB
:1015F000DD01013031F4811102C080910A01815076
:1016000007C090E0019660910A0170E00E94A82D49
:101610008093DD01DF91CF911F910F91FF90EF90AB
:10162000DF90CF90BF90AF900895CF938091080145
:1016300090910901891770F4E82FF0E09F01220FC3
:10164000331FE20FF31FE757FC4F11821082128203
:101650008F5FF0CFC0E060910A01C617C0F5EC2F94
:10166000F0E070E0CF010E94A82D20910801820FC8
:101670002091DC01022E000C330B90E0E217F307FF
:10168000CCF020910501022E000C330B2E173F07E2
:101690008CF09C01220F331F820F931F9C01275750
:1016A0003C4F4091870360918603809185030E949F
:1016B00045080BC0FC01EE0FFF1F8E0F9F1FFC01A2
:1016C000E757FC4F118210821282CF5FC4CF0E9475
:1016D000B708209104018091DC01820F8093DC0126
:1016E00090910501920F9093050119165CF4082E54
:1016F000000C990B40910A0150E0415051098417A8
:1017000095071CF0219520930401CF9108950F9324
:101710001F93CF93DF938C01FC0184819581019607
:101720008170992795838483C0E0D5E580910A0173
:10173000C81700F5809108012C2F30E0280F311DCB
:10174000C901880F991F280F391F27573C4F4C2F6D
:101750004695F80184819581840F911D8170409197
:101760008703609186038D9F802D11240E94450878
:10177000CF5FDCCFDF91CF911F910F910C94B70811
:101780000F931F93CF93DF93EC0100E010E0809163
:101790000A01282F30E00217130724F59091080161
:1017A0009801290F311DA901440F551F240F351F22
:1017B00027573C4F869590E04C81081719071CF479
:1017C000442331F002C0411103C04091870301C09E
:1017D00040E060918603809185030E9445080F5F79
:1017E0001F4FD5CF0E94B7088C8190E00196817081
:1017F00099278C83DF91CF911F910F9108958F923C
:101800009F92AF92BF92CF92DF92EF92FF920F938F
:101810001F93CF93DF93FC01B280948081E0848397
:1018200000E015E05BE4A52E88248394EE24EA947E
:10183000F12C7BE4C72ED12C80910A01081708F007
:101840008FC0C02FD0E01C9FF0011D9FF00D112410
:10185000E252FE4F911003C01382128267C02381AF
:10186000222389F1215023833481332319F09A2DC7
:10187000921B01C0922F809187031C9FF0011D9F36
:10188000F00D1124E252FE4F899FC0011124B601D0
:101890000E94942D6283211104C0332311F014821D
:1018A000A38222E02B1508F441C01C9FF0011D9F6C
:1018B000F00D1124E252FE4F8091850380838091C8
:1018C0008603818333C00E944A2E8230914074F592
:1018D00082E08B1530F40E944A2EB7010E94A82D99
:1018E00002C0809185031C9FF0011D9FF00D112403
:1018F000E252FE4F808322E02B1558F40E944A2EBC
:10190000209186032695622F70E00E94A82D820FF9
:1019100002C0809186031C9FF0011D9FF00D1124D1
:10192000E252FE4F81831282A38284828091080159
:101930009E01280F311DC901880F991F280F391FDB
:1019400027573C4F1C9FF0011D9FF00D1124E252C0
:10195000FE4F4281618180810E9445080F5F6CCFFC
:10196000DF91CF911F910F91FF90EF90DF90CF907B
:10197000BF90AF909F908F900C94B708E4E8F3E08D
:1019800080818E7F808360817181828193810E94BA
:10199000680810924A022FEF80E792E021508040C1
:1019A0009040E1F700C000000C94B708E4E8F3E0D1
:1019B00080818E7F808310924A022FEF80E792E031
:1019C000215080409040E1F700C000000C94B7081F
:1019D00060918403669570E04BE050E08BE091E00D
:1019E0000E945A2E892B19F481E080934A020E94AA
:1019F0004E21909343028093420208959091840374
:101A000090FF35C09170811102C0926006C08B3288
:101A100010F0946502C0880F982B9093840366237E
:101A200051F06091840370918503809186039091B9
:101A300087030E94680860918403669570E04BE01C
:101A400050E08BE091E00E945A2E892B19F0109201
:101A50004A0202C00E94E80C81E080934502409156
:101A6000870360918603809185030C945B0A089537
:101A7000682F90918403969581E0890F8B3208F04E
:101A800081E00C94FE0C81E00C94380D682F90914D
:101A9000840396958FEF890F09F48AE20C94FE0C6B
:101AA00081E00C94460D61E00C94FE0CE4E8F3E058
:101AB00080818160808386950C94530D809184038E
:101AC00080FD0C94BE0C0C94560D60E00C94FE0C42
:101AD0008091480281112EC00E94371F811104C0DD
:101AE0000E94E01F0E947A080E94640860938403A9
:101AF0007093850380938603909387036E7F61F4D0
:101B00000E947A080E94640860938403709385039E
:101B100080938603909387030E944A0810924A029A
:101B20008091840380FF03C086950E94650D81E04B
:101B3000809348020895E4E8F3E080818160808327
:101B400086950C94650D10924A0208950F931F9389
:101B5000CF93DF9380914A02882309F49CC080913F
:101B60004902E0918403E695E81BE0934402823049
:101B700049F4F0E0E756FD4FE491CE2FD0E000E1CC
:101B800019E059C0863049F4F0E0EA56FD4FE4917F
:101B9000CE2FD0E004E219E04EC0893051F4E69532
:101BA000F0E0ED56FD4FE491CE2FD0E00EE51AE0C7
:101BB00042C08F3051F4E695F0E0E057FD4FE491DC
:101BC000CE2FD0E009E91AE036C0853149F4F0E0C3
:101BD000E357FD4FE491CE2FD0E005E11BE02BC091
:101BE0008831D9F0833239F4EBE8F2E0C591D49131
:101BF00004E319E020C08432A9F08532C1F48E2FAD
:101C000063E00E947A2DE92FF0E0E857FD4FE49160
:101C1000CE2FD0E00FEF1BE00EC0C8EED3E007E8F8
:101C20001BE009C0C4EFD1E000EC1BE004C0C0ED34
:101C3000D7E006E318E080914502882389F01092EE
:101C400045020E944E219E0120953095820F931FE0
:101C500090934302809342021092470210924602F0
:101C600080914202909143020E945A218C179D0755
:101C700090F0E0914202F0914302CE0FDF1FD0932B
:101C80004302C093420282E492E0F801DF91CF91D7
:101C90001F910F910994DF91CF911F910F9108959A
:101CA000882311F0FA0101C0FB010994CF93DF935F
:101CB000C82FD62F0E948A088C1740F00E948A08ED
:101CC0008D1720F4DF91CF910C94430D8C2FDF9171
:101CD000CF910C94530D0F931F93CF93FB01C281AF
:101CE000CC2309F463C08C010E94801E8272F8012B
:101CF000E25CFC45E431F10508F059C0EA5AFF4FB7
:101D00000C94DE2D0E945E0D06C040E55DE063E4AC
:101D10007DE00E94500EC0E04AC043E45DE060E513
:101D20007DE0F7CF4CE15AE06FE07AE0F2CF4FE090
:101D30005AE06CE17AE0EDCF4AE35AE06BE27AE0F8
:101D4000E8CF4BE25AE06AE37AE0E3CF48E55AE0B5
:101D500069E47AE0DECF49E45AE068E57AE0D9CF79
:101D600043EA58E062E978E0D4CF42E958E063EA18
:101D700078E0CFCF81E017C065E082E010C068E076
:101D800086E00DC06EE089E00AC064E18FE007C024
:101D900067E185E104C088E106C062E289E10E9452
:101DA000560EB9CF83E20E94530DB5CFC1E08C2F00
:101DB000CF911F910F9108958091C50386958695C7
:101DC000869508958091C50381FD07C08260809348
:101DD000C5030E946C1F0C94751008958091C50373
:101DE00081FF07C08D7F8093C5030E946C1F0C94F8
:101DF000811008958091C50381FD0C94EE0E0C9422
:101E0000E20E8091C5038695817008958091160138
:101E100008950E94371F811102C00E94E01F0E9496
:101E2000681F8093C503282F26952695269530E0B8
:101E30002430310524F0877088618093C503809138
:101E4000C50380FF04C086958695869501C080E015
:101E50000C944B102091C503822F8695869586950C
:101E6000482F50E04330510554F48F5F982F990F5D
:101E7000990F990F822F8770892B8093C5038091CA
:101E8000C50381608093C5030E946C1F8091C503C8
:101E90008695869586950C944B108091C503982F56
:101EA000969596959695A1F0915E990F990F990F39
:101EB0008770892B8093C503887F91E009F490E0B7
:101EC0008091C50390FB80F98093C5030E946C1F2D
:101ED0008091C5038695869586950C944B108091CC
:101EE000C50380FD13C081608093C503813019F460
:101EF00089E08093C5038091C5030E946C1F809187
:101F0000C5038695869586950C944B10089580910F
:101F1000C50380FF08C08E7F8093C5030E946C1F9D
:101F200080E00C944B1008958091C50380FD0C94C3
:101F3000870F0C946F0F9091C503892F8695869516
:101F400086958F5F8F719770843038F4880F880F73
:101F5000880F892B8093C50302C09093C50380919D
:101F6000C503887F91E009F490E08091C50390FB60
:101F700080F98093C5030E946C1F8091C5038695EC
:101F8000869586950C944B10843008F083E09091F0
:101F9000C5039770282F220F220F220F922B9093A8
:101FA000C503987F21E009F420E09091C50320FB50
:101FB00090F99093C5030C944B100E94C40F80912C
:101FC000C5030C946C1FFC01DB0112968C918823D5
:101FD000F9F0EB5BFC45E730F105D8F4E659FF4F2B
:101FE0000C94DE2D83E001C080E00E94DD0F80E0D4
:101FF00008950E944D0FFBCF0E942A0FF8CF0E9438
:10200000940FF5CF0E949B0FF2CF0E94FA0EEFCFF4
:1020100081E00895279A2F9808952F980895CF92D8
:10202000DF92EF92FF928C3724E1920728F469E067
:1020300070E00E94942D29C0A0E0B0E08A50974D36
:10204000AF4FBF4F6627782F892F9A2F25EF38E2A1
:1020500041E050E00E94BC2D69017A01CA01B9013A
:102060000E946A2D9B01AC01C701B6010E946A2D36
:10207000BB27A92F982F872F009721E0A207B10532
:1020800011F0BC0102C06FEF7FEFCB01FF90EF902A
:10209000DF90CF900895CF93C82F843050F48111F2
:1020A00009C080918000877F809380000E940D107E
:1020B00006C0C3E0809180008860809380002C2F50
:1020C00030E0AFEFBFEF0E94E42D23E030E040E0CE
:1020D00050E00E94BC2DC9010E940F1090938D000A
:1020E00080938C00CF910895089510924C02109225
:1020F0004B0210924D02EFE6F0E080818160808318
:102100000895EFE6F0E080818E7F80830E94DC0EF0
:102110000C944B101F920F920FB60F9211242F9315
:102120003F934F935F936F937F938F939F93AF935F
:10213000BF93CF93EF93FF930E94060F40914B0202
:1021400050914C024F5F5F4F94EF899F9001112493
:10215000CA01B9010E94942D90934C0280934B02C6
:10216000B901660F672F661F770B71950E94942D3A
:102170006F7780914D02823019F4603451F404C0BD
:10218000813039F46F3729F480916F008E7F80930E
:102190006F00E62FF0E0EE55FC4FC4910E94DC0E7C
:1021A000282F41E051E0C49FC001C59F900D11242C
:1021B00063E070E00E94942D269FC001279F900D40
:1021C00011240E940F1090938D0080938C00FF913A
:1021D000EF91CF91BF91AF919F918F917F916F912F
:1021E0005F914F913F912F910F900FBE0F901F90D5
:1021F00018950E940A108AE08093800089E18093FC
:1022000081008FEF9FEF90938700809386000E945C
:10221000090F0E94010F81110C947510089554B19B
:10222000E42FEF7021E030E001C0220FEA95EAF7D9
:10223000352F322B34B942954F70E42FF0E032A1A4
:10224000422F4095342342A1242B4FB7F894FC0130
:10225000CB01880F991F680F791F6E0F7F1FE6173C
:10226000F70789F0819198E025B9000000C087FF49
:1022700035B9880F000000C000C000C035B900C0EB
:102280009A9591F7ECCF4FBF87EC90E00197F1F76B
:1022900000C00000089543E30C940F110F931F93A7
:1022A000CF93DF93C62FD42F122FFC018281882376
:1022B000C9F0609350020E944E2190934F02809388
:1022C0004E0280E28C0F883008F057C0C77081E062
:1022D00001C0880FCA95EAF7DF91CF911F910F9146
:1022E0000C94FC1580915002681330C080914E020E
:1022F00090914F020E945A21883C910538F500E2E6
:102300000D0FCD17B9F080E28C0F883040F4C77004
:1023100081E001C0880FCA95EAF70E9403160830D1
:1023200028F581E09D2F977001C0880F9A95EAF7F4
:102330000E94FC15812F0E94E9150830F0F4D77037
:1023400081E001C0880FDA95EAF70AC080E28C0FBD
:10235000883098F4C77081E001C0880FCA95EAF709
:10236000DF91CF911F910F910C940316812FDF9174
:10237000CF911F910F910C94E915DF91CF911F918F
:102380000F9108959C01CB01233F4CE53407F9F0F0
:1023900078F4283DFCE53F07B9F0293D4CE53407CA
:1023A00011F1273D3C4531F526E241EE61EE1EC0BC
:1023B000253FFCE53F0799F070F0263F3C45D1F4FE
:1023C00027E245EE66EE12C027E245EE0EC026E299
:1023D00041EE60EE0BC027E245EE64EE07C026E258
:1023E00041EE62EE03C028E241E065EE0E944E112C
:1023F00080E00895FC018281882319F01092500238
:10240000089581E00895CF93DF93EC01FB01828171
:10241000882309F41FC1C230FCE5DF0708F41BC1A3
:10242000C6319CE5D90738F09E012A5F3C4529302A
:10243000310508F010C10E944A1F9093CD0380938C
:10244000CC03C031ECE5DE0709F4C3C008F041C09D
:10245000C8308CE5D80709F49AC0F0F4C430ECE534
:10246000DE0709F487C068F4C2308CE5D80709F4A8
:1024700077C0C330DC4509F0E3C08091CC038260B3
:1024800076C0C630ECE5DE0709F46EC008F07BC00C
:102490008091CC0388606BC0CC308CE5D80709F400
:1024A00085C068F4CA30ECE5DE0709F474C008F0B2
:1024B00079C00E94B4188091CC03806858C0CE3097
:1024C0008CE5D80709F476C008F07FC08091CC0372
:1024D0008BC0CB3FECE5DE0709F44FC018F5C331E4
:1024E0008CE5D80709F47DC078F4C131ECE5DE074E
:1024F00009F473C0C231DC4509F0A2C00E94B418CF
:102500008091CC038F7733C0C5318CE5D80709F4AF
:1025100072C008F486C0CA3FDC4509F091C08091C2
:10252000CD033EC0CF3FFCE5DF0709F45FC058F4A0
:10253000CD3F9CE5D90709F444C008F43FC0809121
:10254000CD0382602DC0C130FDE5DF0709F475C001
:1025500008F45DC0C230DD4509F072C080E06EC095
:102560008091CC03816003C08091CC038061809313
:10257000CC0366C08091CC0311C08091CD038260F2
:102580008093CD035DC08091CC038062F0CF8091B9
:10259000CC038064ECCF8091CC0388608460E7CF6B
:1025A0008160EECF8091CC038E7FE1CF8091CC0310
:1025B0008D7FDDCF8091CC03877FD9CF8091CD03F4
:1025C00018C08091CD038D7FDBCF8091CC038F7EAF
:1025D000CECF8091CC038F7DCACF8091CC038F7BEF
:1025E000C6CF8091CC03877F8B7FC1CF8091CD03F5
:1025F0008D7F8E7FC5CF8091CC0382FB222720F96F
:1026000091E0922790FB82F990FB83F9B0CF809103
:10261000CD03982F909591708E7F892B90FB81F937
:10262000AFCF0E94B4188091CC0387FB222720F9FA
:1026300091E0922790FB87F99ACF81E00E94E21FF8
:102640008091CC039091CD030E945B1F0E94B4182F
:1026500080E001C081E0DF91CF910895CF93DF93B7
:1026600086319C4541F5EB010E94801E982F8A819E
:102670002091170130911801882379F09A7A81E02E
:1026800009F480E080935102911102C069E201C017
:1026900065E3C9010E947D200AC080915102811129
:1026A00002C069E201C065E3C9010E9488200E945E
:1026B000CE1E80E001C081E0DF91CF91089590931C
:1026C0005702809356020895E0915602F091570206
:1026D000309721F00190F081E02D099480E0089579
:1026E000E0915602F0915702309799F020912B011A
:1026F000222359F02091CC0327FF07C0DC012C9145
:1027000011962C93119725E02C930280F381E02DF4
:1027100009940895E0915602F0915702309739F0EC
:1027200022E0DC012C930480F581E02D09940895CA
:1027300020915402309155022817390771F0909377
:10274000550280935402E0915602F091570230975F
:1027500021F00680F781E02D09940895209152021E
:10276000309153022817390771F0909353028093E8
:102770005202E0915602F0915702309721F0008406
:10278000F185E02D0994089585B7806885BF85B7E8
:10279000806885BF089508950C94CB130C94CC13D6
:1027A0000C94CB130C94CB130E94C4130E94D0132F
:1027B0000C94CE1381E008950C94DA130E94452105
:1027C0000E9491060E94C9210E94090F0E94680D73
:1027D0000C94D2137F928F929F92AF92BF92CF921E
:1027E000DF92EF92FF920F931F93CF93DF93CDB7BA
:1027F000DEB72A970FB6F894DEBF0FBECDBF0E949A
:10280000E3060E94DC13811111C08FEF89838A8354
:102810001B820E944E218160782F9D838C83498189
:102820005A816B818D810E949E144FC049E5A42E70
:1028300042E0B42E00E010E0702E802F0E947C0653
:102840006C01F501819091905F0188269926811491
:10285000910431F40F5F1F4F0C30110569F7D5CF8C
:1028600080911D0381FD0E94850680E0EE24E394A3
:10287000F12C94012E213F21232B09F18E837F829D
:10288000CE20DF2081E0CD2809F480E088870E94F7
:102890004E218160782F9A8789874E815F81688574
:1028A0008A850E949E14000F111FF801E75AFD4F00
:1028B00080819181E826F926F182E08206C08F5F4F
:1028C000EE0CFF1C8930A9F6C5CF0E94A60D0E9410
:1028D00074100E945B230E94641390915802891720
:1028E000C9F00E946413809358022A960FB6F89498
:1028F000DEBF0FBECDBFDF91CF911F910F91FF9033
:10290000EF90DF90CF90BF90AF909F908F907F908F
:102910000C940C042A960FB6F894DEBF0FBECDBF00
:10292000DF91CF911F910F91FF90EF90DF90CF90AB
:10293000BF90AF909F908F907F900895CF93DF933B
:10294000CDB7DEB72B970FB6F894DEBF0FBECDBF65
:102950004F83588769877A878B87DE01119686E0D7
:10296000FD0111928A95E9F785E0FE013796019005
:102970000D928A95E1F749815A816B817C818D8125
:102980009E810E946D1B2B960FB6F894DEBF0FBE82
:10299000CDBFDF91CF910895FC01808191810E948C
:1029A000411E0895CF93882309F4A9C0C82F823807
:1029B000C1F40E94641381FDA2C069E380911701F4
:1029C000909118010E947D200E94CE1E2FEF81EE73
:1029D00094E0215080409040E1F700C0000069E39E
:1029E00019C0833801F50E94641380FD88C063E537
:1029F00080911701909118010E947D200E94CE1EA7
:102A00002FEF81EE94E0215080409040E1F700C02C
:102A1000000063E580911701909118010E948820C1
:102A2000CF910C94CE1E8438C1F40E94641382FDB1
:102A300066C067E480911701909118010E947D2083
:102A40000E94CE1E2FEF81EE94E0215080409040F6
:102A5000E1F700C0000067E4DDCF8CEF8C0F813A16
:102A6000F8F48C2F0E94DC25811149C06C2F8091D5
:102A70001701909118010E94FD1F882349F06C2FC7
:102A800080911701909118010E9488200E94CE1E0B
:102A90006C2F80911701909118010E947D20C0CF6A
:102AA00080E28C0F883048F4C77081E001C0880F45
:102AB000CA95EAF70E94831EB3CFEBE5EC0FE33033
:102AC00040F4F0E0E553FE4F808190E0CF910C940C
:102AD0009813E8E5EC0FE73150F4F0E0EE0FFF1F3C
:102AE000E356FE4F80819181CF910C94AE13C03F8D
:102AF00030F08C2F0E946322CF910C945023CF9101
:102B00000895882309F464C0823879F40E9464131C
:102B100081FF5EC069E380911701909118010E94C6
:102B20007D200E94CE1E69E310C08338B1F40E945C
:102B3000641380FF4DC063E58091170190911801E7
:102B40000E947D200E94CE1E63E580911701909126
:102B500018010E9488200C94CE1E843879F40E94BB
:102B6000641382FF35C067E48091170190911801CA
:102B70000E947D200E94CE1E67E4E7CF9CEF980F55
:102B8000913A10F4682FE1CF90E2980F983050F40A
:102B9000877091E001C0990F8A95EAF7892F0E940A
:102BA000891ED9CF9BE5980F933020F480E090E008
:102BB0000C94981398E5980F973120F480E090E0FA
:102BC0000C94AE13803F20F00E94CB220C94502333
:102BD0000895CF93C82F0E94D214C93349F42FEF20
:102BE00087EE93E0215080409040E1F700C0000064
:102BF0008C2FCF910C948115882321F00E94831E85
:102C00000C94CE1E0895882321F00E94891E0C94F6
:102C1000CE1E0895CF92DF92EF92FF920F931F93F3
:102C2000CF93DF937C01062FC72FFC0115811295EE
:102C30001F70D281D1110E94A01E0E94791E88238C
:102C400079F0DD2369F080E2800F883048F082E07F
:102C50000E94181F0E94791E91E0D82ED92601C02B
:102C6000D12CCC2EC2948FE0C8228C2D90E0FC0198
:102C7000EF58FF4F0C94DE2D8C2F807FCF70882370
:102C800011F0C295C07FDD2399F0CC2309F4C4C1B3
:102C900080E2800F883010F0011104C08C2F0E9458
:102CA000831E03C08C2F0E94931E0E94CE1EB4C1AF
:102CB000802F0E948115CC2309F4D3C180E2800FBC
:102CC000883010F0011104C08C2F0E94891E03C0AF
:102CD0008C2F0E94991E0E94CE1EC3C18C2F807F14
:102CE000CF70803211F0C295C07F002319F00130FF
:102CF000C9F022C0DD2371F0112341F0113031F40D
:102D00000E94B31E8C2B0E94BB1EABC10E94B31E3F
:102D10008C2B1DC0112319F0113009F4A2C10E949F
:102D2000C41E25C0DD2321F0163008F09AC10EC064
:102D3000153008F096C11BC0DD2361F0112331F07E
:102D4000F701858180FF68C18F7085838C2F0E9479
:102D5000FC1587C1112359F0093309F06EC1FFEF4B
:102D600027EE83E0F15020408040E1F764C18C2FD2
:102D70000E94031676C18C2F86958695837019F074
:102D8000813061F06EC1DD2321F0802F9C2F937084
:102D900002C080E090E00E9498136BC1DD2321F017
:102DA000802F9C2F937002C080E090E00E94AE13B1
:102DB00060C1DD23F9F0053F51F0063F71F0043F9B
:102DC000A9F48091C6039091C70381600BC08091E4
:102DD000C6039091C703826005C08091C60390919D
:102DE000C70384609093C7038093C603802F0E941B
:102DF00063221EC0053F51F0063F71F0043FA9F465
:102E00008091C6039091C7038E7F0BC08091C6034B
:102E10009091C7038D7F05C08091C6039091C70331
:102E20008B7F9093C7038093C603802F0E94CB2291
:102E30000E9450231EC18C2F837009F045C0D11110
:102E400014C1402F429546954770440F440F602FA0
:102E50006F70862F90E0A0E0B0E0042E04C0880FD1
:102E6000991FAA1FBB1F0A94D2F704FF10C00FE0DE
:102E700010E020E030E004C0000F111F221F331FBC
:102E80004A95D2F7009510952095309503C000E043
:102E900010E09801C695C695C370BC01CD01602BAA
:102EA000712B822B932BC23049F058F4C13019F0AA
:102EB0000E94BE1CDAC00E94AC1CD7C00E94D01C6D
:102EC000D4C00E94AA1CD1C0DD2319F08C2F8170C0
:102ED00001C08695882309F4C8C0402F42954695C5
:102EE0004770440F440F602F6F70862F90E0A0E072
:102EF000B0E0042E04C0880F991FAA1FBB1F0A94BC
:102F0000D2F704FF10C00FE010E020E030E004C072
:102F1000000F111F221F331F4A95D2F700951095FD
:102F20002095309503C000E010E09801C695C69545
:102F3000C370BC01CD01602B712B822B932BC2304F
:102F400049F058F4C13019F00E94831D8EC00E94D0
:102F5000711D8BC00E94951D88C00E94E41C85C015
:102F6000CF70DD2339F08C2F0E940A1D802F0E9424
:102F7000FC157BC0802F0E9403168C2F0E942B1DF6
:102F800074C0023F01F128F4003F41F0013FA1F07D
:102F90003FC0033FF9F0043F39F13AC0DD2341F06F
:102FA000153008F05EC08C2F8F710E94501D59C0E3
:102FB000163008F056C0F7CFDD2339F08C2F8F7113
:102FC0000E940A1D4EC0DD23C9F38C2F8F710E9411
:102FD0002B1D47C0DD2329F08C2F8F710E94F51C1B
:102FE00040C00E94F01C3DC0DD2349F0CF718C2F02
:102FF0000E940A1D63E08C2F0E94031F32C081E0F3
:103000000E94181F123068F182E00E94181F29C028
:10301000DD2331F0112391F2802F0E94D21421C0C0
:10302000112399F2093349F49FEFE7EEF3E0915051
:10303000E040F040E1F700C00000802F0E948115C1
:1030400010C04C2F4F70602FC7010E946E040E9469
:103050001B1C0FC04C2F4F70602FC7010E947104C2
:1030600008C088EF8C0D843020F40E9464130E9405
:103070000C04DD20C9F00E94751E80FD15C0F7010B
:1030800012820E946F1E0E940A1DC7010E947518BD
:103090000E946F1EDF91CF911F910F91FF90EF90D3
:1030A000DF90CF900C942B1DDF91CF911F910F914A
:1030B000FF90EF90DF90CF9008950F931F93CF93E1
:1030C000DF93EC01688179818A810E944C1E8C011A
:1030D0000E94A71D0E94981CB801CE010E940A16EA
:1030E000DF91CF911F910F910895CF93DF93FC0152
:1030F0009081818123813481232B31F08F3F31F402
:1031000081E09F3F19F403C081E001C080E080FDB1
:103110000EC0EF01CF010E942504882341F0CE01AB
:103120000E945D18CE01DF91CF910C94EE03DF91E8
:10313000CF9108950E94A01E0E94B01E0E94CE1E34
:103140000E947A240E94502380E090E00E9498130D
:1031500080E090E00C94AE138091170190911801DB
:103160000E9493200C949A180E94901E0C94AC1804
:10317000E92FE295EF704E2F50E0FA013297EE30D2
:10318000F105B0F4EF57FF4F0C94DE2D803F91F026
:1031900018F4883E68F40EC0843F51F40BC0883E9A
:1031A00048F0813F29F406C093FB882780F90895F1
:1031B00080E0089581E008950E94411E0E94B818A1
:1031C0000895CF93DF9300D000D01F92CDB7DEB724
:1031D0000F900F900F900F900F90DF91CF91089567
:1031E000CF93DF9300D000D000D0CDB7DEB72696C6
:1031F0000FB6F894DEBF0FBECDBFDF91CF9108951B
:103200001F93CF93DF93C091720216E080917302F7
:10321000C81799F0D0E01C9FF0011D9FF00D1124FC
:10322000EC58FD4F40815181628173818481958189
:103230000E94F0182196C770E9CFDF91CF911F91BE
:1032400008954091A4025091A5026091A602709148
:10325000A7028091A8029091A9020C94F0180F93F4
:103260001F93CF93DF938091A90282958F7009F00D
:103270005DC08091A602882309F458C08091720233
:10328000109173026091A4027091A502C091A702EF
:10329000D091A80291E06F3F09F090E0292F06E05D
:1032A000811709F443C0209721F07F3F21F030E0DF
:1032B00003C031E001C0322F90E030FD34C0089FE0
:1032C000F001099FF00D1124DF01AC58BD4F11969C
:1032D0003C911197371327C03C91361324C01296A6
:1032E0003C91129731111FC013964D915C91149728
:1032F0004C1B5D0B483C5105B0F48091A9028F70C6
:1033000080618093A902E758FD4F80818F708061B2
:10331000808384EA92E00E947518DF91CF911F911B
:103320000F910C94001901968770BACFDF91CF915D
:103330001F910F9108959F92AF92BF92CF92DF920B
:10334000EF92FF920F931F93CF93DF93CDB7DEB72A
:1033500061970FB6F894DEBF0FBECDBF8C0185E03C
:10336000F801DE011D9601900D928A95E1F7F801B2
:1033700040815181E2809091A4026091A502209148
:10338000A7023091A8022115310531F06F3F31F4C9
:1033900081E09F3F19F403C081E001C080E0F82F75
:1033A000F1709F2E80FD46C1F801A380B48084EAAD
:1033B000C82E82E0D82EF090A602F501E21BF30B96
:1033C000FF2009F4DFC08091A902E83CF10508F074
:1033D0009BC0282F207F09F052C0561313C04913F9
:1033E00011C0FE2CE1100EC08F7080618093A90285
:1033F0000E942119C6010E9475188091A902F80146
:10340000858358C1AB2831F05F3F31F481E04F3FF5
:1034100019F403C081E001C080E080FD03C081E0B9
:103420008E2502C080E090E0F82FF170FF2E80FF23
:103430001CC0809172022091730236E0821709F459
:1034400017C190E0389FF001399FF00D1124EC581E
:10345000FD4F6181561306C06081461303C062812F
:10346000E61203C001968770E9CFFE2CEE2009F426
:1034700021C18091A90281608093A9025AC056138C
:1034800006C0491304C0E11002C0F8019FC04D8777
:103490005E878D859E850E94DC18882379F1EE2059
:1034A00069F12091A902822F82958F7090E0029796
:1034B00074F08091A4029091A50298878F83198659
:1034C000BB86AA862C87CE0107960E94751886E0D7
:1034D000F801A4EAB2E001900D928A95E1F70E940A
:1034E0002F190E9421190DC0561729F14D875E87AB
:1034F0008D859E850E94DC1881112CC0C8010E9418
:103500007518FF24F394D6C0282F207F69F77A2DF1
:10351000B98AA88A6E2D89890E94E11884EA92E00E
:103520000E94751886E0F60111928A95E9F70E94CB
:103530002119F12CBFC04913D9CFE110D7CFF80121
:103540008583C8010E94751886E0F60111928A955C
:10355000E9F7B0C0EE2091F22091A902822F829566
:103560008F7090E002970CF4B2CF8091A4029091FA
:10357000A5029A8389831B82BD82AC822E83CE01F1
:103580000196A3CFE83CF10508F047C0FE2CEE20E1
:1035900009F4B4CF561330C049132EC02091A902AC
:1035A00020FD21C0822F82958F70482F50E0411559
:1035B0005105C9F0F80125834F30510541F08F5F67
:1035C000982F9295907F822F8F70892B8583C801C9
:1035D0000E94751886E0F801A4EAB2E001900D920D
:1035E0008A95E1F742C086E0F801A4EAB2E00190D2
:1035F0000D928A95E1F75EC04D875E878D859E8529
:103600000E94DC18811163CF8091A90281608093B0
:10361000A902C8010E9475184DC07A2DB98AA88ADE
:103620006E2D89890E94E11886E0F60111928A9533
:10363000E9F71BC0EE2009F461CF4D875E878D85C9
:103640009E850E94DC18F82E882309F457CF86E067
:10365000F801A4EAB2E001900D928A95E1F784EABC
:1036600092E00E94CC140E942F190E94211922C0BE
:103670004D875E878D859E850E94411E292F22954C
:103680002F70223028F49F7039F0811105C00BC0D3
:10369000243028F49F7049F4805E883020F0C801FF
:1036A0000E9475189F2CF92C05C0F8019581907F18
:1036B00099F7F9CF8F2D61960FB6F894DEBF0FBE44
:1036C000CDBFDF91CF911F910F91FF90EF90DF90D1
:1036D000CF90BF90AF909F9008951F93CF93DF93AB
:1036E000CDB7DEB72C970FB6F894DEBF0FBECDBFB7
:1036F0004F83588769877A878B879C87CE01079687
:103700000E949B198823D1F09F8188852A853B855B
:10371000232B31F08F3F31F481E09F3F19F403C038
:1037200081E001C080E080FD47C04F8158856985F8
:103730007A858B859C850E94F0183EC086E0FE014C
:103740003796DE01119601900D928A95E1F7FF817F
:10375000E8856A857B856115710531F0EF3F31F4AD
:1037600081E0FF3F19F403C081E001C080E080FDEB
:1037700023C02091730230E0C90101968770992718
:103780004091720250E084179507F1F1F983EA83C2
:103790007D836C8396E0929FD001939FB00D11249E
:1037A000AC58BD4FFE01319601900D929A95E1F70C
:1037B000809373020E94001916E08091720290912A
:1037C0007302891771F1189FC00111248C589D4F05
:1037D0000E949B19882329F1E09172021E9FF0013B
:1037E0001124EC58FD4F40815181628173818481A5
:1037F00095810E94F0188091720290E00196877086
:10380000992780937202D9CF0E94B4181092730244
:1038100010927202E4EAF2E086E0DF011D928A95DE
:10382000E9F72C960FB6F894DEBF0FBECDBFDF913F
:10383000CF911F910895EF92FF920F931F93CF9313
:10384000DF938C01892B09F46CC0F12CEE24E394F6
:10385000E8012196F8018491843740F4843008F01F
:1038600051C0813081F0823019F15BC0853709F495
:1038700044C0A8F19CE7980F903708F052C08F77AA
:103880000E94811541C00E5F1F4FFE01849190E29E
:10389000980F983050F48770FE2D01C0FF0F8A9565
:1038A000EAF78F2F0E94A31E14C00E94D2142DC0CD
:1038B0000E5F1F4FFE01849190E2980F983060F4E4
:1038C0008770FE2D01C0FF0F8A95EAF78F2F0E94A7
:1038D000A91E0E94CE1E19C00E94811516C00E5F3F
:1038E0001F4FFE01C491CC2381F08FE99FE0019727
:1038F000F1F700C00000C150F6CF0E5F1F4FFE0170
:10390000F49003C00E94D2148E018F2D882309F4F5
:103910009FCFEFE9FFE03197F1F700C00000815041
:10392000F5CFDF91CF911F910F91FF90EF90089508
:10393000089508950C94991C0C949A1C0E949C1C48
:103940006093F4027093F5028093F6029093F7026D
:103950000C949A180C949E1C0F931F930091F402E0
:103960001091F5022091F6023091F702602B712B35
:10397000822B932B1F910F910C949E1C0F931F93DE
:103980000091F4021091F5022091F6023091F702B5
:1039900060237123822393231F910F910C949E1C0B
:1039A0000F931F930091F4021091F5022091F602FB
:1039B0003091F70260277127822793271F910F917B
:1039C0000C949E1C0C94991C0E94E21C6093F002C3
:1039D0007093F1028093F2029093F3020C949A1880
:1039E00060E070E0CB010C94E41C0F931F9341E066
:1039F00050E060E070E08A019B0104C0000F111FDD
:103A0000221F331F8A95D2F7C901B8011F910F9168
:103A10000C94E41C0F931F9341E050E060E070E0D1
:103A200004C0440F551F661F771F8A95D2F78091F7
:103A3000F0029091F102A091F202B091F3028A019A
:103A40009B01082B192B2A2B3B2BC901B8011F9175
:103A50000F910C94E41C0F931F9341E050E060E041
:103A600070E004C0440F551F661F771F8A95D2F778
:103A700040955095609570958091F0029091F1027B
:103A8000A091F202B091F3028A019B01082319234D
:103A90002A233B23C901B8011F910F910C94E41C08
:103AA0000F931F9341E050E060E070E004C0440FCA
:103AB000551F661F771F8A95D2F78091F00290916B
:103AC000F102A091F202B091F3028A019B01082752
:103AD00019272A273B27C901B8011F910F910C9480
:103AE000E41C0F931F930091F0021091F1022091BA
:103AF000F2023091F302602B712B822B932B1F91DA
:103B00000F910C94E41C0F931F930091F0021091FD
:103B1000F1022091F2023091F3026023712382239B
:103B200093231F910F910C94E41C0F931F9300910A
:103B3000F0021091F1022091F2023091F30260271D
:103B40007127822793271F910F910C94E41C0895ED
:103B500029E0929F800D1124E82FE695E695E695E1
:103B6000877051E001C0550F8A95EAF785E0E89F1C
:103B7000F0011124E655FD4F20E030E070E0408177
:103B8000CB01022E02C0969587950A94E2F78170C8
:103B9000819584278523842781932F5F3F4F25308C
:103BA000310569F7089529E0929F800D1124682F4F
:103BB000669566956695982F977085E0689FB00129
:103BC000112440E050E080E0FB01E40FF51FE655D2
:103BD000FD4F208130E0092E02C0369527950A94CA
:103BE000E2F721703327042E01C0220F0A94EAF76E
:103BF000822B4F5F5F4F4530510531F70895BF92DB
:103C0000CF92DF92EF92FF920F931F93CF93DF93A8
:103C10008C01C090F002D090F102E090F202F0909E
:103C2000F3028091F4029091F502A091F602B09116
:103C3000F702C82AD92AEA2AFB2ACFE1D0E0D70125
:103C4000C6010C2E04C0B695A795979587950A9442
:103C5000D2F780FD04C0219790F7B12C07C0BC2E8D
:103C6000B8018C2F0E948D040197A9F38B2DDF9151
:103C7000CF911F910F91FF90EF90DF90CF90BF9069
:103C80000895CF93DF93EC010E94FF1DBE010E94B7
:103C90008D04DF91CF9108951F93CF93DF93EB01B4
:103CA00090917102992321F0CB010E94411E13C013
:103CB000882349F0CB010E94FF1D182F682FCE01E9
:103CC0000E94A81D04C0CB010E94D31D182FBE0165
:103CD000812F0E948D04DF91CF911F9108958091D3
:103CE000F80285958595859508958091F8028770ED
:103CF00008959091F802977081E009F480E00895AA
:103D000080911C03089590911C03892B80931C03C0
:103D10000895809590911C03892380931C03089536
:103D200010921C03089590911B03892B80931B0311
:103D30000895809590911B03892380931B03089518
:103D400010921B03089590911A03892B80931A03F4
:103D50000895809590911A03892380931A030895FA
:103D600010921A0308958091F902089508950C9411
:103D7000B61E0C94B71E9091F902981721F080930B
:103D8000F9020C94B91E08958091F902882329F054
:103D90001092F90280E00C94B91E0895E091170189
:103DA000F091180180911C038083E0911701F0913C
:103DB0001801908180911B03892B8083E09117016A
:103DC000F0911801908180911A03892B8083809152
:103DD000F902882381F0E0911701F0911801908198
:103DE000892B808380911701909118010E94E71F11
:103DF00081110E94C41E80911701909118010C94AA
:103E000070130C94B61E98E0899F90011124262B04
:103E10002093F8020E940A1D8091F80285958595ED
:103E200085950C94011F1092F80280E00C94011FFC
:103E30002091F802809582238093F802982F977042
:103E400079F430E0482F082E000C550B2417350765
:103E500039F08595859585950E942B1D0C94131F2F
:103E600008956FEF7FEF80E090E00C94992E80E052
:103E700090E00E94752E21E08C3E9E4F09F020E0DC
:103E8000822F089582E090E00C94672E83E090E00A
:103E90000C94672ECF9384E090E00E94672EC82F89
:103EA00081E290E00E94672E2C2F30E0A901582B70
:103EB000CA01CF910895CF93C92F682F84E090E075
:103EC0000E947B2E6C2F81E290E0CF910C947B2E90
:103ED00086E090E00C94672E682F86E090E00C94CA
:103EE0007B2EAB01BC018FE090E00C948D2EAB01DA
:103EF000BC0183E190E00C948D2E60E070E0CB017A
:103F00000C94771F60E070E0CB010E94711F0C944D
:103F10007D1F6CEE7EEF80E090E00E94992E60E0C5
:103F200082E090E00E947B2E60E083E090E00E94BF
:103F30007B2E1092F4021092F5021092F60210926B
:103F4000F70260E084E090E00E947B2E60E081E276
:103F500090E00E947B2E60E085E090E00E947B2E46
:103F600060E086E090E00E947B2E6FEF87E090E0BB
:103F70000E947B2E40E050E0BA0188E090E00E9471
:103F80008D2E60E08DE090E00E947B2E40E050E0BE
:103F9000BA0188E190E00E948D2E60E087E190E018
:103FA0000E947B2E40E050E0BA018CE190E00E943C
:103FB0008D2E60E080E290E00E947B2E0C94821FA8
:103FC0000C94891F682F8EE090E00C947B2EFC01EE
:103FD000329680912B01882331F08091CC0387FFAA
:103FE00002C09EE101C096E080E0915028F021914E
:103FF0002223D9F38F5FF9CF0895662351F12091E1
:104000002B012223E9F02091CC0327FF19C0462F72
:104010004695469546954E31E0F4677021E030E0D4
:1040200002C0220F331F6A95E2F7FC01E40FF11D75
:10403000828190E02823392381E0232B69F409C091
:10404000FC01329608962191621729F0E817F907CA
:10405000D1F780E0089581E008959C01FC0132963B
:104060009FEF80E04191461789F09F3F19F441117D
:1040700001C0982F8F5F8630A9F79F3F39F0F90173
:10408000E90FF11D97FDFA956283089508959C014B
:104090002A5F3F4FFC014281461301C01282019604
:1040A00082179307B9F70895262F2695269526950A
:1040B0002E3168F4FC01E20FF11D677021E030E061
:1040C00001C0220F6A95EAF78281282B2283089586
:1040D000262F2695269526952E3170F4FC01E20FA9
:1040E000F11D677021E030E001C0220F6A95EAF708
:1040F0002095828128232283089520912B01222359
:1041000029F02091CC0327FD0C9454200C942D20F1
:1041100020912B01222329F02091CC0327FD0C9420
:1041200068200C94472020912B01FC013296222319
:1041300031F08091CC0387FF02C08EE101C086E0A0
:10414000DF011D928A95E9F7089508950C94A52042
:104150000C94A520CF930E94A8200E94E3060E9401
:10416000A620C0E08C2F0E947C06892B29F4CF5F0B
:10417000CC30C1F780E001C081E0CF9108950C946C
:10418000A5200C94BF200E94C1208091D2038430CE
:1041900009F43CC010921E0320E488E190E00FB6C1
:1041A000F894A895809360000FBE2093600080E093
:1041B0000E944B1080E00E940C040E94A30D80918D
:1041C0001F0381110AC081E080931F038091840343
:1041D0008170809320030E94D60C0E94C12083B777
:1041E000817F846083BF83B7816083BF7894889523
:1041F00083B78E7F83BF0FB6F894A8958091600037
:10420000886180936000109260000FBE08950C9446
:10421000A5200E94B4180E94090F0E9464130E94F6
:104220000C0410921F038091200381110E949B0DAA
:104230000E94E80C0C9407211F920F920FB60F9268
:1042400011248F939F93AF93BF9380911E0381118D
:1042500013C08091C8039091C903A091CA03B09183
:10426000CB034196A11DB11D8093C8039093C90350
:10427000A093CA03B093CB03BF91AF919F918F914D
:104280000F900FBE0F901F90189582E084BD93E0B1
:1042900095BD9AEF97BD80936E0008952FB7F8945F
:1042A0008091C8039091C903A091CA03B091CB0338
:1042B0002FBF08959C014FB7F8948091C803909147
:1042C000C903A091CA03B091CB034FBF821B930BCC
:1042D000089578941F920F920FB60F9211248F9326
:1042E0009F93AF93BF938091C8039091C903A0910E
:1042F000CA03B091CB030196A11DB11D8093C803E1
:104300009093C903A093CA03B093CB03BF91AF911D
:104310009F918F910F900FBE0F901F90189581E085
:104320008093E00080E28093D8001092C9008FE172
:104330009EE40197F1F700C0000087E090EBDC01FC
:104340008093DB039093DC03A093DD03B093DE0343
:104350009CE088E10FB6F894A895809360000FBEAA
:1043600090936000FFCF0C94311F0E94E3068FE30F
:104370009CE90197F1F700C000000E94E30680E08D
:104380000E947C0680FF04C00E94B3210C948F2100
:1043900008950E94371F811102C00E94E01F0E94F1
:1043A000421F80931D030E944A1F9093CD03809368
:1043B000CC030E94461F682F70E080E090E00C94D0
:1043C000AA1C8091280380FF0BC060911E0185E02C
:1043D000689FB001112475956795759567952BC0F9
:1043E00081FF09C060911E0185E0689FB001112422
:1043F0007595679520C082FF07C060911E0185E01A
:10440000689FB001112417C0909127039923D1F020
:1044100060911D01961788F720911E0185E0289F65
:1044200090011124929FA001939F500D112470E0E0
:10443000CA010E94A82D6038710540F4611571050C
:1044400019F406C065E070E0862F08958FE708959F
:1044500081E008958091280380FF08C060911A01CF
:1044600070E0759567957595679521C081FF06C0C9
:1044700060911A0170E07595679519C082FF04C0BC
:1044800060911A0170E010C090912703992399F070
:10449000609119019617A0F780911A01899FC001B8
:1044A000112470E00E94A82D6038710540F4611558
:1044B000710519F406C061E070E0862F08958FE75A
:1044C000089581E00895803F21F40E94E1218195C3
:1044D00004C0813F29F40E94E12180932C030895B8
:1044E000823F21F40E94E121819504C0833F29F499
:1044F0000E94E12180932B030895893F19F40E94C3
:104500002A2205C08A3F31F40E942A228195809395
:104510002D0308958B3F21F40E942A22819504C027
:104520008C3F29F40E942A2280932E030895843F11
:1045300021F480912A03816017C0853F21F4809186
:104540002A03826011C0863F21F480912A0384608F
:104550000BC0873F21F480912A03886005C0883F03
:1045600031F480912A03806180932A0308958D3F5E
:1045700021F48091280381600BC08E3F21F480914B
:104580002803826005C08F3F29F48091280384604E
:10459000809328030895803F39F480912C0387FF8E
:1045A0006CC010922C0369C0813F29F480912C03C8
:1045B0001816BCF362C090912B03823F29F497FF39
:1045C0005CC010922B0359C0833F19F41916CCF329
:1045D00054C0893F41F480912D0318160CF04DC052
:1045E00010922D034AC08A3F29F480912D0387FF42
:1045F00044C0F6CF8B3F39F480912E0387FF3DC036
:1046000010922E033AC08C3F29F480912E03181685
:10461000BCF333C0843F21F480912A038E7F17C0FE
:10462000853F21F480912A038D7F11C0863F21F4BC
:1046300080912A038B7F0BC0873F21F480912A034E
:10464000877F05C0883F31F480912A038F7E809355
:104650002A0313C08D3F21F4809128038E7F0BC065
:104660008E3F21F4809128038D7F05C08F3F29F470
:10467000809128038B7F8093280380912B038111E5
:104680000EC080912C0381110AC080912D038111ED
:1046900006C080912E03811102C010922703089555
:1046A00089E293E00E948A130E944E219093260390
:1046B000809325030895CF93DF9300D000D000D0DE
:1046C000CDB7DEB786E0E9E2F3E0DE0111960190B6
:1046D0000D928A95E1F780912B03811105C080919D
:1046E0002C03882309F47AC080912303909124033A
:1046F0000E945A21AC0190912703992339F020910F
:104700001F0130E02417350758F068C020912001C0
:104710008AE0289F900111242417350718F05EC005
:104720009F3F19F09F5F9093270310922D031092E3
:104730002E0380912B03181624F40E94E12180930C
:104740002B0380912B0387FF05C00E94E1218195F7
:1047500080932B0380912C03181624F40E94E121EE
:1047600080932C0380912C0387FF05C00E94E121D8
:10477000819580932C0330912B033323E1F020911A
:104780002C032223C1F045EB3403C00111249923EB
:1047900019F090932B0303C081E080932B0335EB3A
:1047A0002303C0011124992319F090932C0303C013
:1047B00081E080932C030E945023809125039091E7
:1047C0002603909324038093230386E0FE01319611
:1047D000A9E2B3E001900D928A95E1F780912D0353
:1047E000811105C080912E03882309F47AC080913D
:1047F0002103909122030E945A21AC01909127033A
:10480000992339F020911B0130E02417350758F027
:1048100068C020911C018AE0289F90011124241770
:10482000350718F05EC09F3F19F09F5F90932703F4
:1048300010922B0310922C0380912D03181624F450
:104840000E942A2280932D0380912D0387FF05C0AB
:104850000E942A22819580932D0380912E031816A1
:1048600024F40E942A2280932E0380912E0387FF36
:1048700005C00E942A22819580932E0330912D033A
:104880003323E1F020912E032223C1F045EB3403C2
:10489000C0011124992319F090932D0303C081E0E6
:1048A00080932D0335EB2303C0011124992319F0C4
:1048B00090932E0303C081E080932E030E94502327
:1048C00080912503909126039093220380932103E6
:1048D00086E0FE013196A9E2B3E001900D928A953F
:1048E000E1F726960FB6F894DEBF0FBECDBFDF917D
:1048F000CF910895E9E2F3E086E0DF011D928A9509
:10490000E9F710922703109228030895833081F16C
:1049100028F4813059F08230D1F00895853009F4BF
:1049200049C0B8F1863009F456C00895809120013D
:10493000262F30E0280F311D2F3F310524F4680F5A
:104940006093200108958FEF809320010895809156
:104950001F01262F30E0280F311D2F3F310524F491
:10496000680F60931F0108958FEF80931F010895D2
:1049700080911E01262F30E0280F311D2F3F310579
:1049800024F4680F60931E0108958FEF80931E0139
:10499000089580911D01262F30E0280F311D2F3FF3
:1049A000310524F4680F60931D0108958FEF809303
:1049B0001D01089580911A01262F30E0280F311D26
:1049C0002F3F310524F4680F60931A0108958FEF8B
:1049D00080931A01089580911901262F30E0280F45
:1049E000311D2F3F310524F4680F6093190108959C
:1049F0008FEF809319010895833011F128F48130ED
:104A000049F0823091F00895853081F120F18630AF
:104A1000C1F1089580912001681720F4861B8093CE
:104A20002001089510922001089580911F016817B8
:104A300020F4861B80931F01089510921F01089592
:104A400080911E01681720F4861B80931E01089533
:104A500010921E01089580911D01681720F4861B95
:104A600080931D01089510921D01089580911A01EF
:104A7000681720F4861B80931A01089510921A017A
:104A8000089580911901681720F4861B80931901FD
:104A900008951092190108950F931F9341E050E07B
:104AA00060E070E08A019B0104C0000F111F221F0B
:104AB000331F8A95D2F7C901B8010E94AA1C1F9121
:104AC0000F910C94B418482F50E0FA013597EF334A
:104AD000F10508F060C0E157FF4F0C94DE2D0E94F5
:104AE000E01F55C080911D03817F8E7F80931D0341
:104AF00081E08093300308950E94160448C080919D
:104B00001D03982F9095917090FB80F980931D0361
:104B100091113DC0897F877F10C080911D0381FB6B
:104B2000222720F991E0922790FB81F980931D03C1
:104B3000992369F180911D03816080931D0327C033
:104B400080911D0382FB222720F991E0922790FBA0
:104B500082F9ECCF80911D0383FB222720F991E09D
:104B6000922790FB83F9E2CF0E94B4188091CC0386
:104B700087FB222720F991E0922790FB87F9809309
:104B8000CC0305C0895301C08D510E944C2581E0A2
:104B9000089580E0FACF80E0089580E008950C94B5
:104BA000CD258E518A3030F4E82FF0E0E253FE4FED
:104BB0008081089580E00895CF93C82F80913003BD
:104BC000813051F018F0823099F17DC00E94801E32
:104BD000823209F07AC004C00E94801E823261F4E1
:104BE0008C2F0E94CF25811104C08C2F0E94632539
:104BF0001DC081E090E01AC08C2F0E94CD2581114C
:104C000014C0C43179F048F4CB3079F0C03109F0E8
:104C100060C082E08093300308C0C93219F0C83305
:104C200021F057C01092300354C081E0817053C00E
:104C3000C93289F118F5C43171F1B0F4C73009F007
:104C400046C08EE18093200182E380931F018AE0B9
:104C500080931E0184E180931D0188E080931A01F6
:104C600088E28093190133C082EE8C0F863078F58C
:104C70008C2F0E94D12580932F0329C0CE34E9F0D8
:104C800020F4CB3421F56AE013C0C13579F0C23588
:104C9000F1F461E00DC080912F03882319F0109288
:104CA0002F0315C081E08093300315C061E006C07A
:104CB00080912F030E9486240AC06AE080912F030E
:104CC0000E94FC2404C01092300380E004C081E004
:104CD00002C080E0ABCFCF91089580915103089539
:104CE000CF93DF9300D01F92CDB7DEB79091D20360
:104CF000943019F589837B836A8382E08093E9008D
:104D00008FEF9091E800815095FD06C095ED9A9542
:104D1000F1F700008111F5CF8091E80085FF0DC00B
:104D200040E050E063E070E0CE0101960E94CC28A4
:104D30008091E8008E778093E8000F900F900F909D
:104D4000DF91CF910895CF93DF93EC010E94AF28BC
:104D5000823011F0843031F4BE0184E0DF91CF91D4
:104D60000C947026DF91CF910895BC0183E00C94E0
:104D70007026CF93DF93EC010E94AF28823011F0B0
:104D80008430F9F482E08093E9008FEF9091E8009D
:104D9000815095FD06C095ED9A95F1F700008111BF
:104DA000F5CF8091E80085FF0CC040E050E066E060
:104DB00070E0CE010E94CC288091E8008E7780932D
:104DC000E800DF91CF910895CF93DF93EC010E942B
:104DD000AF28823011F08430D9F580912B018823DF
:104DE00039F08091CC0387FF03C060E282E002C00B
:104DF00068E081E08093E9008FEF9091E8008150B6
:104E000095FD06C095ED9A95F1F700008111F5CF5B
:104E10008091E80085FF1CC080912B01811105C0A5
:104E200040E050E068E070E003C070E040E050E037
:104E3000CE010E94CC288091E8008E778093E80014
:104E400080E2FE01A1E3B3E001900D928A95E1F7C3
:104E5000DF91CF9108958091D103811109C00E9403
:104E60005D2A0E94BA2A8091E20084608093E20069
:104E700008951092D1030895089508950C9409217E
:104E800042E061EC81E00E94D62942E261EC82E0DE
:104E90000C94D6298091D403833009F460C030F497
:104EA000813071F0823009F499C008958A3009F494
:104EB00085C08B3009F46BC0893009F0A7C020C0D1
:104EC0008091D303813A09F0A1C08091E800877FE7
:104ED0008093E8008091D7039091D803892B21F427
:104EE00060E281E393E003C060E080E090E070E086
:104EF0000E9417298091E8008B778093E80008953D
:104F00008091D303813209F081C08091D7039091C1
:104F1000D803029708F07AC08091E800877F8093D9
:104F2000E8008091E80082FD05C08091D2038111E4
:104F3000F8CF6CC02091F3008091F20090E0922BAA
:104F4000029729F48091F1008B7F813021F48091C8
:104F5000F100809351038091E8008B7753C08091DA
:104F6000D303813A09F052C08091D7039091D803BE
:104F7000892B09F04BC08091E800877F8093E8007F
:104F80008091E80080FFFCCF80912B0136C080919A
:104F9000D3038132D9F58091D7039091D803892B1F
:104FA000A9F58091E800877F8093E8000E940B2A92
:104FB0008091D50380932B010C94B4188091D30376
:104FC000813221F58091E800877F8093E8000E947C
:104FD0000B2A8091D6038093520308958091D303C6
:104FE000813AA1F48091E800877F8093E800809166
:104FF000E80080FFFCCF809152038093F100809104
:10500000E8008E778093E8000C940B2A089584B70B
:10501000877F84BF0FB6F894A8958091600088615F
:1050200080936000109260000FBE90E080E80FB6A1
:10503000F89480936100909361000FBE0E94D41396
:105040000E945D2A0E94BA2A8091E20084608093C7
:10505000E20078940E944F2D0E94DE1381E291E0DD
:105060000E945F138091D203853069F40E94C320AF
:105070008091D0038823B1F30E94AA20882391F362
:105080000E94B628EFCF0E94EA13ECCF0C94482878
:10509000292F332723303105C9F060F42130310541
:1050A00081F02230310509F04AC08BE390E026E51B
:1050B00035E049C02132310511F12232310579F153
:1050C0003EC082E190E021E935E03DC09927813082
:1050D000910561F040F08230910559F0039779F520
:1050E000E2E2F5E008C0E2E5F5E005C0E0E4F5E065
:1050F00002C0E8E2F5E0849190E09F0124C06115D0
:10510000710541F061307105D1F489E090E021E84A
:1051100035E019C089E090E028E635E014C061155B
:10512000710541F06130710551F48CEB90E023EA98
:1051300035E009C080E490E02FE536E004C080E06F
:1051400090E020E030E0FA013183208308958091DF
:10515000D203843011F081E0089582E008958091B7
:105160005303811102C00C94A728089580E189BDE2
:1051700082E189BD09B400FEFDCF8091D8008F7D0A
:105180008093D8008091E00082608093E00080915D
:10519000E00081FDFCCF0895CF92DF92EF92FF9265
:1051A0000F931F93CF93DF93EC018B017A010E9441
:1051B0002A2A811133C0E114F10439F0F70180810A
:1051C0009181081B190BC80FD91FC12CD12C0115B7
:1051D000110519F18091E80085FD16C08091E80065
:1051E0008E778093E800E114F10449F0F7018081A3
:1051F0009181C80ED91ED182C08285E00FC00E9465
:105200002A2A882321F30AC089918093F100015052
:105210001109FFEFCF1ADF0ADACF80E0DF91CF91DB
:105220001F910F91FF90EF90DF90CF900895209104
:10523000D9033091DA032617370748F06115710555
:1052400039F42091E8002E772093E80001C0B901DD
:10525000FC0120E06115710579F18091D20388236A
:10526000F1F18530F1F18091E80083FD3CC080913F
:10527000E80082FD2EC08091E80080FFEBCF2091F6
:10528000F3008091F20090E0922B6115710551F0CE
:105290008830910538F421912093F1006150710913
:1052A0000196F3CF21E0089709F020E08091E80013
:1052B0008E778093E800CECF2111CFCF0AC08091A6
:1052C000D203882361F0853061F08091E80083FD8E
:1052D0000AC08091E80082FFF2CF80E0089582E06A
:1052E000089583E0089581E008952091D9033091D5
:1052F000DA032617370748F06115710539F4209154
:10530000E8002E772093E80001C0B901FC0120E0FD
:105310006115710591F18091D203882309F440C091
:10532000853009F43FC08091E80083FD3DC0809145
:10533000E80082FD2FC08091E80080FFE9CF209136
:10534000F3008091F20090E0922B6115710559F005
:105350008830910540F424912093F10031966150FA
:1053600071090196F2CF21E0089709F020E08091C1
:10537000E8008E778093E800CBCF2111CCCF0AC014
:105380008091D203882361F0853061F08091E8003C
:1053900083FD0AC08091E80082FFF2CF80E008958B
:1053A00082E0089583E0089581E00895982F973072
:1053B00068F59093E900981739F07091EC0020910E
:1053C000ED005091F00003C0242F762F50E021FD16
:1053D00002C09F5FECCF3091EB003E7F3093EB003B
:1053E0003091ED003D7F3093ED003091EB00316066
:1053F0003093EB007093EC002093ED005093F0009D
:105400002091EE0027FDE5CF80E008958F70809316
:10541000E90081E008958091D30387FF11C0809156
:10542000E80082FD05C08091D2038111F8CF11C040
:105430008091E8008B770BC08091D203882349F0DC
:105440008091E80080FFF8CF8091E8008E7780930C
:10545000E80008952091E4003091E50095E6409140
:10546000EC00842F817040FF23C08091E80080FD14
:105470001DC08091D203882399F0853099F08091E6
:10548000EB0085FD11C04091E4005091E500241728
:10549000350729F3915011F09A01E1CF84E0089586
:1054A00082E0089583E0089581E0089580E0089502
:1054B0004091E80042FFDDCF08950E94CB2A0E9470
:1054C000D32AE0EEF0E0808181608083E8EDF0E0B7
:1054D00080818F77808319BCA7EDB0E08C918E7F9F
:1054E0008C9380818F7E80831092D10308950F93D7
:1054F0001F93CF93DF930E94CB2A0E94D32AC8ED3B
:10550000D0E088818F7788838881806888838881CC
:105510008F7D888319BC1092D2031092CE03109213
:10552000D0031092CF0300EE10E0F80180818B7F52
:10553000808388818160888342E060E080E00E940F
:10554000D629E1EEF0E080818E7F8083E2EEF0E00C
:10555000808181608083808188608083F801808180
:105560008E7F8083888180618883DF91CF911F91B6
:105570000F910895E8EDF0E080818F7E8083E7ED64
:10558000F0E080818160808384E082BF81E080934D
:10559000D1030C94772AE8EDF0E080818E7F808340
:1055A0001092E20008951092DA001092E10008953E
:1055B0001F920F920FB60F9211242F933F934F9388
:1055C0005F936F937F938F939F93AF93BF93EF936B
:1055D000FF938091E10082FF0BC08091E20082FF87
:1055E00007C08091E1008B7F8093E1000E944E2DE7
:1055F0008091DA0080FF1FC08091D80080FF1BC01F
:105600008091DA008E7F8093DA008091D90080FF4C
:105610000DC080E189BD82E189BD09B400FEFDCFE6
:1056200081E08093D2030E942B2705C019BC109201
:10563000D2030E9439278091E10080FF19C0809138
:10564000E20080FF15C08091E2008E7F8093E2002F
:105650008091E20080618093E2008091D8008062B6
:105660008093D80019BC85E08093D2030E943D2727
:105670008091E10084FF30C08091E20084FF2CC063
:1056800080E189BD82E189BD09B400FEFDCF809132
:10569000D8008F7D8093D8008091E1008F7E809329
:1056A000E1008091E2008F7E8093E2008091E20031
:1056B00081608093E2008091CE03882311F084E022
:1056C00007C08091E30087FD02C081E001C083E054
:1056D0008093D2030E943E278091E10083FF29C07E
:1056E0008091E20083FF25C08091E100877F809355
:1056F000E10082E08093D2031092CE038091E1001A
:105700008E7F8093E1008091E2008E7F8093E200A3
:105710008091E20080618093E20042E060E080E0FE
:105720000E94D6298091F00088608093F0000E944A
:105730003C27FF91EF91BF91AF919F918F917F9106
:105740006F915F914F913F912F910F900FBE0F90EE
:105750001F9018951F920F920FB60F9211242F933E
:105760003F934F935F936F937F938F939F93AF93E9
:10577000BF93CF93DF93EF93FF93C091E900CF7076
:105780008091EC00D82FD17080FDD0E81092E90014
:105790008091F000877F8093F00078940E94EE2B38
:1057A0001092E9008091F00088608093F000CD2B8A
:1057B000CF70C093E900FF91EF91DF91CF91BF913E
:1057C000AF919F918F917F916F915F914F913F9199
:1057D0002F910F900FBE0F901F9018951F93CF938E
:1057E000DF93CDB7DEB7AA970FB6F894DEBF0FBE32
:1057F000CDBFE3EDF3E08091F100819323E0EB3D39
:10580000F207C9F70E944A278091E80083FF2EC162
:105810008091D3039091D403492F50E04A30510531
:1058200008F024C1FA01E253FF4F0C94DE2D8038BA
:1058300021F0823809F01AC108C08091CF039091FD
:10584000D003992389F082600FC08091D7038F70B5
:10585000873008F00BC18093E9008091EB0085FB55
:10586000882780F91092E9009091E800977F909343
:10587000E8008093F1001092F100D1C0282F2D7F15
:1058800009F0F4C0882319F0823061F0EFC08091F4
:10589000D503813009F0EAC0933009F080E08093AD
:1058A000D0032EC08091D50381112AC08091D703E7
:1058B0008F702FEF280F263008F0D8C08093E900B2
:1058C0002091EB0020FF1CC0933021F48091EB006D
:1058D000806214C09091EB0090619093EB0021E006
:1058E00030E0A90102C0440F551F8A95E2F74093AA
:1058F000EA001092EA008091EB0088608093EB0050
:105900001092E9008091E800877F8093E8000E9470
:105910000B2AACC08111AAC01091D5031F778091CA
:10592000E3008078812B8093E3008091E800877FFB
:105930008093E8000E940B2A8091E80080FFFCCF52
:105940008091E30080688093E300111102C082E03F
:1059500001C083E08093D20389C08058823008F070
:1059600085C08091D5039091D6038C3D53E0950777
:1059700079F583E08A838AE289834FB7F894DE0160
:10598000139620E03EE051E2E32FF0E05093570001
:10599000E49120FF03C0E295EF703F5FEF708E2F20
:1059A00090E0EA3010F0C79601C0C0968D939D93A9
:1059B0002F5F243149F74FBF8091E800877F8093A4
:1059C000E8006AE270E0CE0101960E94172916C035
:1059D0006091D7037091D803AE014F5F5F4F0E9473
:1059E0004628BC01892B09F441C09091E800977FBB
:1059F0009093E80089819A810E9475298091E8003E
:105A00008B778093E80032C0803881F58091E80080
:105A1000877F8093E8008091CE038093F10080918E
:105A2000E8008E7772CF811121C08091D5039091CB
:105A3000D60399270297D4F48091E800877F80935A
:105A4000E8008091D5038093CE030E940B2A8091B9
:105A5000CE03811106C08091E30087FD02C081E082
:105A600001C084E08093D2030E9440278091E80027
:105A700083FF0AC08091E800877F8093E8008091CF
:105A8000EB0080628093EB00AA960FB6F894DEBF1D
:105A90000FBECDBFDF91CF911F9108950895CF9391
:105AA0008091D2038823A1F0C091E900CF7090913A
:105AB000EC00892F817090FD80E8C82B1092E900DE
:105AC0008091E80083FD0E94EE2BCF70C093E90027
:105AD000CF910895DB018F939F930E94F32DBF9187
